{
  "address": "0xaEefD5819f86f3BE7cA69328C44F6406121fE7d6",
  "abi": [
    {
      "inputs": [],
      "name": "FP_SCALING_FACTOR",
      "outputs": [
        {
          "internalType": "uint256",
          "name": "",
          "type": "uint256"
        }
      ],
      "stateMutability": "view",
      "type": "function"
    },
    {
      "inputs": [],
      "name": "INTEREST_DECIMALS",
      "outputs": [
        {
          "internalType": "uint256",
          "name": "",
          "type": "uint256"
        }
      ],
      "stateMutability": "view",
      "type": "function"
    },
    {
      "inputs": [],
      "name": "SECONDS_PER_DAY",
      "outputs": [
        {
          "internalType": "uint256",
          "name": "",
          "type": "uint256"
        }
      ],
      "stateMutability": "view",
      "type": "function"
    },
    {
      "inputs": [],
      "name": "SECONDS_PER_YEAR",
      "outputs": [
        {
          "internalType": "uint256",
          "name": "",
          "type": "uint256"
        }
      ],
      "stateMutability": "view",
      "type": "function"
    },
    {
      "inputs": [
        {
          "internalType": "uint256",
          "name": "paymentAmount",
          "type": "uint256"
        },
        {
          "internalType": "uint256",
          "name": "balance",
          "type": "uint256"
        },
        {
          "internalType": "uint256",
          "name": "interestOwed",
          "type": "uint256"
        },
        {
          "internalType": "uint256",
          "name": "principalOwed",
          "type": "uint256"
        }
      ],
      "name": "allocatePayment",
      "outputs": [
        {
          "components": [
            {
              "internalType": "uint256",
              "name": "interestPayment",
              "type": "uint256"
            },
            {
              "internalType": "uint256",
              "name": "principalPayment",
              "type": "uint256"
            },
            {
              "internalType": "uint256",
              "name": "additionalBalancePayment",
              "type": "uint256"
            }
          ],
          "internalType": "struct Accountant.PaymentAllocation",
          "name": "",
          "type": "tuple"
        }
      ],
      "stateMutability": "pure",
      "type": "function"
    },
    {
      "inputs": [
        {
          "internalType": "contract ICreditLine",
          "name": "cl",
          "type": "ICreditLine"
        }
      ],
      "name": "calculateAmountOwedForOneDay",
      "outputs": [
        {
          "components": [
            {
              "internalType": "uint256",
              "name": "rawValue",
              "type": "uint256"
            }
          ],
          "internalType": "struct FixedPoint.Unsigned",
          "name": "interestOwed",
          "type": "tuple"
        }
      ],
      "stateMutability": "view",
      "type": "function"
    },
    {
      "inputs": [
        {
          "internalType": "contract CreditLine",
          "name": "cl",
          "type": "CreditLine"
        },
        {
          "internalType": "uint256",
          "name": "balance",
          "type": "uint256"
        },
        {
          "internalType": "uint256",
          "name": "timestamp",
          "type": "uint256"
        },
        {
          "internalType": "uint256",
          "name": "lateFeeGracePeriodInDays",
          "type": "uint256"
        }
      ],
      "name": "calculateInterestAccrued",
      "outputs": [
        {
          "internalType": "uint256",
          "name": "",
          "type": "uint256"
        }
      ],
      "stateMutability": "view",
      "type": "function"
    },
    {
      "inputs": [
        {
          "internalType": "contract CreditLine",
          "name": "cl",
          "type": "CreditLine"
        },
        {
          "internalType": "uint256",
          "name": "balance",
          "type": "uint256"
        },
        {
          "internalType": "uint256",
          "name": "startTime",
          "type": "uint256"
        },
        {
          "internalType": "uint256",
          "name": "endTime",
          "type": "uint256"
        },
        {
          "internalType": "uint256",
          "name": "lateFeeGracePeriodInDays",
          "type": "uint256"
        }
      ],
      "name": "calculateInterestAccruedOverPeriod",
      "outputs": [
        {
          "internalType": "uint256",
          "name": "interestOwed",
          "type": "uint256"
        }
      ],
      "stateMutability": "view",
      "type": "function"
    },
    {
      "inputs": [
        {
          "internalType": "contract CreditLine",
          "name": "cl",
          "type": "CreditLine"
        },
        {
          "internalType": "uint256",
          "name": "timestamp",
          "type": "uint256"
        },
        {
          "internalType": "uint256",
          "name": "lateFeeGracePeriod",
          "type": "uint256"
        }
      ],
      "name": "calculateInterestAndPrincipalAccrued",
      "outputs": [
        {
          "internalType": "uint256",
          "name": "",
          "type": "uint256"
        },
        {
          "internalType": "uint256",
          "name": "",
          "type": "uint256"
        }
      ],
      "stateMutability": "view",
      "type": "function"
    },
    {
      "inputs": [
        {
          "internalType": "contract CreditLine",
          "name": "cl",
          "type": "CreditLine"
        },
        {
          "internalType": "uint256",
          "name": "balance",
          "type": "uint256"
        },
        {
          "internalType": "uint256",
          "name": "startTime",
          "type": "uint256"
        },
        {
          "internalType": "uint256",
          "name": "endTime",
          "type": "uint256"
        },
        {
          "internalType": "uint256",
          "name": "lateFeeGracePeriod",
          "type": "uint256"
        }
      ],
      "name": "calculateInterestAndPrincipalAccruedOverPeriod",
      "outputs": [
        {
          "internalType": "uint256",
          "name": "",
          "type": "uint256"
        },
        {
          "internalType": "uint256",
          "name": "",
          "type": "uint256"
        }
      ],
      "stateMutability": "view",
      "type": "function"
    },
    {
      "inputs": [
        {
          "internalType": "contract ICreditLine",
          "name": "cl",
          "type": "ICreditLine"
        },
        {
          "internalType": "uint256",
          "name": "balance",
          "type": "uint256"
        },
        {
          "internalType": "uint256",
          "name": "timestamp",
          "type": "uint256"
        }
      ],
      "name": "calculatePrincipalAccrued",
      "outputs": [
        {
          "internalType": "uint256",
          "name": "",
          "type": "uint256"
        }
      ],
      "stateMutability": "view",
      "type": "function"
    },
    {
      "inputs": [
        {
          "internalType": "contract ICreditLine",
          "name": "cl",
          "type": "ICreditLine"
        },
        {
          "internalType": "uint256",
          "name": "timestamp",
          "type": "uint256"
        },
        {
          "internalType": "uint256",
          "name": "gracePeriodInDays",
          "type": "uint256"
        },
        {
          "internalType": "uint256",
          "name": "maxDaysLate",
          "type": "uint256"
        }
      ],
      "name": "calculateWritedownFor",
      "outputs": [
        {
          "internalType": "uint256",
          "name": "",
          "type": "uint256"
        },
        {
          "internalType": "uint256",
          "name": "",
          "type": "uint256"
        }
      ],
      "stateMutability": "view",
      "type": "function"
    },
    {
      "inputs": [
        {
          "internalType": "contract ICreditLine",
          "name": "cl",
          "type": "ICreditLine"
        },
        {
          "internalType": "uint256",
          "name": "principal",
          "type": "uint256"
        },
        {
          "internalType": "uint256",
          "name": "timestamp",
          "type": "uint256"
        },
        {
          "internalType": "uint256",
          "name": "gracePeriodInDays",
          "type": "uint256"
        },
        {
          "internalType": "uint256",
          "name": "maxDaysLate",
          "type": "uint256"
        }
      ],
      "name": "calculateWritedownForPrincipal",
      "outputs": [
        {
          "internalType": "uint256",
          "name": "",
          "type": "uint256"
        },
        {
          "internalType": "uint256",
          "name": "",
          "type": "uint256"
        }
      ],
      "stateMutability": "view",
      "type": "function"
    },
    {
      "inputs": [
        {
          "internalType": "contract CreditLine",
          "name": "cl",
          "type": "CreditLine"
        },
        {
          "internalType": "uint256",
          "name": "timestamp",
          "type": "uint256"
        },
        {
          "internalType": "uint256",
          "name": "gracePeriodInDays",
          "type": "uint256"
        }
      ],
      "name": "lateFeeApplicable",
      "outputs": [
        {
          "internalType": "bool",
          "name": "",
          "type": "bool"
        }
      ],
      "stateMutability": "view",
      "type": "function"
    }
  ],
  "transactionHash": "0xdb14caed372fca86a84144d5786645fad48a0347b8e02c46994c82153e5b8f7a",
  "args": [],
  "numDeployments": 1,
  "solcInputHash": "ae210064203e836f7b382a4941e267e0",
  "bytecode": "0x61105061003a600b82828239805160001a60731461002d57634e487b7160e01b600052600060045260246000fd5b30600052607381538281f3fe73000000000000000000000000000000000000000030146080604052600436106100d45760003560e01c806397aec1ab1161008657806397aec1ab14610176578063a55119c314610189578063a7beba8e1461019c578063d6121e3e146101af578063d7cc2a03146101c2578063da95434e146101f7578063e6a69ab81461021957600080fd5b8063101c8430146100d95780632f77b4d114610106578063347dd0b4146101275780633a5333bb1461014a57806368dcfdc01461014a57806374f0314f1461015957806380b9c64714610163575b600080fd5b6100ec6100e7366004610e53565b610221565b604080519283526020830191909152015b60405180910390f35b610119610114366004610ec1565b6102c5565b6040519081526020016100fd565b61013a610135366004610e53565b610458565b60405190151581526020016100fd565b610119670de0b6b3a764000081565b6101196201518081565b610119610171366004610e53565b61056e565b6100ec610184366004610ec1565b61067f565b610119610197366004610e87565b6109a5565b6100ec6101aa366004610f20565b610a3b565b6100ec6101bd366004610ec1565b610ac8565b6101d56101d0366004610f4d565b610af9565b60408051825181526020808401519082015291810151908201526060016100fd565b61020a610205366004610f04565b610b95565b604051905181526020016100fd565b610119610cae565b6000806000856001600160a01b031663b69ef8a86040518163ffffffff1660e01b815260040160206040518083038186803b15801561025f57600080fd5b505afa158015610273573d6000803e3d6000fd5b505050506040513d601f19601f820116820180604052508101906102979190610f35565b905060006102a7878388886109a5565b905060006102b688848961056e565b91989197509095505050505050565b6000806102d28486610cc0565b90506000610363670de0b6b3a764000061035d8a6001600160a01b031663b39699926040518163ffffffff1660e01b815260040160206040518083038186803b15801561031e57600080fd5b505afa158015610332573d6000803e3d6000fd5b505050506040513d601f19601f820116820180604052508101906103569190610f35565b8a90610ccc565b90610cd8565b90506103816103776201518061016d610fb6565b61035d8385610ccc565b925061038e888686610458565b1561044d57600061041c670de0b6b3a764000061035d8b6001600160a01b031663f0b25bde6040518163ffffffff1660e01b815260040160206040518083038186803b1580156103dd57600080fd5b505afa1580156103f1573d6000803e3d6000fd5b505050506040513d601f19601f820116820180604052508101906104159190610f35565b8b90610ccc565b9050600061043c6104326201518061016d610fb6565b61035d8487610ccc565b90506104488582610ce4565b945050505b505095945050505050565b6000806104d6856001600160a01b031663ce78290d6040518163ffffffff1660e01b815260040160206040518083038186803b15801561049757600080fd5b505afa1580156104ab573d6000803e3d6000fd5b505050506040513d601f19601f820116820180604052508101906104cf9190610f35565b8590610cc0565b90506000856001600160a01b031663f0b25bde6040518163ffffffff1660e01b815260040160206040518083038186803b15801561051357600080fd5b505afa158015610527573d6000803e3d6000fd5b505050506040513d601f19601f8201168201806040525081019061054b9190610f35565b11801561056357506105608362015180610ccc565b81115b9150505b9392505050565b600080846001600160a01b03166364fb2d956040518163ffffffff1660e01b815260040160206040518083038186803b1580156105aa57600080fd5b505afa1580156105be573d6000803e3d6000fd5b505050506040513d601f19601f820116820180604052508101906105e29190610f35565b905080856001600160a01b031663bbafcb406040518163ffffffff1660e01b815260040160206040518083038186803b15801561061e57600080fd5b505afa158015610632573d6000803e3d6000fd5b505050506040513d601f19601f820116820180604052508101906106569190610f35565b10610665576000915050610567565b8083106106755783915050610567565b6000915050610567565b600080600061068d88610b95565b905061069a816000610cf0565b156106ac57600080925092505061099b565b60006106b786610d07565b90506106cf6040518060200160405280600081525090565b60006107bc8b6001600160a01b031663193501146040518163ffffffff1660e01b815260040160206040518083038186803b15801561070d57600080fd5b505afa158015610721573d6000803e3d6000fd5b505050506040513d601f19601f820116820180604052508101906107459190610f35565b8c6001600160a01b03166321856b366040518163ffffffff1660e01b815260040160206040518083038186803b15801561077e57600080fd5b505afa158015610792573d6000803e3d6000fd5b505050506040513d601f19601f820116820180604052508101906107b69190610f35565b90610ce4565b90506107d1846107cb83610d07565b90610d3c565b91508a6001600160a01b03166364fb2d956040518163ffffffff1660e01b815260040160206040518083038186803b15801561080c57600080fd5b505afa158015610820573d6000803e3d6000fd5b505050506040513d601f19601f820116820180604052508101906108449190610f35565b8911156108ee5760006108c88c6001600160a01b03166364fb2d956040518163ffffffff1660e01b815260040160206040518083038186803b15801561088957600080fd5b505afa15801561089d573d6000803e3d6000fd5b505050506040513d601f19601f820116820180604052508101906108c19190610f35565b8b90610cc0565b90506108ea6108e3620151806108dd84610d07565b90610d7b565b8490610da3565b9250505b60006108f988610d07565b90506109116040518060200160405280600081525090565b845184511161092b576109246000610d07565b905061094e565b61094b6109386001610d07565b610946846107cb888a610dcd565b610df7565b90505b600061096f670de0b6b3a76400006108dd8f85610e1c90919063ffffffff16565b9050600061098a670de0b6b3a76400006108dd856064610e1c565b519151919950909750505050505050505b9550959350505050565b600080610a2284876001600160a01b031663bbafcb406040518163ffffffff1660e01b815260040160206040518083038186803b1580156109e557600080fd5b505afa1580156109f9573d6000803e3d6000fd5b505050506040513d601f19601f82011682018060405250810190610a1d9190610f35565b610e44565b9050610a3186868387876102c5565b9695505050505050565b600080610abb86876001600160a01b031663b69ef8a86040518163ffffffff1660e01b815260040160206040518083038186803b158015610a7b57600080fd5b505afa158015610a8f573d6000803e3d6000fd5b505050506040513d601f19601f82011682018060405250810190610ab39190610f35565b87878761067f565b9150915094509492505050565b6000806000610ada88888888886102c5565b90506000610ae989898861056e565b9199919850909650505050505050565b610b1d60405180606001604052806000815260200160008152602001600081525090565b846000610b2a8583610e44565b9050610b368282610cc0565b91506000610b448584610e44565b9050610b508382610cc0565b92506000610b5e8883610cc0565b90506000610b6c8583610e44565b604080516060810182529586526020860194909452928401929092525090979650505050505050565b6040805160208101909152600081526000610c9d670de0b6b3a764000061035d856001600160a01b031663b39699926040518163ffffffff1660e01b815260040160206040518083038186803b158015610bee57600080fd5b505afa158015610c02573d6000803e3d6000fd5b505050506040513d601f19601f82011682018060405250810190610c269190610f35565b866001600160a01b031663b69ef8a86040518163ffffffff1660e01b815260040160206040518083038186803b158015610c5f57600080fd5b505afa158015610c73573d6000803e3d6000fd5b505050506040513d601f19601f82011682018060405250810190610c979190610f35565b90610ccc565b905061056761016d6108dd83610d07565b610cbd6201518061016d610fb6565b81565b60006105678284610fd5565b60006105678284610fb6565b60006105678284610f96565b60006105678284610f7e565b6000610cfb82610d07565b51835114905092915050565b604080516020810190915260008152604080516020810190915280610d3484670de0b6b3a7640000610ccc565b905292915050565b6040805160208101909152600081526040805160208101909152825184518291610d729161035d90670de0b6b3a7640000610ccc565b90529392505050565b604080516020810190915260008152604080516020810190915283518190610d729085610cd8565b6040805160208101909152600081526040805160208101909152825184518291610d729190610ce4565b6040805160208101909152600081526040805160208101909152825184518291610d729190610cc0565b6040805160208101909152600081528151835110610e155781610567565b5090919050565b604080516020810190915260008152604080516020810190915283518190610d729085610ccc565b6000818310610e155781610567565b600080600060608486031215610e67578283fd5b8335610e7281611002565b95602085013595506040909401359392505050565b60008060008060808587031215610e9c578081fd5b8435610ea781611002565b966020860135965060408601359560600135945092505050565b600080600080600060a08688031215610ed8578081fd5b8535610ee381611002565b97602087013597506040870135966060810135965060800135945092505050565b600060208284031215610f15578081fd5b813561056781611002565b60008060008060808587031215610e9c578384fd5b600060208284031215610f46578081fd5b5051919050565b60008060008060808587031215610f62578384fd5b5050823594602084013594506040840135936060013592509050565b60008219821115610f9157610f91610fec565b500190565b600082610fb157634e487b7160e01b81526012600452602481fd5b500490565b6000816000190483118215151615610fd057610fd0610fec565b500290565b600082821015610fe757610fe7610fec565b500390565b634e487b7160e01b600052601160045260246000fd5b6001600160a01b038116811461101757600080fd5b5056fea2646970667358221220427bb556db7113bdb0421dc69d0afbf593c7a8e5d01087ef3a92dcdad91ce21e64736f6c63430008040033",
  "devdoc": {
    "author": "Doberman",
    "kind": "dev",
    "methods": {},
    "title": "The Accountant",
    "version": 1
  },
  "userdoc": {
    "kind": "user",
    "methods": {},
    "notice": "Library for handling key financial calculations, such as interest and principal accrual.",
    "version": 1
  },
  "storageLayout": {
    "storage": [],
    "types": null
  }
}