{
  "address": "0x2Ba8cBfBF1Fc2c9b56FDC2fcf12E5798Dcf42eda",
  "abi": [
    {
      "anonymous": false,
      "inputs": [
        {
          "indexed": true,
          "internalType": "address",
          "name": "account",
          "type": "address"
        },
        {
          "indexed": true,
          "internalType": "address",
          "name": "operator",
          "type": "address"
        },
        {
          "indexed": false,
          "internalType": "bool",
          "name": "approved",
          "type": "bool"
        }
      ],
      "name": "ApprovalForAll",
      "type": "event"
    },
    {
      "anonymous": false,
      "inputs": [
        {
          "indexed": false,
          "internalType": "uint8",
          "name": "version",
          "type": "uint8"
        }
      ],
      "name": "Initialized",
      "type": "event"
    },
    {
      "anonymous": false,
      "inputs": [
        {
          "indexed": false,
          "internalType": "address",
          "name": "account",
          "type": "address"
        }
      ],
      "name": "Paused",
      "type": "event"
    },
    {
      "anonymous": false,
      "inputs": [
        {
          "indexed": true,
          "internalType": "bytes32",
          "name": "role",
          "type": "bytes32"
        },
        {
          "indexed": true,
          "internalType": "bytes32",
          "name": "previousAdminRole",
          "type": "bytes32"
        },
        {
          "indexed": true,
          "internalType": "bytes32",
          "name": "newAdminRole",
          "type": "bytes32"
        }
      ],
      "name": "RoleAdminChanged",
      "type": "event"
    },
    {
      "anonymous": false,
      "inputs": [
        {
          "indexed": true,
          "internalType": "bytes32",
          "name": "role",
          "type": "bytes32"
        },
        {
          "indexed": true,
          "internalType": "address",
          "name": "account",
          "type": "address"
        },
        {
          "indexed": true,
          "internalType": "address",
          "name": "sender",
          "type": "address"
        }
      ],
      "name": "RoleGranted",
      "type": "event"
    },
    {
      "anonymous": false,
      "inputs": [
        {
          "indexed": true,
          "internalType": "bytes32",
          "name": "role",
          "type": "bytes32"
        },
        {
          "indexed": true,
          "internalType": "address",
          "name": "account",
          "type": "address"
        },
        {
          "indexed": true,
          "internalType": "address",
          "name": "sender",
          "type": "address"
        }
      ],
      "name": "RoleRevoked",
      "type": "event"
    },
    {
      "anonymous": false,
      "inputs": [
        {
          "indexed": true,
          "internalType": "address",
          "name": "operator",
          "type": "address"
        },
        {
          "indexed": true,
          "internalType": "address",
          "name": "from",
          "type": "address"
        },
        {
          "indexed": true,
          "internalType": "address",
          "name": "to",
          "type": "address"
        },
        {
          "indexed": false,
          "internalType": "uint256[]",
          "name": "ids",
          "type": "uint256[]"
        },
        {
          "indexed": false,
          "internalType": "uint256[]",
          "name": "values",
          "type": "uint256[]"
        }
      ],
      "name": "TransferBatch",
      "type": "event"
    },
    {
      "anonymous": false,
      "inputs": [
        {
          "indexed": true,
          "internalType": "address",
          "name": "operator",
          "type": "address"
        },
        {
          "indexed": true,
          "internalType": "address",
          "name": "from",
          "type": "address"
        },
        {
          "indexed": true,
          "internalType": "address",
          "name": "to",
          "type": "address"
        },
        {
          "indexed": false,
          "internalType": "uint256",
          "name": "id",
          "type": "uint256"
        },
        {
          "indexed": false,
          "internalType": "uint256",
          "name": "value",
          "type": "uint256"
        }
      ],
      "name": "TransferSingle",
      "type": "event"
    },
    {
      "anonymous": false,
      "inputs": [
        {
          "indexed": false,
          "internalType": "string",
          "name": "value",
          "type": "string"
        },
        {
          "indexed": true,
          "internalType": "uint256",
          "name": "id",
          "type": "uint256"
        }
      ],
      "name": "URI",
      "type": "event"
    },
    {
      "anonymous": false,
      "inputs": [
        {
          "indexed": false,
          "internalType": "address",
          "name": "account",
          "type": "address"
        }
      ],
      "name": "Unpaused",
      "type": "event"
    },
    {
      "inputs": [],
      "name": "DEFAULT_ADMIN_ROLE",
      "outputs": [
        {
          "internalType": "bytes32",
          "name": "",
          "type": "bytes32"
        }
      ],
      "stateMutability": "view",
      "type": "function"
    },
    {
      "inputs": [],
      "name": "ID_TYPE_0",
      "outputs": [
        {
          "internalType": "uint256",
          "name": "",
          "type": "uint256"
        }
      ],
      "stateMutability": "view",
      "type": "function"
    },
    {
      "inputs": [],
      "name": "ID_TYPE_1",
      "outputs": [
        {
          "internalType": "uint256",
          "name": "",
          "type": "uint256"
        }
      ],
      "stateMutability": "view",
      "type": "function"
    },
    {
      "inputs": [],
      "name": "ID_TYPE_10",
      "outputs": [
        {
          "internalType": "uint256",
          "name": "",
          "type": "uint256"
        }
      ],
      "stateMutability": "view",
      "type": "function"
    },
    {
      "inputs": [],
      "name": "ID_TYPE_2",
      "outputs": [
        {
          "internalType": "uint256",
          "name": "",
          "type": "uint256"
        }
      ],
      "stateMutability": "view",
      "type": "function"
    },
    {
      "inputs": [],
      "name": "ID_TYPE_3",
      "outputs": [
        {
          "internalType": "uint256",
          "name": "",
          "type": "uint256"
        }
      ],
      "stateMutability": "view",
      "type": "function"
    },
    {
      "inputs": [],
      "name": "ID_TYPE_4",
      "outputs": [
        {
          "internalType": "uint256",
          "name": "",
          "type": "uint256"
        }
      ],
      "stateMutability": "view",
      "type": "function"
    },
    {
      "inputs": [],
      "name": "ID_TYPE_5",
      "outputs": [
        {
          "internalType": "uint256",
          "name": "",
          "type": "uint256"
        }
      ],
      "stateMutability": "view",
      "type": "function"
    },
    {
      "inputs": [],
      "name": "ID_TYPE_6",
      "outputs": [
        {
          "internalType": "uint256",
          "name": "",
          "type": "uint256"
        }
      ],
      "stateMutability": "view",
      "type": "function"
    },
    {
      "inputs": [],
      "name": "ID_TYPE_7",
      "outputs": [
        {
          "internalType": "uint256",
          "name": "",
          "type": "uint256"
        }
      ],
      "stateMutability": "view",
      "type": "function"
    },
    {
      "inputs": [],
      "name": "ID_TYPE_8",
      "outputs": [
        {
          "internalType": "uint256",
          "name": "",
          "type": "uint256"
        }
      ],
      "stateMutability": "view",
      "type": "function"
    },
    {
      "inputs": [],
      "name": "ID_TYPE_9",
      "outputs": [
        {
          "internalType": "uint256",
          "name": "",
          "type": "uint256"
        }
      ],
      "stateMutability": "view",
      "type": "function"
    },
    {
      "inputs": [],
      "name": "MINT_COST_PER_TOKEN",
      "outputs": [
        {
          "internalType": "uint256",
          "name": "",
          "type": "uint256"
        }
      ],
      "stateMutability": "view",
      "type": "function"
    },
    {
      "inputs": [],
      "name": "OWNER_ROLE",
      "outputs": [
        {
          "internalType": "bytes32",
          "name": "",
          "type": "bytes32"
        }
      ],
      "stateMutability": "view",
      "type": "function"
    },
    {
      "inputs": [],
      "name": "PAUSER_ROLE",
      "outputs": [
        {
          "internalType": "bytes32",
          "name": "",
          "type": "bytes32"
        }
      ],
      "stateMutability": "view",
      "type": "function"
    },
    {
      "inputs": [],
      "name": "SIGNER_ROLE",
      "outputs": [
        {
          "internalType": "bytes32",
          "name": "",
          "type": "bytes32"
        }
      ],
      "stateMutability": "view",
      "type": "function"
    },
    {
      "inputs": [
        {
          "internalType": "address",
          "name": "account",
          "type": "address"
        },
        {
          "internalType": "uint256",
          "name": "id",
          "type": "uint256"
        }
      ],
      "name": "balanceOf",
      "outputs": [
        {
          "internalType": "uint256",
          "name": "",
          "type": "uint256"
        }
      ],
      "stateMutability": "view",
      "type": "function"
    },
    {
      "inputs": [
        {
          "internalType": "address[]",
          "name": "accounts",
          "type": "address[]"
        },
        {
          "internalType": "uint256[]",
          "name": "ids",
          "type": "uint256[]"
        }
      ],
      "name": "balanceOfBatch",
      "outputs": [
        {
          "internalType": "uint256[]",
          "name": "",
          "type": "uint256[]"
        }
      ],
      "stateMutability": "view",
      "type": "function"
    },
    {
      "inputs": [
        {
          "internalType": "address",
          "name": "account",
          "type": "address"
        },
        {
          "internalType": "uint256",
          "name": "id",
          "type": "uint256"
        },
        {
          "internalType": "uint256",
          "name": "expiresAt",
          "type": "uint256"
        },
        {
          "internalType": "bytes",
          "name": "signature",
          "type": "bytes"
        }
      ],
      "name": "burn",
      "outputs": [],
      "stateMutability": "nonpayable",
      "type": "function"
    },
    {
      "inputs": [
        {
          "internalType": "bytes32",
          "name": "role",
          "type": "bytes32"
        }
      ],
      "name": "getRoleAdmin",
      "outputs": [
        {
          "internalType": "bytes32",
          "name": "",
          "type": "bytes32"
        }
      ],
      "stateMutability": "view",
      "type": "function"
    },
    {
      "inputs": [
        {
          "internalType": "bytes32",
          "name": "role",
          "type": "bytes32"
        },
        {
          "internalType": "uint256",
          "name": "index",
          "type": "uint256"
        }
      ],
      "name": "getRoleMember",
      "outputs": [
        {
          "internalType": "address",
          "name": "",
          "type": "address"
        }
      ],
      "stateMutability": "view",
      "type": "function"
    },
    {
      "inputs": [
        {
          "internalType": "bytes32",
          "name": "role",
          "type": "bytes32"
        }
      ],
      "name": "getRoleMemberCount",
      "outputs": [
        {
          "internalType": "uint256",
          "name": "",
          "type": "uint256"
        }
      ],
      "stateMutability": "view",
      "type": "function"
    },
    {
      "inputs": [
        {
          "internalType": "bytes32",
          "name": "role",
          "type": "bytes32"
        },
        {
          "internalType": "address",
          "name": "account",
          "type": "address"
        }
      ],
      "name": "grantRole",
      "outputs": [],
      "stateMutability": "nonpayable",
      "type": "function"
    },
    {
      "inputs": [
        {
          "internalType": "bytes32",
          "name": "role",
          "type": "bytes32"
        },
        {
          "internalType": "address",
          "name": "account",
          "type": "address"
        }
      ],
      "name": "hasRole",
      "outputs": [
        {
          "internalType": "bool",
          "name": "",
          "type": "bool"
        }
      ],
      "stateMutability": "view",
      "type": "function"
    },
    {
      "inputs": [
        {
          "internalType": "address",
          "name": "owner",
          "type": "address"
        },
        {
          "internalType": "string",
          "name": "uri",
          "type": "string"
        }
      ],
      "name": "initialize",
      "outputs": [],
      "stateMutability": "nonpayable",
      "type": "function"
    },
    {
      "inputs": [],
      "name": "isAdmin",
      "outputs": [
        {
          "internalType": "bool",
          "name": "",
          "type": "bool"
        }
      ],
      "stateMutability": "view",
      "type": "function"
    },
    {
      "inputs": [
        {
          "internalType": "address",
          "name": "account",
          "type": "address"
        },
        {
          "internalType": "address",
          "name": "operator",
          "type": "address"
        }
      ],
      "name": "isApprovedForAll",
      "outputs": [
        {
          "internalType": "bool",
          "name": "",
          "type": "bool"
        }
      ],
      "stateMutability": "view",
      "type": "function"
    },
    {
      "inputs": [
        {
          "internalType": "uint256",
          "name": "id",
          "type": "uint256"
        },
        {
          "internalType": "uint256",
          "name": "expiresAt",
          "type": "uint256"
        },
        {
          "internalType": "bytes",
          "name": "signature",
          "type": "bytes"
        }
      ],
      "name": "mint",
      "outputs": [],
      "stateMutability": "payable",
      "type": "function"
    },
    {
      "inputs": [],
      "name": "name",
      "outputs": [
        {
          "internalType": "string",
          "name": "",
          "type": "string"
        }
      ],
      "stateMutability": "pure",
      "type": "function"
    },
    {
      "inputs": [
        {
          "internalType": "address",
          "name": "",
          "type": "address"
        }
      ],
      "name": "nonces",
      "outputs": [
        {
          "internalType": "uint256",
          "name": "",
          "type": "uint256"
        }
      ],
      "stateMutability": "view",
      "type": "function"
    },
    {
      "inputs": [],
      "name": "pause",
      "outputs": [],
      "stateMutability": "nonpayable",
      "type": "function"
    },
    {
      "inputs": [],
      "name": "paused",
      "outputs": [
        {
          "internalType": "bool",
          "name": "",
          "type": "bool"
        }
      ],
      "stateMutability": "view",
      "type": "function"
    },
    {
      "inputs": [
        {
          "internalType": "bytes32",
          "name": "role",
          "type": "bytes32"
        },
        {
          "internalType": "address",
          "name": "account",
          "type": "address"
        }
      ],
      "name": "renounceRole",
      "outputs": [],
      "stateMutability": "nonpayable",
      "type": "function"
    },
    {
      "inputs": [
        {
          "internalType": "bytes32",
          "name": "role",
          "type": "bytes32"
        },
        {
          "internalType": "address",
          "name": "account",
          "type": "address"
        }
      ],
      "name": "revokeRole",
      "outputs": [],
      "stateMutability": "nonpayable",
      "type": "function"
    },
    {
      "inputs": [
        {
          "internalType": "address",
          "name": "from",
          "type": "address"
        },
        {
          "internalType": "address",
          "name": "to",
          "type": "address"
        },
        {
          "internalType": "uint256[]",
          "name": "ids",
          "type": "uint256[]"
        },
        {
          "internalType": "uint256[]",
          "name": "amounts",
          "type": "uint256[]"
        },
        {
          "internalType": "bytes",
          "name": "data",
          "type": "bytes"
        }
      ],
      "name": "safeBatchTransferFrom",
      "outputs": [],
      "stateMutability": "nonpayable",
      "type": "function"
    },
    {
      "inputs": [
        {
          "internalType": "address",
          "name": "from",
          "type": "address"
        },
        {
          "internalType": "address",
          "name": "to",
          "type": "address"
        },
        {
          "internalType": "uint256",
          "name": "id",
          "type": "uint256"
        },
        {
          "internalType": "uint256",
          "name": "amount",
          "type": "uint256"
        },
        {
          "internalType": "bytes",
          "name": "data",
          "type": "bytes"
        }
      ],
      "name": "safeTransferFrom",
      "outputs": [],
      "stateMutability": "nonpayable",
      "type": "function"
    },
    {
      "inputs": [
        {
          "internalType": "address",
          "name": "operator",
          "type": "address"
        },
        {
          "internalType": "bool",
          "name": "approved",
          "type": "bool"
        }
      ],
      "name": "setApprovalForAll",
      "outputs": [],
      "stateMutability": "nonpayable",
      "type": "function"
    },
    {
      "inputs": [
        {
          "internalType": "uint256[]",
          "name": "ids",
          "type": "uint256[]"
        },
        {
          "internalType": "bool[]",
          "name": "values",
          "type": "bool[]"
        }
      ],
      "name": "setSupportedUIDTypes",
      "outputs": [],
      "stateMutability": "nonpayable",
      "type": "function"
    },
    {
      "inputs": [
        {
          "internalType": "string",
          "name": "newuri",
          "type": "string"
        }
      ],
      "name": "setURI",
      "outputs": [],
      "stateMutability": "nonpayable",
      "type": "function"
    },
    {
      "inputs": [
        {
          "internalType": "uint256",
          "name": "",
          "type": "uint256"
        }
      ],
      "name": "supportedUIDTypes",
      "outputs": [
        {
          "internalType": "bool",
          "name": "",
          "type": "bool"
        }
      ],
      "stateMutability": "view",
      "type": "function"
    },
    {
      "inputs": [
        {
          "internalType": "bytes4",
          "name": "interfaceId",
          "type": "bytes4"
        }
      ],
      "name": "supportsInterface",
      "outputs": [
        {
          "internalType": "bool",
          "name": "",
          "type": "bool"
        }
      ],
      "stateMutability": "view",
      "type": "function"
    },
    {
      "inputs": [],
      "name": "symbol",
      "outputs": [
        {
          "internalType": "string",
          "name": "",
          "type": "string"
        }
      ],
      "stateMutability": "pure",
      "type": "function"
    },
    {
      "inputs": [],
      "name": "unpause",
      "outputs": [],
      "stateMutability": "nonpayable",
      "type": "function"
    },
    {
      "inputs": [
        {
          "internalType": "uint256",
          "name": "",
          "type": "uint256"
        }
      ],
      "name": "uri",
      "outputs": [
        {
          "internalType": "string",
          "name": "",
          "type": "string"
        }
      ],
      "stateMutability": "view",
      "type": "function"
    }
  ],
  "transactionHash": "0x2ef247a14bce75a7b140ce3a7bbd5c39bf8b17c5a5948ef6cb1425d0630f04f7",
  "args": [],
  "numDeployments": 1,
  "solcInputHash": "a6040163ab01334943b1be710cb05b2c",
  "bytecode": "0x608060405234801561001057600080fd5b50613aa1806100206000396000f3fe6080604052600436106102665760003560e01c80638456cb5911610144578063b6db75a0116100b6578063e58378bb1161007a578063e58378bb1461070a578063e63ab1e91461072c578063e985e9c51461074e578063ec2e8a7514610797578063f242432a146107ac578063f399e22e146107cc57600080fd5b8063b6db75a01461068b578063ca15c873146106a0578063d547741f146106c0578063ddd8f687146106e0578063e57a2a50146106f557600080fd5b806391d148541161010857806391d14854146105e857806395d89b41146106085780639b56d78814610634578063a1ebf35d14610649578063a217fddf14610634578063a22cb4651461066b57600080fd5b80638456cb591461052a578063879dcceb1461053f5780638a94b05f1461055f5780639010d07c1461057f5780639142575d146105b757600080fd5b80632f2ff15d116101dd5780635344626a116101a15780635344626a146104905780635c975abb146104a5578063701d240a146104bd5780637ecebe00146104d2578063801dfa901461050057806380f878021461051557600080fd5b80632f2ff15d146103f957806336568abe146104195780633f4ba83a14610439578063479e743c1461044e5780634e1273f41461046357600080fd5b80630e89341c1161022f5780630e89341c146103445780631484bddd14610364578063248a9ca3146103795780632dc2c007146103a95780632e82d895146103c45780632eb2c2d6146103d957600080fd5b8062fdd58e1461026b57806301ffc9a71461029e57806302fe5305146102ce57806306fdde03146102f057806308dc9f4214610331575b600080fd5b34801561027757600080fd5b5061028b61028636600461307b565b6107ec565b6040519081526020015b60405180910390f35b3480156102aa57600080fd5b506102be6102b93660046132a6565b610887565b6040519015158152602001610295565b3480156102da57600080fd5b506102ee6102e93660046132de565b610892565b005b3480156102fc57600080fd5b5060408051808201909152600f81526e556e69717565204964656e7469747960881b60208201525b604051610295919061355b565b6102ee61033f366004613318565b6108c2565b34801561035057600080fd5b5061032461035f36600461324b565b610b08565b34801561037057600080fd5b5061028b600881565b34801561038557600080fd5b5061028b61039436600461324b565b60009081526065602052604090206001015490565b3480156103b557600080fd5b5061028b6602f2e16f29e00081565b3480156103d057600080fd5b5061028b600381565b3480156103e557600080fd5b506102ee6103f4366004612f00565b610b9c565b34801561040557600080fd5b506102ee610414366004613263565b610be8565b34801561042557600080fd5b506102ee610434366004613263565b610c12565b34801561044557600080fd5b506102ee610c90565b34801561045a57600080fd5b5061028b600581565b34801561046f57600080fd5b5061048361047e366004613109565b610d1c565b604051610295919061351a565b34801561049c57600080fd5b5061028b600681565b3480156104b157600080fd5b5060fb5460ff166102be565b3480156104c957600080fd5b5061028b600181565b3480156104de57600080fd5b5061028b6104ed366004612eb4565b6101916020526000908152604090205481565b34801561050c57600080fd5b5061028b600781565b34801561052157600080fd5b5061028b600281565b34801561053657600080fd5b506102ee610e7d565b34801561054b57600080fd5b506102ee61055a3660046131c9565b610f05565b34801561056b57600080fd5b506102ee61057a3660046130a4565b61101a565b34801561058b57600080fd5b5061059f61059a366004613285565b6111af565b6040516001600160a01b039091168152602001610295565b3480156105c357600080fd5b506102be6105d236600461324b565b6101926020526000908152604090205460ff1681565b3480156105f457600080fd5b506102be610603366004613263565b6111ce565b34801561061457600080fd5b5060408051808201909152600381526215525160ea1b6020820152610324565b34801561064057600080fd5b5061028b600081565b34801561065557600080fd5b5061028b600080516020613a4c83398151915281565b34801561067757600080fd5b506102ee610686366004613007565b6111f9565b34801561069757600080fd5b506102be611204565b3480156106ac57600080fd5b5061028b6106bb36600461324b565b611223565b3480156106cc57600080fd5b506102ee6106db366004613263565b61123a565b3480156106ec57600080fd5b5061028b600a81565b34801561070157600080fd5b5061028b600981565b34801561071657600080fd5b5061028b600080516020613a0c83398151915281565b34801561073857600080fd5b5061028b600080516020613a2c83398151915281565b34801561075a57600080fd5b506102be610769366004612ece565b6001600160a01b03918216600090815260ca6020908152604080832093909416825291909152205460ff1690565b3480156107a357600080fd5b5061028b600481565b3480156107b857600080fd5b506102ee6107c7366004612fa5565b61125f565b3480156107d857600080fd5b506102ee6107e7366004613030565b6112a4565b60006001600160a01b03831661085c5760405162461bcd60e51b815260206004820152602a60248201527f455243313135353a2061646472657373207a65726f206973206e6f742061207660448201526930b634b21037bbb732b960b11b60648201526084015b60405180910390fd5b50600081815260c9602090815260408083206001600160a01b03861684529091529020545b92915050565b6000610881826113d7565b61089a611204565b6108b65760405162461bcd60e51b815260040161085390613783565b6108bf81611417565b50565b33848484848242106108e65760405162461bcd60e51b815260040161085390613709565b6001600160a01b03851660009081526101916020908152604080832054905161091a928992899289923092914691016133c2565b604051602081830303815290604052805190602001209050600061093d8261142a565b9050610991600080516020613a4c8339815191526106038387878080601f01602080910402602001604051908101604052809392919081815260200183838082843760009201919091525061147d92505050565b6109ad5760405162461bcd60e51b8152600401610853906136e1565b336000818152610191602052604081208054600192906109ce9084906137f1565b90915550506602f2e16f29e000341015610a2a5760405162461bcd60e51b815260206004820152601f60248201527f546f6b656e206d696e7420726571756972657320302e303030383320455448006044820152606401610853565b60008c8152610192602052604090205460ff161515600114610a875760405162461bcd60e51b8152602060048201526016602482015275151bdad95b881a59081b9bdd081cdd5c1c1bdc9d195960521b6044820152606401610853565b610a91338d6107ec565b15610ade5760405162461bcd60e51b815260206004820152601d60248201527f42616c616e6365206265666f7265206d696e74206d75737420626520300000006044820152606401610853565b610afa338d600160405180602001604052806000815250611499565b505050505050505050505050565b606060cb8054610b1790613886565b80601f0160208091040260200160405190810160405280929190818152602001828054610b4390613886565b8015610b905780601f10610b6557610100808354040283529160200191610b90565b820191906000526020600020905b815481529060010190602001808311610b7357829003601f168201915b50505050509050919050565b6001600160a01b038516331480610bb85750610bb88533610769565b610bd45760405162461bcd60e51b8152600401610853906135b6565b610be185858585856115ac565b5050505050565b600082815260656020526040902060010154610c03816117b6565b610c0d83836117c0565b505050565b6001600160a01b0381163314610c825760405162461bcd60e51b815260206004820152602f60248201527f416363657373436f6e74726f6c3a2063616e206f6e6c792072656e6f756e636560448201526e103937b632b9903337b91039b2b63360891b6064820152608401610853565b610c8c82826117e2565b5050565b610ca8600080516020613a2c833981519152336111ce565b610d125760405162461bcd60e51b815260206004820152603560248201527f455243313135355072657365745061757365723a206d75737420686176652070604482015274617573657220726f6c6520746f20756e706175736560581b6064820152608401610853565b610d1a611804565b565b60608151835114610d815760405162461bcd60e51b815260206004820152602960248201527f455243313135353a206163636f756e747320616e6420696473206c656e677468604482015268040dad2e6dac2e8c6d60bb1b6064820152608401610853565b600083516001600160401b03811115610daa57634e487b7160e01b600052604160045260246000fd5b604051908082528060200260200182016040528015610dd3578160200160208202803683370190505b50905060005b8451811015610e7557610e3a858281518110610e0557634e487b7160e01b600052603260045260246000fd5b6020026020010151858381518110610e2d57634e487b7160e01b600052603260045260246000fd5b60200260200101516107ec565b828281518110610e5a57634e487b7160e01b600052603260045260246000fd5b6020908102919091010152610e6e816138ed565b9050610dd9565b509392505050565b610e95600080516020613a2c833981519152336111ce565b610efd5760405162461bcd60e51b815260206004820152603360248201527f455243313135355072657365745061757365723a206d75737420686176652070604482015272617573657220726f6c6520746f20706175736560681b6064820152608401610853565b610d1a611856565b610f0d611204565b610f295760405162461bcd60e51b815260040161085390613783565b828114610f785760405162461bcd60e51b815260206004820181905260248201527f6163636f756e747320616e6420696473206c656e677468206d69736d617463686044820152606401610853565b60005b83811015610be157828282818110610fa357634e487b7160e01b600052603260045260246000fd5b9050602002016020810190610fb89190613231565b6101926000878785818110610fdd57634e487b7160e01b600052603260045260246000fd5b90506020020135815260200190815260200160002060006101000a81548160ff02191690831515021790555080611013906138ed565b9050610f7b565b848484848482421061103e5760405162461bcd60e51b815260040161085390613709565b6001600160a01b038516600090815261019160209081526040808320549051611072928992899289923092914691016133c2565b60405160208183030381529060405280519060200120905060006110958261142a565b90506110e9600080516020613a4c8339815191526106038387878080601f01602080910402602001604051908101604052809392919081815260200183838082843760009201919091525061147d92505050565b6111055760405162461bcd60e51b8152600401610853906136e1565b6001600160a01b038c1660009081526101916020526040812080548e92600192916111319084906137f1565b9091555061114390508d8d6001611893565b600061114f8e8e6107ec565b9050801561119f5760405162461bcd60e51b815260206004820152601c60248201527f42616c616e6365206166746572206275726e206d7573742062652030000000006044820152606401610853565b5050505050505050505050505050565b60008281526097602052604081206111c79083611a15565b9392505050565b60009182526065602090815260408084206001600160a01b0393909316845291905290205460ff1690565b610c8c338383611a21565b600061121e600080516020613a0c833981519152336111ce565b905090565b600081815260976020526040812061088190611b02565b600082815260656020526040902060010154611255816117b6565b610c0d83836117e2565b6001600160a01b03851633148061127b575061127b8533610769565b6112975760405162461bcd60e51b8152600401610853906135b6565b610be18585858585611b0c565b600054610100900460ff16158080156112c45750600054600160ff909116105b806112e557506112d330611c36565b1580156112e5575060005460ff166001145b6113015760405162461bcd60e51b815260040161085390613649565b6000805460ff191660011790558015611324576000805461ff0019166101001790555b6001600160a01b03831661137a5760405162461bcd60e51b815260206004820152601d60248201527f4f776e657220616464726573732063616e6e6f7420626520656d7074790000006044820152606401610853565b6113848383611c45565b61138d83611d07565b8015610c0d576000805461ff0019169055604051600181527f7f26b83ff96e1f2b6a682f133852f6798a09c465da95921460cefb38474024989060200160405180910390a1505050565b60006001600160e01b03198216636cdb3d1360e11b148061140857506001600160e01b031982166303a24d0760e21b145b80610881575061088182611dd9565b8051610c8c9060cb906020840190612c8c565b6040517f19457468657265756d205369676e6564204d6573736167653a0a3332000000006020820152603c8101829052600090605c01604051602081830303815290604052805190602001209050919050565b600080600061148c8585611dfe565b91509150610e7581611e44565b6001600160a01b0384166114f95760405162461bcd60e51b815260206004820152602160248201527f455243313135353a206d696e7420746f20746865207a65726f206164647265736044820152607360f81b6064820152608401610853565b33600061150585611fc5565b9050600061151285611fc5565b90506115238360008985858961201e565b600086815260c9602090815260408083206001600160a01b038b168452909152812080548792906115559084906137f1565b909155505060408051878152602081018790526001600160a01b03808a1692600092918716916000805160206139ec833981519152910160405180910390a46115a3836000898989896120cc565b50505050505050565b815183511461160e5760405162461bcd60e51b815260206004820152602860248201527f455243313135353a2069647320616e6420616d6f756e7473206c656e677468206044820152670dad2e6dac2e8c6d60c31b6064820152608401610853565b6001600160a01b0384166116345760405162461bcd60e51b815260040161085390613604565b3361164381878787878761201e565b60005b845181101561174857600085828151811061167157634e487b7160e01b600052603260045260246000fd5b60200260200101519050600085838151811061169d57634e487b7160e01b600052603260045260246000fd5b602090810291909101810151600084815260c9835260408082206001600160a01b038e1683529093529190912054909150818110156116ee5760405162461bcd60e51b815260040161085390613697565b600083815260c9602090815260408083206001600160a01b038e8116855292528083208585039055908b1682528120805484929061172d9084906137f1565b9250508190555050505080611741906138ed565b9050611646565b50846001600160a01b0316866001600160a01b0316826001600160a01b03167f4a39dc06d4c0dbc64b70af90fd698a233a518aa5d07e595d983b8c0526c8f7fb878760405161179892919061352d565b60405180910390a46117ae81878787878761223e565b505050505050565b6108bf813361230f565b6117ca8282612368565b6000828152609760205260409020610c0d90826123ee565b6117ec8282612403565b6000828152609760205260409020610c0d908261246a565b61180c61247f565b60fb805460ff191690557f5db9ee0a495bf2e6ff9c91a7834c1ba4fdd244a5e8aa4e537bd38aeae4b073aa335b6040516001600160a01b03909116815260200160405180910390a1565b61185e6124c8565b60fb805460ff191660011790557f62e78cea01bee320cd4e420270b5ea74000d11b0c9f74754ebdbfc544b05a2586118393390565b6001600160a01b0383166118f55760405162461bcd60e51b815260206004820152602360248201527f455243313135353a206275726e2066726f6d20746865207a65726f206164647260448201526265737360e81b6064820152608401610853565b33600061190184611fc5565b9050600061190e84611fc5565b905061192e8387600085856040518060200160405280600081525061201e565b600085815260c9602090815260408083206001600160a01b038a168452909152902054848110156119ad5760405162461bcd60e51b8152602060048201526024808201527f455243313135353a206275726e20616d6f756e7420657863656564732062616c604482015263616e636560e01b6064820152608401610853565b600086815260c9602090815260408083206001600160a01b038b81168086529184528285208a8703905582518b81529384018a90529092908816916000805160206139ec833981519152910160405180910390a46040805160208101909152600090526115a3565b60006111c7838361250e565b816001600160a01b0316836001600160a01b03161415611a955760405162461bcd60e51b815260206004820152602960248201527f455243313135353a2073657474696e6720617070726f76616c20737461747573604482015268103337b91039b2b63360b91b6064820152608401610853565b6001600160a01b03838116600081815260ca6020908152604080832094871680845294825291829020805460ff191686151590811790915591519182527f17307eab39ab6107e8899845ad3d59bd9653f200f220920489ca2b5937696c31910160405180910390a3505050565b6000610881825490565b6001600160a01b038416611b325760405162461bcd60e51b815260040161085390613604565b336000611b3e85611fc5565b90506000611b4b85611fc5565b9050611b5b83898985858961201e565b600086815260c9602090815260408083206001600160a01b038c16845290915290205485811015611b9e5760405162461bcd60e51b815260040161085390613697565b600087815260c9602090815260408083206001600160a01b038d8116855292528083208985039055908a16825281208054889290611bdd9084906137f1565b909155505060408051888152602081018890526001600160a01b03808b16928c821692918816916000805160206139ec833981519152910160405180910390a4611c2b848a8a8a8a8a6120cc565b505050505050505050565b6001600160a01b03163b151590565b600054610100900460ff1615808015611c655750600054600160ff909116105b80611c865750611c7430611c36565b158015611c86575060005460ff166001145b611ca25760405162461bcd60e51b815260040161085390613649565b6000805460ff191660011790558015611cc5576000805461ff0019166101001790555b611ccd612546565b611cd5612546565b611cdd612546565b611ce5612546565b611cee8261256d565b611cf6612594565b611cfe612546565b61138d836125c7565b600054610100900460ff1615808015611d275750600054600160ff909116105b80611d485750611d3630611c36565b158015611d48575060005460ff166001145b611d645760405162461bcd60e51b815260040161085390613649565b6000805460ff191660011790558015611d87576000805461ff0019166101001790555b611d90826126b5565b8015610c8c576000805461ff0019169055604051600181527f7f26b83ff96e1f2b6a682f133852f6798a09c465da95921460cefb38474024989060200160405180910390a15050565b60006001600160e01b03198216635a05180f60e01b1480610881575061088182612773565b600080825160411415611e355760208301516040840151606085015160001a611e29878285856127a8565b94509450505050611e3d565b506000905060025b9250929050565b6000816004811115611e6657634e487b7160e01b600052602160045260246000fd5b1415611e6f5750565b6001816004811115611e9157634e487b7160e01b600052602160045260246000fd5b1415611eda5760405162461bcd60e51b815260206004820152601860248201527745434453413a20696e76616c6964207369676e617475726560401b6044820152606401610853565b6002816004811115611efc57634e487b7160e01b600052602160045260246000fd5b1415611f4a5760405162461bcd60e51b815260206004820152601f60248201527f45434453413a20696e76616c6964207369676e6174757265206c656e677468006044820152606401610853565b6003816004811115611f6c57634e487b7160e01b600052602160045260246000fd5b14156108bf5760405162461bcd60e51b815260206004820152602260248201527f45434453413a20696e76616c6964207369676e6174757265202773272076616c604482015261756560f01b6064820152608401610853565b6040805160018082528183019092526060916000919060208083019080368337019050509050828160008151811061200d57634e487b7160e01b600052603260045260246000fd5b602090810291909101015292915050565b6001600160a01b03851615801561203d57506001600160a01b03841615155b8061206257506001600160a01b0385161580159061206257506001600160a01b038416155b6120be5760405162461bcd60e51b815260206004820152602760248201527f4f6e6c79206d696e74206f72206275726e207472616e73666572732061726520604482015266185b1b1bddd95960ca1b6064820152608401610853565b6117ae868686868686612862565b6120de846001600160a01b0316611c36565b156117ae5760405163f23a6e6160e01b81526001600160a01b0385169063f23a6e619061211790899089908890889088906004016134d5565b602060405180830381600087803b15801561213157600080fd5b505af1925050508015612161575060408051601f3d908101601f1916820190925261215e918101906132c2565b60015b61220e5761216d613934565b806308c379a014156121a7575061218261394c565b8061218d57506121a9565b8060405162461bcd60e51b8152600401610853919061355b565b505b60405162461bcd60e51b815260206004820152603460248201527f455243313135353a207472616e7366657220746f206e6f6e2d455243313135356044820152732932b1b2b4bb32b91034b6b83632b6b2b73a32b960611b6064820152608401610853565b6001600160e01b0319811663f23a6e6160e01b146115a35760405162461bcd60e51b81526004016108539061356e565b612250846001600160a01b0316611c36565b156117ae5760405163bc197c8160e01b81526001600160a01b0385169063bc197c81906122899089908990889088908890600401613477565b602060405180830381600087803b1580156122a357600080fd5b505af19250505080156122d3575060408051601f3d908101601f191682019092526122d0918101906132c2565b60015b6122df5761216d613934565b6001600160e01b0319811663bc197c8160e01b146115a35760405162461bcd60e51b81526004016108539061356e565b61231982826111ce565b610c8c5761232681612870565b612331836020612882565b604051602001612342929190613408565b60408051601f198184030181529082905262461bcd60e51b82526108539160040161355b565b61237282826111ce565b610c8c5760008281526065602090815260408083206001600160a01b03851684529091529020805460ff191660011790556123aa3390565b6001600160a01b0316816001600160a01b0316837f2f8788117e7eff1d82e926ec794901d17c78024a50270940304540a733656f0d60405160405180910390a45050565b60006111c7836001600160a01b038416612a63565b61240d82826111ce565b15610c8c5760008281526065602090815260408083206001600160a01b0385168085529252808320805460ff1916905551339285917ff6391f5c32d9c69d2a47ea670b442974b53935d1edc7fd64eb21e047a839171b9190a45050565b60006111c7836001600160a01b038416612ab2565b60fb5460ff16610d1a5760405162461bcd60e51b815260206004820152601460248201527314185d5cd8589b194e881b9bdd081c185d5cd95960621b6044820152606401610853565b60fb5460ff1615610d1a5760405162461bcd60e51b815260206004820152601060248201526f14185d5cd8589b194e881c185d5cd95960821b6044820152606401610853565b600082600001828154811061253357634e487b7160e01b600052603260045260246000fd5b9060005260206000200154905092915050565b600054610100900460ff16610d1a5760405162461bcd60e51b815260040161085390613738565b600054610100900460ff166108b65760405162461bcd60e51b815260040161085390613738565b600054610100900460ff166125bb5760405162461bcd60e51b815260040161085390613738565b60fb805460ff19169055565b600054610100900460ff16158080156125e75750600054600160ff909116105b8061260857506125f630611c36565b158015612608575060005460ff166001145b6126245760405162461bcd60e51b815260040161085390613649565b6000805460ff191660011790558015612647576000805461ff0019166101001790555b61265f600080516020613a0c83398151915283612bcf565b612677600080516020613a2c83398151915283612bcf565b61269d600080516020613a2c833981519152600080516020613a0c833981519152612bd9565b611d90600080516020613a0c83398151915280612bd9565b600054610100900460ff16158080156126d55750600054600160ff909116105b806126f657506126e430611c36565b1580156126f6575060005460ff166001145b6127125760405162461bcd60e51b815260040161085390613649565b6000805460ff191660011790558015612735576000805461ff0019166101001790555b61274d600080516020613a4c83398151915283612bcf565b611d90600080516020613a4c833981519152600080516020613a0c833981519152612bd9565b60006001600160e01b03198216637965db0b60e01b148061088157506301ffc9a760e01b6001600160e01b0319831614610881565b6000806fa2a8918ca85bafe22016d0b997e4df60600160ff1b038311156127d55750600090506003612859565b6040805160008082526020820180845289905260ff881692820192909252606081018690526080810185905260019060a0016020604051602081039080840390855afa158015612829573d6000803e3d6000fd5b5050604051601f1901519150506001600160a01b03811661285257600060019250925050612859565b9150600090505b94509492505050565b6117ae868686868686612c24565b60606108816001600160a01b03831660145b60606000612891836002613809565b61289c9060026137f1565b6001600160401b038111156128c157634e487b7160e01b600052604160045260246000fd5b6040519080825280601f01601f1916602001820160405280156128eb576020820181803683370190505b509050600360fc1b8160008151811061291457634e487b7160e01b600052603260045260246000fd5b60200101906001600160f81b031916908160001a905350600f60fb1b8160018151811061295157634e487b7160e01b600052603260045260246000fd5b60200101906001600160f81b031916908160001a9053506000612975846002613809565b6129809060016137f1565b90505b6001811115612a14576f181899199a1a9b1b9c1cb0b131b232b360811b85600f16601081106129c257634e487b7160e01b600052603260045260246000fd5b1a60f81b8282815181106129e657634e487b7160e01b600052603260045260246000fd5b60200101906001600160f81b031916908160001a90535060049490941c93612a0d8161386f565b9050612983565b5083156111c75760405162461bcd60e51b815260206004820181905260248201527f537472696e67733a20686578206c656e67746820696e73756666696369656e746044820152606401610853565b6000818152600183016020526040812054612aaa57508154600181810184556000848152602080822090930184905584548482528286019093526040902091909155610881565b506000610881565b60008181526001830160205260408120548015612bc5576000612ad6600183613828565b8554909150600090612aea90600190613828565b9050818114612b6b576000866000018281548110612b1857634e487b7160e01b600052603260045260246000fd5b9060005260206000200154905080876000018481548110612b4957634e487b7160e01b600052603260045260246000fd5b6000918252602080832090910192909255918252600188019052604090208390555b8554869080612b8a57634e487b7160e01b600052603160045260246000fd5b600190038181906000526020600020016000905590558560010160008681526020019081526020016000206000905560019350505050610881565b6000915050610881565b610c8c82826117c0565b600082815260656020526040808220600101805490849055905190918391839186917fbd79b86ffe0ab8e8776151514217cd7cacd52c909f66475c3af44e129f0b00ff9190a4505050565b60fb5460ff16156117ae5760405162461bcd60e51b815260206004820152602c60248201527f455243313135355061757361626c653a20746f6b656e207472616e736665722060448201526b1dda1a5b19481c185d5cd95960a21b6064820152608401610853565b828054612c9890613886565b90600052602060002090601f016020900481019282612cba5760008555612d00565b82601f10612cd357805160ff1916838001178555612d00565b82800160010185558215612d00579182015b82811115612d00578251825591602001919060010190612ce5565b50612d0c929150612d10565b5090565b5b80821115612d0c5760008155600101612d11565b80356001600160a01b0381168114612d3c57600080fd5b919050565b60008083601f840112612d52578182fd5b5081356001600160401b03811115612d68578182fd5b6020830191508360208260051b8501011115611e3d57600080fd5b600082601f830112612d93578081fd5b81356020612da0826137ce565b604051612dad82826138c1565b8381528281019150858301600585901b87018401881015612dcc578586fd5b855b85811015612dea57813584529284019290840190600101612dce565b5090979650505050505050565b80358015158114612d3c57600080fd5b60008083601f840112612e18578182fd5b5081356001600160401b03811115612e2e578182fd5b602083019150836020828501011115611e3d57600080fd5b600082601f830112612e56578081fd5b81356001600160401b03811115612e6f57612e6f61391e565b604051612e86601f8301601f1916602001826138c1565b818152846020838601011115612e9a578283fd5b816020850160208301379081016020019190915292915050565b600060208284031215612ec5578081fd5b6111c782612d25565b60008060408385031215612ee0578081fd5b612ee983612d25565b9150612ef760208401612d25565b90509250929050565b600080600080600060a08688031215612f17578081fd5b612f2086612d25565b9450612f2e60208701612d25565b935060408601356001600160401b0380821115612f49578283fd5b612f5589838a01612d83565b94506060880135915080821115612f6a578283fd5b612f7689838a01612d83565b93506080880135915080821115612f8b578283fd5b50612f9888828901612e46565b9150509295509295909350565b600080600080600060a08688031215612fbc578081fd5b612fc586612d25565b9450612fd360208701612d25565b9350604086013592506060860135915060808601356001600160401b03811115612ffb578182fd5b612f9888828901612e46565b60008060408385031215613019578182fd5b61302283612d25565b9150612ef760208401612df7565b60008060408385031215613042578182fd5b61304b83612d25565b915060208301356001600160401b03811115613065578182fd5b61307185828601612e46565b9150509250929050565b6000806040838503121561308d578182fd5b61309683612d25565b946020939093013593505050565b6000806000806000608086880312156130bb578283fd5b6130c486612d25565b9450602086013593506040860135925060608601356001600160401b038111156130ec578182fd5b6130f888828901612e07565b969995985093965092949392505050565b6000806040838503121561311b578182fd5b82356001600160401b0380821115613131578384fd5b818501915085601f830112613144578384fd5b81356020613151826137ce565b60405161315e82826138c1565b8381528281019150858301600585901b870184018b101561317d578889fd5b8896505b848710156131a65761319281612d25565b835260019690960195918301918301613181565b50965050860135925050808211156131bc578283fd5b5061307185828601612d83565b600080600080604085870312156131de578182fd5b84356001600160401b03808211156131f4578384fd5b61320088838901612d41565b90965094506020870135915080821115613218578384fd5b5061322587828801612d41565b95989497509550505050565b600060208284031215613242578081fd5b6111c782612df7565b60006020828403121561325c578081fd5b5035919050565b60008060408385031215613275578182fd5b82359150612ef760208401612d25565b60008060408385031215613297578182fd5b50508035926020909101359150565b6000602082840312156132b7578081fd5b81356111c7816139d5565b6000602082840312156132d3578081fd5b81516111c7816139d5565b6000602082840312156132ef578081fd5b81356001600160401b03811115613304578182fd5b61331084828501612e46565b949350505050565b6000806000806060858703121561332d578182fd5b843593506020850135925060408501356001600160401b03811115613350578283fd5b61322587828801612e07565b6000815180845260208085019450808401835b8381101561338b5781518752958201959082019060010161336f565b509495945050505050565b600081518084526133ae81602086016020860161383f565b601f01601f19169290920160200192915050565b6bffffffffffffffffffffffff19606097881b81168252601482019690965260348101949094529190941b90921660548201526068810192909252608882015260a80190565b76020b1b1b2b9b9a1b7b73a3937b61d1030b1b1b7bab73a1604d1b81526000835161343a81601785016020880161383f565b7001034b99036b4b9b9b4b733903937b6329607d1b601791840191820152835161346b81602884016020880161383f565b01602801949350505050565b6001600160a01b0386811682528516602082015260a0604082018190526000906134a39083018661335c565b82810360608401526134b5818661335c565b905082810360808401526134c98185613396565b98975050505050505050565b6001600160a01b03868116825285166020820152604081018490526060810183905260a06080820181905260009061350f90830184613396565b979650505050505050565b6020815260006111c7602083018461335c565b604081526000613540604083018561335c565b8281036020840152613552818561335c565b95945050505050565b6020815260006111c76020830184613396565b60208082526028908201527f455243313135353a204552433131353552656365697665722072656a656374656040820152676420746f6b656e7360c01b606082015260800190565b6020808252602e908201527f455243313135353a2063616c6c6572206973206e6f7420746f6b656e206f776e60408201526d195c881bdc88185c1c1c9bdd995960921b606082015260800190565b60208082526025908201527f455243313135353a207472616e7366657220746f20746865207a65726f206164604082015264647265737360d81b606082015260800190565b6020808252602e908201527f496e697469616c697a61626c653a20636f6e747261637420697320616c72656160408201526d191e481a5b9a5d1a585b1a5e995960921b606082015260800190565b6020808252602a908201527f455243313135353a20696e73756666696369656e742062616c616e636520666f60408201526939103a3930b739b332b960b11b606082015260800190565b6020808252600e908201526d24b73b30b634b21039b4b3b732b960911b604082015260600190565b60208082526015908201527414da59db985d1d5c99481a185cc8195e1c1a5c9959605a1b604082015260600190565b6020808252602b908201527f496e697469616c697a61626c653a20636f6e7472616374206973206e6f74206960408201526a6e697469616c697a696e6760a81b606082015260800190565b6020808252602b908201527f4d75737420686176652061646d696e20726f6c6520746f20706572666f726d2060408201526a3a3434b99030b1ba34b7b760a91b606082015260800190565b60006001600160401b038211156137e7576137e761391e565b5060051b60200190565b6000821982111561380457613804613908565b500190565b600081600019048311821515161561382357613823613908565b500290565b60008282101561383a5761383a613908565b500390565b60005b8381101561385a578181015183820152602001613842565b83811115613869576000848401525b50505050565b60008161387e5761387e613908565b506000190190565b600181811c9082168061389a57607f821691505b602082108114156138bb57634e487b7160e01b600052602260045260246000fd5b50919050565b601f8201601f191681016001600160401b03811182821017156138e6576138e661391e565b6040525050565b600060001982141561390157613901613908565b5060010190565b634e487b7160e01b600052601160045260246000fd5b634e487b7160e01b600052604160045260246000fd5b600060033d111561394957600481823e5160e01c5b90565b600060443d101561395a5790565b6040516003193d81016004833e81513d6001600160401b03816024840111818411171561398957505050505090565b82850191508151818111156139a15750505050505090565b843d87010160208285010111156139bb5750505050505090565b6139ca602082860101876138c1565b509095945050505050565b6001600160e01b0319811681146108bf57600080fdfec3d58168c5ae7397731d063d5bbf3d657854427343f4c083240f7aacaa2d0f62b19546dff01e856fb3f010c267a7b1c60363cf8a4664e21cc89c26224620214e65d7a28e3265b37a6474929f336521b332c1681b933f6cb9f3376673440d862ae2f4eaae4a9751e85a3e4a7b9587827a877f29914755229b07a7b2da98285f70a2646970667358221220d4524fe71ff95705369a9eed52bc05a13960adb398bbe1461b0ffa15adf3de9764736f6c63430008040033",
  "devdoc": {
    "author": "Doberman",
    "kind": "dev",
    "methods": {
      "balanceOf(address,uint256)": {
        "details": "See {IERC1155-balanceOf}. Requirements: - `account` cannot be the zero address."
      },
      "balanceOfBatch(address[],uint256[])": {
        "details": "See {IERC1155-balanceOfBatch}. Requirements: - `accounts` and `ids` must have the same length."
      },
      "getRoleAdmin(bytes32)": {
        "details": "Returns the admin role that controls `role`. See {grantRole} and {revokeRole}. To change a role's admin, use {_setRoleAdmin}."
      },
      "getRoleMember(bytes32,uint256)": {
        "details": "Returns one of the accounts that have `role`. `index` must be a value between 0 and {getRoleMemberCount}, non-inclusive. Role bearers are not sorted in any particular way, and their ordering may change at any point. WARNING: When using {getRoleMember} and {getRoleMemberCount}, make sure you perform all queries on the same block. See the following https://forum.openzeppelin.com/t/iterating-over-elements-on-enumerableset-in-openzeppelin-contracts/2296[forum post] for more information."
      },
      "getRoleMemberCount(bytes32)": {
        "details": "Returns the number of accounts that have `role`. Can be used together with {getRoleMember} to enumerate all bearers of a role."
      },
      "grantRole(bytes32,address)": {
        "details": "Grants `role` to `account`. If `account` had not been already granted `role`, emits a {RoleGranted} event. Requirements: - the caller must have ``role``'s admin role. May emit a {RoleGranted} event."
      },
      "hasRole(bytes32,address)": {
        "details": "Returns `true` if `account` has been granted `role`."
      },
      "isApprovedForAll(address,address)": {
        "details": "See {IERC1155-isApprovedForAll}."
      },
      "name()": {
        "details": "Gets the token name.",
        "returns": {
          "_0": "string representing the token name"
        }
      },
      "pause()": {
        "details": "Pauses all token transfers. See {ERC1155Pausable} and {Pausable-_pause}. Requirements: - the caller must have the `PAUSER_ROLE`."
      },
      "paused()": {
        "details": "Returns true if the contract is paused, and false otherwise."
      },
      "renounceRole(bytes32,address)": {
        "details": "Revokes `role` from the calling account. Roles are often managed via {grantRole} and {revokeRole}: this function's purpose is to provide a mechanism for accounts to lose their privileges if they are compromised (such as when a trusted device is misplaced). If the calling account had been revoked `role`, emits a {RoleRevoked} event. Requirements: - the caller must be `account`. May emit a {RoleRevoked} event."
      },
      "revokeRole(bytes32,address)": {
        "details": "Revokes `role` from `account`. If `account` had been granted `role`, emits a {RoleRevoked} event. Requirements: - the caller must have ``role``'s admin role. May emit a {RoleRevoked} event."
      },
      "safeBatchTransferFrom(address,address,uint256[],uint256[],bytes)": {
        "details": "See {IERC1155-safeBatchTransferFrom}."
      },
      "safeTransferFrom(address,address,uint256,uint256,bytes)": {
        "details": "See {IERC1155-safeTransferFrom}."
      },
      "setApprovalForAll(address,bool)": {
        "details": "See {IERC1155-setApprovalForAll}."
      },
      "supportsInterface(bytes4)": {
        "details": "See {IERC165-supportsInterface}."
      },
      "symbol()": {
        "details": "Gets the token symbol.",
        "returns": {
          "_0": "string representing the token symbol"
        }
      },
      "unpause()": {
        "details": "Unpauses all token transfers. See {ERC1155Pausable} and {Pausable-_unpause}. Requirements: - the caller must have the `PAUSER_ROLE`."
      },
      "uri(uint256)": {
        "details": "See {IERC1155MetadataURI-uri}. This implementation returns the same URI for *all* token types. It relies on the token type ID substitution mechanism https://eips.ethereum.org/EIPS/eip-1155#metadata[defined in the EIP]. Clients calling this function must replace the `\\{id\\}` substring with the actual token type ID."
      }
    },
    "stateVariables": {
      "nonces": {
        "details": "We include a nonce in every hashed message, and increment the nonce as part of a state-changing operation, so as to prevent replay attacks, i.e. the reuse of a signature."
      }
    },
    "title": "UniqueIdentity",
    "version": 1
  },
  "userdoc": {
    "kind": "user",
    "methods": {},
    "notice": "UniqueIdentity is an ERC1155-compliant contract for representing the identity verification status of addresses.",
    "version": 1
  },
  "storageLayout": {
    "storage": [
      {
        "astId": 588,
        "contract": "contracts/protocol/core/UniqueIdentity.sol:UniqueIdentity",
        "label": "_initialized",
        "offset": 0,
        "slot": "0",
        "type": "t_uint8"
      },
      {
        "astId": 591,
        "contract": "contracts/protocol/core/UniqueIdentity.sol:UniqueIdentity",
        "label": "_initializing",
        "offset": 1,
        "slot": "0",
        "type": "t_bool"
      },
      {
        "astId": 4964,
        "contract": "contracts/protocol/core/UniqueIdentity.sol:UniqueIdentity",
        "label": "__gap",
        "offset": 0,
        "slot": "1",
        "type": "t_array(t_uint256)50_storage"
      },
      {
        "astId": 5544,
        "contract": "contracts/protocol/core/UniqueIdentity.sol:UniqueIdentity",
        "label": "__gap",
        "offset": 0,
        "slot": "51",
        "type": "t_array(t_uint256)50_storage"
      },
      {
        "astId": 184,
        "contract": "contracts/protocol/core/UniqueIdentity.sol:UniqueIdentity",
        "label": "_roles",
        "offset": 0,
        "slot": "101",
        "type": "t_mapping(t_bytes32,t_struct(RoleData)179_storage)"
      },
      {
        "astId": 479,
        "contract": "contracts/protocol/core/UniqueIdentity.sol:UniqueIdentity",
        "label": "__gap",
        "offset": 0,
        "slot": "102",
        "type": "t_array(t_uint256)49_storage"
      },
      {
        "astId": 33,
        "contract": "contracts/protocol/core/UniqueIdentity.sol:UniqueIdentity",
        "label": "_roleMembers",
        "offset": 0,
        "slot": "151",
        "type": "t_mapping(t_bytes32,t_struct(AddressSet)6748_storage)"
      },
      {
        "astId": 143,
        "contract": "contracts/protocol/core/UniqueIdentity.sol:UniqueIdentity",
        "label": "__gap",
        "offset": 0,
        "slot": "152",
        "type": "t_array(t_uint256)49_storage"
      },
      {
        "astId": 979,
        "contract": "contracts/protocol/core/UniqueIdentity.sol:UniqueIdentity",
        "label": "_balances",
        "offset": 0,
        "slot": "201",
        "type": "t_mapping(t_uint256,t_mapping(t_address,t_uint256))"
      },
      {
        "astId": 985,
        "contract": "contracts/protocol/core/UniqueIdentity.sol:UniqueIdentity",
        "label": "_operatorApprovals",
        "offset": 0,
        "slot": "202",
        "type": "t_mapping(t_address,t_mapping(t_address,t_bool))"
      },
      {
        "astId": 987,
        "contract": "contracts/protocol/core/UniqueIdentity.sol:UniqueIdentity",
        "label": "_uri",
        "offset": 0,
        "slot": "203",
        "type": "t_string_storage"
      },
      {
        "astId": 2194,
        "contract": "contracts/protocol/core/UniqueIdentity.sol:UniqueIdentity",
        "label": "__gap",
        "offset": 0,
        "slot": "204",
        "type": "t_array(t_uint256)47_storage"
      },
      {
        "astId": 771,
        "contract": "contracts/protocol/core/UniqueIdentity.sol:UniqueIdentity",
        "label": "_paused",
        "offset": 0,
        "slot": "251",
        "type": "t_bool"
      },
      {
        "astId": 876,
        "contract": "contracts/protocol/core/UniqueIdentity.sol:UniqueIdentity",
        "label": "__gap",
        "offset": 0,
        "slot": "252",
        "type": "t_array(t_uint256)49_storage"
      },
      {
        "astId": 2428,
        "contract": "contracts/protocol/core/UniqueIdentity.sol:UniqueIdentity",
        "label": "__gap",
        "offset": 0,
        "slot": "301",
        "type": "t_array(t_uint256)50_storage"
      },
      {
        "astId": 11189,
        "contract": "contracts/protocol/core/UniqueIdentity.sol:UniqueIdentity",
        "label": "__gap",
        "offset": 0,
        "slot": "351",
        "type": "t_array(t_uint256)50_storage"
      },
      {
        "astId": 29598,
        "contract": "contracts/protocol/core/UniqueIdentity.sol:UniqueIdentity",
        "label": "nonces",
        "offset": 0,
        "slot": "401",
        "type": "t_mapping(t_address,t_uint256)"
      },
      {
        "astId": 29602,
        "contract": "contracts/protocol/core/UniqueIdentity.sol:UniqueIdentity",
        "label": "supportedUIDTypes",
        "offset": 0,
        "slot": "402",
        "type": "t_mapping(t_uint256,t_bool)"
      }
    ],
    "types": {
      "t_address": {
        "encoding": "inplace",
        "label": "address",
        "numberOfBytes": "20"
      },
      "t_array(t_bytes32)dyn_storage": {
        "base": "t_bytes32",
        "encoding": "dynamic_array",
        "label": "bytes32[]",
        "numberOfBytes": "32"
      },
      "t_array(t_uint256)47_storage": {
        "base": "t_uint256",
        "encoding": "inplace",
        "label": "uint256[47]",
        "numberOfBytes": "1504"
      },
      "t_array(t_uint256)49_storage": {
        "base": "t_uint256",
        "encoding": "inplace",
        "label": "uint256[49]",
        "numberOfBytes": "1568"
      },
      "t_array(t_uint256)50_storage": {
        "base": "t_uint256",
        "encoding": "inplace",
        "label": "uint256[50]",
        "numberOfBytes": "1600"
      },
      "t_bool": {
        "encoding": "inplace",
        "label": "bool",
        "numberOfBytes": "1"
      },
      "t_bytes32": {
        "encoding": "inplace",
        "label": "bytes32",
        "numberOfBytes": "32"
      },
      "t_mapping(t_address,t_bool)": {
        "encoding": "mapping",
        "key": "t_address",
        "label": "mapping(address => bool)",
        "numberOfBytes": "32",
        "value": "t_bool"
      },
      "t_mapping(t_address,t_mapping(t_address,t_bool))": {
        "encoding": "mapping",
        "key": "t_address",
        "label": "mapping(address => mapping(address => bool))",
        "numberOfBytes": "32",
        "value": "t_mapping(t_address,t_bool)"
      },
      "t_mapping(t_address,t_uint256)": {
        "encoding": "mapping",
        "key": "t_address",
        "label": "mapping(address => uint256)",
        "numberOfBytes": "32",
        "value": "t_uint256"
      },
      "t_mapping(t_bytes32,t_struct(AddressSet)6748_storage)": {
        "encoding": "mapping",
        "key": "t_bytes32",
        "label": "mapping(bytes32 => struct EnumerableSetUpgradeable.AddressSet)",
        "numberOfBytes": "32",
        "value": "t_struct(AddressSet)6748_storage"
      },
      "t_mapping(t_bytes32,t_struct(RoleData)179_storage)": {
        "encoding": "mapping",
        "key": "t_bytes32",
        "label": "mapping(bytes32 => struct AccessControlUpgradeable.RoleData)",
        "numberOfBytes": "32",
        "value": "t_struct(RoleData)179_storage"
      },
      "t_mapping(t_bytes32,t_uint256)": {
        "encoding": "mapping",
        "key": "t_bytes32",
        "label": "mapping(bytes32 => uint256)",
        "numberOfBytes": "32",
        "value": "t_uint256"
      },
      "t_mapping(t_uint256,t_bool)": {
        "encoding": "mapping",
        "key": "t_uint256",
        "label": "mapping(uint256 => bool)",
        "numberOfBytes": "32",
        "value": "t_bool"
      },
      "t_mapping(t_uint256,t_mapping(t_address,t_uint256))": {
        "encoding": "mapping",
        "key": "t_uint256",
        "label": "mapping(uint256 => mapping(address => uint256))",
        "numberOfBytes": "32",
        "value": "t_mapping(t_address,t_uint256)"
      },
      "t_string_storage": {
        "encoding": "bytes",
        "label": "string",
        "numberOfBytes": "32"
      },
      "t_struct(AddressSet)6748_storage": {
        "encoding": "inplace",
        "label": "struct EnumerableSetUpgradeable.AddressSet",
        "members": [
          {
            "astId": 6747,
            "contract": "contracts/protocol/core/UniqueIdentity.sol:UniqueIdentity",
            "label": "_inner",
            "offset": 0,
            "slot": "0",
            "type": "t_struct(Set)6433_storage"
          }
        ],
        "numberOfBytes": "64"
      },
      "t_struct(RoleData)179_storage": {
        "encoding": "inplace",
        "label": "struct AccessControlUpgradeable.RoleData",
        "members": [
          {
            "astId": 176,
            "contract": "contracts/protocol/core/UniqueIdentity.sol:UniqueIdentity",
            "label": "members",
            "offset": 0,
            "slot": "0",
            "type": "t_mapping(t_address,t_bool)"
          },
          {
            "astId": 178,
            "contract": "contracts/protocol/core/UniqueIdentity.sol:UniqueIdentity",
            "label": "adminRole",
            "offset": 0,
            "slot": "1",
            "type": "t_bytes32"
          }
        ],
        "numberOfBytes": "64"
      },
      "t_struct(Set)6433_storage": {
        "encoding": "inplace",
        "label": "struct EnumerableSetUpgradeable.Set",
        "members": [
          {
            "astId": 6428,
            "contract": "contracts/protocol/core/UniqueIdentity.sol:UniqueIdentity",
            "label": "_values",
            "offset": 0,
            "slot": "0",
            "type": "t_array(t_bytes32)dyn_storage"
          },
          {
            "astId": 6432,
            "contract": "contracts/protocol/core/UniqueIdentity.sol:UniqueIdentity",
            "label": "_indexes",
            "offset": 0,
            "slot": "1",
            "type": "t_mapping(t_bytes32,t_uint256)"
          }
        ],
        "numberOfBytes": "64"
      },
      "t_uint256": {
        "encoding": "inplace",
        "label": "uint256",
        "numberOfBytes": "32"
      },
      "t_uint8": {
        "encoding": "inplace",
        "label": "uint8",
        "numberOfBytes": "1"
      }
    }
  }
}