{
  "address": "0x54e7d9E17ea03E3909ebF13Be2Baf55F779eb71F",
  "abi": [
    {
      "anonymous": false,
      "inputs": [
        {
          "indexed": true,
          "internalType": "address",
          "name": "owner",
          "type": "address"
        },
        {
          "indexed": true,
          "internalType": "uint256",
          "name": "tokenId",
          "type": "uint256"
        },
        {
          "indexed": false,
          "internalType": "uint256",
          "name": "amount",
          "type": "uint256"
        }
      ],
      "name": "BackerRewardsClaimed",
      "type": "event"
    },
    {
      "anonymous": false,
      "inputs": [
        {
          "indexed": true,
          "internalType": "address",
          "name": "owner",
          "type": "address"
        },
        {
          "indexed": false,
          "internalType": "uint256",
          "name": "maxInterestDollarsEligible",
          "type": "uint256"
        }
      ],
      "name": "BackerRewardsSetMaxInterestDollarsEligible",
      "type": "event"
    },
    {
      "anonymous": false,
      "inputs": [
        {
          "indexed": true,
          "internalType": "address",
          "name": "owner",
          "type": "address"
        },
        {
          "indexed": false,
          "internalType": "uint256",
          "name": "totalInterestReceived",
          "type": "uint256"
        }
      ],
      "name": "BackerRewardsSetTotalInterestReceived",
      "type": "event"
    },
    {
      "anonymous": false,
      "inputs": [
        {
          "indexed": true,
          "internalType": "address",
          "name": "owner",
          "type": "address"
        },
        {
          "indexed": false,
          "internalType": "uint256",
          "name": "totalRewards",
          "type": "uint256"
        },
        {
          "indexed": false,
          "internalType": "uint256",
          "name": "totalRewardPercentOfTotalGFI",
          "type": "uint256"
        }
      ],
      "name": "BackerRewardsSetTotalRewards",
      "type": "event"
    },
    {
      "anonymous": false,
      "inputs": [
        {
          "indexed": true,
          "internalType": "address",
          "name": "who",
          "type": "address"
        },
        {
          "indexed": false,
          "internalType": "address",
          "name": "configAddress",
          "type": "address"
        }
      ],
      "name": "DobermanConfigUpdated",
      "type": "event"
    },
    {
      "anonymous": false,
      "inputs": [
        {
          "indexed": false,
          "internalType": "uint8",
          "name": "version",
          "type": "uint8"
        }
      ],
      "name": "Initialized",
      "type": "event"
    },
    {
      "anonymous": false,
      "inputs": [
        {
          "indexed": false,
          "internalType": "address",
          "name": "account",
          "type": "address"
        }
      ],
      "name": "Paused",
      "type": "event"
    },
    {
      "anonymous": false,
      "inputs": [
        {
          "indexed": true,
          "internalType": "bytes32",
          "name": "role",
          "type": "bytes32"
        },
        {
          "indexed": true,
          "internalType": "bytes32",
          "name": "previousAdminRole",
          "type": "bytes32"
        },
        {
          "indexed": true,
          "internalType": "bytes32",
          "name": "newAdminRole",
          "type": "bytes32"
        }
      ],
      "name": "RoleAdminChanged",
      "type": "event"
    },
    {
      "anonymous": false,
      "inputs": [
        {
          "indexed": true,
          "internalType": "bytes32",
          "name": "role",
          "type": "bytes32"
        },
        {
          "indexed": true,
          "internalType": "address",
          "name": "account",
          "type": "address"
        },
        {
          "indexed": true,
          "internalType": "address",
          "name": "sender",
          "type": "address"
        }
      ],
      "name": "RoleGranted",
      "type": "event"
    },
    {
      "anonymous": false,
      "inputs": [
        {
          "indexed": true,
          "internalType": "bytes32",
          "name": "role",
          "type": "bytes32"
        },
        {
          "indexed": true,
          "internalType": "address",
          "name": "account",
          "type": "address"
        },
        {
          "indexed": true,
          "internalType": "address",
          "name": "sender",
          "type": "address"
        }
      ],
      "name": "RoleRevoked",
      "type": "event"
    },
    {
      "anonymous": false,
      "inputs": [
        {
          "indexed": false,
          "internalType": "address",
          "name": "account",
          "type": "address"
        }
      ],
      "name": "Unpaused",
      "type": "event"
    },
    {
      "inputs": [],
      "name": "DEFAULT_ADMIN_ROLE",
      "outputs": [
        {
          "internalType": "bytes32",
          "name": "",
          "type": "bytes32"
        }
      ],
      "stateMutability": "view",
      "type": "function"
    },
    {
      "inputs": [],
      "name": "OWNER_ROLE",
      "outputs": [
        {
          "internalType": "bytes32",
          "name": "",
          "type": "bytes32"
        }
      ],
      "stateMutability": "view",
      "type": "function"
    },
    {
      "inputs": [],
      "name": "PAUSER_ROLE",
      "outputs": [
        {
          "internalType": "bytes32",
          "name": "",
          "type": "bytes32"
        }
      ],
      "stateMutability": "view",
      "type": "function"
    },
    {
      "inputs": [
        {
          "internalType": "address",
          "name": "owner",
          "type": "address"
        }
      ],
      "name": "__BaseUpgradeablePausable__init",
      "outputs": [],
      "stateMutability": "nonpayable",
      "type": "function"
    },
    {
      "inputs": [],
      "name": "__PauserPausable__init",
      "outputs": [],
      "stateMutability": "nonpayable",
      "type": "function"
    },
    {
      "inputs": [
        {
          "internalType": "address",
          "name": "owner",
          "type": "address"
        },
        {
          "internalType": "contract DobermanConfig",
          "name": "_config",
          "type": "address"
        }
      ],
      "name": "__initialize__",
      "outputs": [],
      "stateMutability": "nonpayable",
      "type": "function"
    },
    {
      "inputs": [
        {
          "internalType": "uint256",
          "name": "_interestPaymentAmount",
          "type": "uint256"
        }
      ],
      "name": "allocateRewards",
      "outputs": [],
      "stateMutability": "nonpayable",
      "type": "function"
    },
    {
      "inputs": [],
      "name": "config",
      "outputs": [
        {
          "internalType": "contract DobermanConfig",
          "name": "",
          "type": "address"
        }
      ],
      "stateMutability": "view",
      "type": "function"
    },
    {
      "inputs": [
        {
          "internalType": "bytes32",
          "name": "role",
          "type": "bytes32"
        }
      ],
      "name": "getRoleAdmin",
      "outputs": [
        {
          "internalType": "bytes32",
          "name": "",
          "type": "bytes32"
        }
      ],
      "stateMutability": "view",
      "type": "function"
    },
    {
      "inputs": [
        {
          "internalType": "bytes32",
          "name": "role",
          "type": "bytes32"
        },
        {
          "internalType": "address",
          "name": "account",
          "type": "address"
        }
      ],
      "name": "grantRole",
      "outputs": [],
      "stateMutability": "nonpayable",
      "type": "function"
    },
    {
      "inputs": [
        {
          "internalType": "bytes32",
          "name": "role",
          "type": "bytes32"
        },
        {
          "internalType": "address",
          "name": "account",
          "type": "address"
        }
      ],
      "name": "hasRole",
      "outputs": [
        {
          "internalType": "bool",
          "name": "",
          "type": "bool"
        }
      ],
      "stateMutability": "view",
      "type": "function"
    },
    {
      "inputs": [],
      "name": "isAdmin",
      "outputs": [
        {
          "internalType": "bool",
          "name": "",
          "type": "bool"
        }
      ],
      "stateMutability": "view",
      "type": "function"
    },
    {
      "inputs": [],
      "name": "maxInterestDollarsEligible",
      "outputs": [
        {
          "internalType": "uint256",
          "name": "",
          "type": "uint256"
        }
      ],
      "stateMutability": "view",
      "type": "function"
    },
    {
      "inputs": [],
      "name": "pause",
      "outputs": [],
      "stateMutability": "nonpayable",
      "type": "function"
    },
    {
      "inputs": [],
      "name": "paused",
      "outputs": [
        {
          "internalType": "bool",
          "name": "",
          "type": "bool"
        }
      ],
      "stateMutability": "view",
      "type": "function"
    },
    {
      "inputs": [
        {
          "internalType": "uint256",
          "name": "tokenId",
          "type": "uint256"
        }
      ],
      "name": "poolTokenClaimableRewards",
      "outputs": [
        {
          "internalType": "uint256",
          "name": "",
          "type": "uint256"
        }
      ],
      "stateMutability": "view",
      "type": "function"
    },
    {
      "inputs": [
        {
          "internalType": "address",
          "name": "",
          "type": "address"
        }
      ],
      "name": "pools",
      "outputs": [
        {
          "internalType": "uint256",
          "name": "accRewardsPerPrincipalDollar",
          "type": "uint256"
        }
      ],
      "stateMutability": "view",
      "type": "function"
    },
    {
      "inputs": [
        {
          "internalType": "bytes32",
          "name": "role",
          "type": "bytes32"
        },
        {
          "internalType": "address",
          "name": "account",
          "type": "address"
        }
      ],
      "name": "renounceRole",
      "outputs": [],
      "stateMutability": "nonpayable",
      "type": "function"
    },
    {
      "inputs": [
        {
          "internalType": "bytes32",
          "name": "role",
          "type": "bytes32"
        },
        {
          "internalType": "address",
          "name": "account",
          "type": "address"
        }
      ],
      "name": "revokeRole",
      "outputs": [],
      "stateMutability": "nonpayable",
      "type": "function"
    },
    {
      "inputs": [
        {
          "internalType": "uint256",
          "name": "_maxInterestDollarsEligible",
          "type": "uint256"
        }
      ],
      "name": "setMaxInterestDollarsEligible",
      "outputs": [],
      "stateMutability": "nonpayable",
      "type": "function"
    },
    {
      "inputs": [
        {
          "internalType": "address",
          "name": "poolAddress",
          "type": "address"
        },
        {
          "internalType": "uint256",
          "name": "tokenId",
          "type": "uint256"
        }
      ],
      "name": "setPoolTokenAccRewardsPerPrincipalDollarAtMint",
      "outputs": [],
      "stateMutability": "nonpayable",
      "type": "function"
    },
    {
      "inputs": [
        {
          "internalType": "uint256",
          "name": "_totalInterestReceived",
          "type": "uint256"
        }
      ],
      "name": "setTotalInterestReceived",
      "outputs": [],
      "stateMutability": "nonpayable",
      "type": "function"
    },
    {
      "inputs": [
        {
          "internalType": "uint256",
          "name": "_totalRewards",
          "type": "uint256"
        }
      ],
      "name": "setTotalRewards",
      "outputs": [],
      "stateMutability": "nonpayable",
      "type": "function"
    },
    {
      "inputs": [
        {
          "internalType": "bytes4",
          "name": "interfaceId",
          "type": "bytes4"
        }
      ],
      "name": "supportsInterface",
      "outputs": [
        {
          "internalType": "bool",
          "name": "",
          "type": "bool"
        }
      ],
      "stateMutability": "view",
      "type": "function"
    },
    {
      "inputs": [
        {
          "internalType": "uint256",
          "name": "",
          "type": "uint256"
        }
      ],
      "name": "tokens",
      "outputs": [
        {
          "internalType": "uint256",
          "name": "rewardsClaimed",
          "type": "uint256"
        },
        {
          "internalType": "uint256",
          "name": "accRewardsPerPrincipalDollarAtMint",
          "type": "uint256"
        }
      ],
      "stateMutability": "view",
      "type": "function"
    },
    {
      "inputs": [],
      "name": "totalInterestReceived",
      "outputs": [
        {
          "internalType": "uint256",
          "name": "",
          "type": "uint256"
        }
      ],
      "stateMutability": "view",
      "type": "function"
    },
    {
      "inputs": [],
      "name": "totalRewardPercentOfTotalGFI",
      "outputs": [
        {
          "internalType": "uint256",
          "name": "",
          "type": "uint256"
        }
      ],
      "stateMutability": "view",
      "type": "function"
    },
    {
      "inputs": [],
      "name": "totalRewards",
      "outputs": [
        {
          "internalType": "uint256",
          "name": "",
          "type": "uint256"
        }
      ],
      "stateMutability": "view",
      "type": "function"
    },
    {
      "inputs": [],
      "name": "unpause",
      "outputs": [],
      "stateMutability": "nonpayable",
      "type": "function"
    },
    {
      "inputs": [],
      "name": "updateDobermanConfig",
      "outputs": [],
      "stateMutability": "nonpayable",
      "type": "function"
    },
    {
      "inputs": [
        {
          "internalType": "uint256",
          "name": "tokenId",
          "type": "uint256"
        }
      ],
      "name": "withdraw",
      "outputs": [],
      "stateMutability": "nonpayable",
      "type": "function"
    },
    {
      "inputs": [
        {
          "internalType": "uint256[]",
          "name": "tokenIds",
          "type": "uint256[]"
        }
      ],
      "name": "withdrawMultiple",
      "outputs": [],
      "stateMutability": "nonpayable",
      "type": "function"
    }
  ],
  "transactionHash": "0x293081a06def643a3668db45fc3a282a7ffb7e1dcc87e98cdaebb0fdaea47946",
  "args": [],
  "numDeployments": 1,
  "solcInputHash": "ae210064203e836f7b382a4941e267e0",
  "bytecode": "0x608060405234801561001057600080fd5b50612988806100206000396000f3fe608060405234801561001057600080fd5b50600436106101b05760003560e01c80636efbe643116100ef578063b6db75a011610092578063b6db75a0146103a9578063b6f8fd40146103b1578063ccf5a971146103c4578063d30a0911146103ce578063d547741f146103d6578063e58378bb146103e9578063e5b79106146103fe578063e63ab1e91461041157600080fd5b80636efbe6431461031457806379502c55146103275780638456cb591461034857806387f5769e1461035057806391d148541461035a578063927356751461036d578063a217fddf14610380578063a4063dbc1461038857600080fd5b80632e1a7d4d116101575780632e1a7d4d146102705780632f2ff15d1461028357806336568abe14610296578063369dfa84146102a95780633f4ba83a146102bc5780634f64b2be146102c4578063526d81f6146103015780635c975abb1461030957600080fd5b806301ffc9a7146101b5578063097616a3146101dd5780630c9dbe94146101f25780630e15561a1461020a578063242a728614610214578063248a9ca3146102275780632879e4de1461024a57806328fc33c71461025d575b600080fd5b6101c86101c336600461243b565b610426565b60405190151581526020015b60405180910390f35b6101f06101eb3660046122d4565b61045d565b005b6101fc6101c75481565b6040519081526020016101d4565b6101fc6101c45481565b6101f06102223660046123ff565b6105f3565b6101fc6102353660046123ff565b60009081526065602052604090206001015490565b6101f06102583660046123ff565b610656565b6101f061026b3660046123ff565b6106b2565b6101f061027e3660046123ff565b610771565b6101f0610291366004612417565b610c8a565b6101f06102a4366004612417565b610cb4565b6101fc6102b73660046123ff565b610d2e565b6101f0610e64565b6102ec6102d23660046123ff565b6101c8602052600090815260409020805460019091015482565b604080519283526020830191909152016101d4565b6101f0610ea2565b60975460ff166101c8565b6101f0610322366004612344565b610f59565b6101c35461033b906001600160a01b031681565b6040516101d4919061256e565b6101f06111d1565b6101fc6101c65481565b6101c8610368366004612417565b61120d565b6101f061037b3660046123ff565b611238565b6101fc600081565b6101fc6103963660046122d4565b6101c96020526000908152604090205481565b6101c861134e565b6101f06103bf36600461230c565b61136d565b6101fc6101c55481565b6101f06114c2565b6101f06103e4366004612417565b611557565b6101fc6000805160206128f383398151915281565b6101f061040c36600461236f565b61157c565b6101fc60008051602061293383398151915281565b60006001600160e01b03198216637965db0b60e01b148061045757506301ffc9a760e01b6001600160e01b03198316145b92915050565b600054610100900460ff161580801561047d5750600054600160ff909116105b806104975750303b158015610497575060005460ff166001145b6104bc5760405162461bcd60e51b81526004016104b390612628565b60405180910390fd5b6000805460ff1916600117905580156104df576000805461ff0019166101001790555b6001600160a01b0382166105355760405162461bcd60e51b815260206004820181905260248201527f4f776e65722063616e6e6f7420626520746865207a65726f206164647265737360448201526064016104b3565b61053d611615565b61054561163c565b61054d61166f565b6105656000805160206128f38339815191528361169d565b61057d6000805160206129338339815191528361169d565b6105a36000805160206129338339815191526000805160206128f38339815191526116a7565b6105bb6000805160206128f3833981519152806116a7565b80156105ef576000805461ff0019169055604051600181526000805160206129138339815191529060200160405180910390a15b5050565b6105fb61134e565b6106175760405162461bcd60e51b81526004016104b3906126c1565b6101c581905560405181815233907fbd23f227ee01d5b74d28337b4aa192bdb10824b0f2ad21e725a2f08af91ec81b906020015b60405180910390a250565b61065e61134e565b61067a5760405162461bcd60e51b81526004016104b3906126c1565b6101c681905560405181815233907feabaa681e9990f0da888d0feb7ec727809a7e832013b120a9a248ba6b16d5f449060200161064b565b6101c3546106c8906001600160a01b03166116f2565b6001600160a01b031663b5ada6d8336040518263ffffffff1660e01b81526004016106f3919061256e565b60206040518083038186803b15801561070b57600080fd5b505afa15801561071f573d6000803e3d6000fd5b505050506040513d601f19601f8201168201806040525081019061074391906123df565b61075f5760405162461bcd60e51b81526004016104b390612601565b801561076e5761076e816116fd565b50565b600061077c82610d2e565b60008381526101c860205260408120546101c354929350916107a6906001600160a01b03166116f2565b60405163463d31d760e11b8152600481018690529091506000906001600160a01b03831690638c7a63ae9060240160a06040518083038186803b1580156107ec57600080fd5b505afa158015610800573d6000803e3d6000fd5b505050506040513d601f19601f820116820180604052508101906108249190612463565b80516101c35491925090610840906001600160a01b03166116f2565b6001600160a01b031663b5ada6d8826040518263ffffffff1660e01b815260040161086b919061256e565b60206040518083038186803b15801561088357600080fd5b505afa158015610897573d6000803e3d6000fd5b505050506040513d601f19601f820116820180604052508101906108bb91906123df565b6108d75760405162461bcd60e51b81526004016104b390612601565b6040516331a9108f60e11b8152600481018790526001600160a01b03841690636352211e9060240160206040518083038186803b15801561091757600080fd5b505afa15801561092b573d6000803e3d6000fd5b505050506040513d601f19601f8201168201806040525081019061094f91906122f0565b6001600160a01b0316336001600160a01b0316146109af5760405162461bcd60e51b815260206004820152601a60248201527f4d757374206265206f776e6572206f6620506f6f6c546f6b656e00000000000060448201526064016104b3565b6000819050806001600160a01b0316635c975abb6040518163ffffffff1660e01b815260040160206040518083038186803b1580156109ed57600080fd5b505afa158015610a01573d6000803e3d6000fd5b505050506040513d601f19601f82011682018060405250810190610a2591906123df565b15610a695760405162461bcd60e51b8152602060048201526014602482015273141bdbdb081dda5d1a191c985dc81c185d5cd95960621b60448201526064016104b3565b6000829050806001600160a01b03166347195e136040518163ffffffff1660e01b815260040160206040518083038186803b158015610aa757600080fd5b505afa158015610abb573d6000803e3d6000fd5b505050506040513d601f19601f82011682018060405250810190610adf91906122f0565b6001600160a01b03166381c17a156040518163ffffffff1660e01b815260040160206040518083038186803b158015610b1757600080fd5b505afa158015610b2b573d6000803e3d6000fd5b505050506040513d601f19601f82011682018060405250810190610b4f91906123df565b15610b975760405162461bcd60e51b8152602060048201526018602482015277506f6f6c206973206c617465206f6e207061796d656e747360401b60448201526064016104b3565b610ba18688611800565b60008981526101c860205260409020556101c354610c4990610bcb906001600160a01b0316611813565b6040516331a9108f60e11b8152600481018b90526001600160a01b03881690636352211e9060240160206040518083038186803b158015610c0b57600080fd5b505afa158015610c1f573d6000803e3d6000fd5b505050506040513d601f19601f82011682018060405250810190610c4391906122f0565b8961181e565b604051878152889033907f999239c1f24bf85f910f36990b41859efd8ac66cded6e95ba0aef922b9cc57189060200160405180910390a35050505050505050565b600082815260656020526040902060010154610ca58161185a565b610caf8383611864565b505050565b6001600160a01b0381163314610d245760405162461bcd60e51b815260206004820152602f60248201527f416363657373436f6e74726f6c3a2063616e206f6e6c792072656e6f756e636560448201526e103937b632b9903337b91039b2b63360891b60648201526084016104b3565b6105ef82826118ea565b6101c3546000908190610d49906001600160a01b03166116f2565b60405163463d31d760e11b8152600481018590529091506000906001600160a01b03831690638c7a63ae9060240160a06040518083038186803b158015610d8f57600080fd5b505afa158015610da3573d6000803e3d6000fd5b505050506040513d601f19601f82011682018060405250810190610dc79190612463565b60008581526101c8602090815260408083206001015484516001600160a01b031684526101c99092528220549293509091610e0191611951565b90506000610e26610e1061195d565b60008881526101c860205260409020549061196b565b9050610e5a610e3361195d565b610e5483610e4e86610e488960400151611977565b9061196b565b90611951565b90611996565b9695505050505050565b610e7c6000805160206129338339815191523361120d565b610e985760405162461bcd60e51b81526004016104b3906125b5565b610ea06119a2565b565b600054610100900460ff1615808015610ec25750600054600160ff909116105b80610edc5750303b158015610edc575060005460ff166001145b610ef85760405162461bcd60e51b81526004016104b390612628565b6000805460ff191660011790558015610f1b576000805461ff0019166101001790555b610f2361163c565b801561076e576000805461ff0019169055604051600181526000805160206129138339815191529060200160405180910390a150565b6101c354610f6f906001600160a01b03166119ee565b6001600160a01b0316336001600160a01b031614610fc15760405162461bcd60e51b815260206004820152600f60248201526e496e76616c69642073656e6465722160881b60448201526064016104b3565b6101c354610fd7906001600160a01b03166116f2565b6001600160a01b031663b5ada6d8836040518263ffffffff1660e01b8152600401611002919061256e565b60206040518083038186803b15801561101a57600080fd5b505afa15801561102e573d6000803e3d6000fd5b505050506040513d601f19601f8201168201806040525081019061105291906123df565b61106e5760405162461bcd60e51b81526004016104b390612601565b60008181526101c860205260409020600101541561108a575050565b6101c3546000906110a3906001600160a01b03166116f2565b60405163463d31d760e11b8152600481018490529091506000906001600160a01b03831690638c7a63ae9060240160a06040518083038186803b1580156110e957600080fd5b505afa1580156110fd573d6000803e3d6000fd5b505050506040513d601f19601f820116820180604052508101906111219190612463565b905080600001516001600160a01b0316846001600160a01b03161461119e5760405162461bcd60e51b815260206004820152602d60248201527f506f6f6c41646472657373206d75737420657175616c20506f6f6c546f6b656e60448201526c20706f6f6c206164647265737360981b60648201526084016104b3565b516001600160a01b031660009081526101c960209081526040808320549483526101c89091529020600101919091555050565b6111e96000805160206129338339815191523361120d565b6112055760405162461bcd60e51b81526004016104b3906125b5565b610ea0611a70565b60009182526065602090815260408084206001600160a01b0393909316845291905290205460ff1690565b61124061134e565b61125c5760405162461bcd60e51b81526004016104b3906126c1565b6101c48190556101c35460009061127b906001600160a01b0316611813565b6001600160a01b03166318160ddd6040518163ffffffff1660e01b815260040160206040518083038186803b1580156112b357600080fd5b505afa1580156112c7573d6000803e3d6000fd5b505050506040513d601f19601f820116820180604052508101906112eb91906124e7565b90506113086064610e4883610e5461130161195d565b879061196b565b6101c781905560408051848152602081019290925233917fa75d65370da375e8498bef76d6c105c80386c2d14e939f1c680da7f9a411c609910160405180910390a25050565b60006113686000805160206128f38339815191523361120d565b905090565b600054610100900460ff161580801561138d5750600054600160ff909116105b806113a75750303b1580156113a7575060005460ff166001145b6113c35760405162461bcd60e51b81526004016104b390612628565b6000805460ff1916600117905580156113e6576000805461ff0019166101001790555b6001600160a01b0383161580159061140657506001600160a01b03821615155b6114655760405162461bcd60e51b815260206004820152602a60248201527f4f776e657220616e6420636f6e666967206164647265737365732063616e6e6f6044820152697420626520656d70747960b01b60648201526084016104b3565b61146e8361045d565b6101c380546001600160a01b0319166001600160a01b0384161790558015610caf576000805461ff0019169055604051600181526000805160206129138339815191529060200160405180910390a1505050565b6114ca61134e565b6114e65760405162461bcd60e51b81526004016104b3906126c1565b6101c3546114fc906001600160a01b0316611aad565b6101c380546001600160a01b0319166001600160a01b0392909216918217905560405133917f8d003bc2e3965bd9d92389a8ae0ef8c601fa211ba9378150dde7dc3cf38c3a369161154d919061256e565b60405180910390a2565b6000828152606560205260409020600101546115728161185a565b610caf83836118ea565b806115c95760405162461bcd60e51b815260206004820152601e60248201527f546f6b656e73496473206c656e677468206d757374206e6f742062652030000060448201526064016104b3565b60005b81811015610caf576116038383838181106115f757634e487b7160e01b600052603260045260246000fd5b90506020020135610771565b8061160d816128ac565b9150506115cc565b600054610100900460ff16610ea05760405162461bcd60e51b81526004016104b390612676565b600054610100900460ff166116635760405162461bcd60e51b81526004016104b390612676565b6097805460ff19169055565b600054610100900460ff166116965760405162461bcd60e51b81526004016104b390612676565b600160c955565b6105ef8282611864565b600082815260656020526040808220600101805490849055905190918391839186917fbd79b86ffe0ab8e8776151514217cd7cacd52c909f66475c3af44e129f0b00ff9190a4505050565b6000610457826119ee565b6101c6546101c55461170e82611977565b10611717575050565b33600061172384611ac5565b6001600160a01b03831660008181526101c960209081526040808320815163dd0ec24160e01b81529151959650879590949263dd0ec2419260048082019391829003018186803b15801561177657600080fd5b505afa15801561178a573d6000803e3d6000fd5b505050506040513d601f19601f820116820180604052508101906117ae91906124e7565b9050806117be5750505050505050565b6117e76117df6117cd83611977565b610e546117d861195d565b889061196b565b835490611800565b82556117f38688611800565b6101c65550505050505050565b600061180c828461270c565b9392505050565b600061045782611d35565b610caf8383836040518060400160405280601881526020017704661696c656420746f207472616e736665722045524332360441b815250611d4d565b61076e8133611e52565b61186e828261120d565b6105ef5760008281526065602090815260408083206001600160a01b03851684529091529020805460ff191660011790556118a63390565b6001600160a01b0316816001600160a01b0316837f2f8788117e7eff1d82e926ec794901d17c78024a50270940304540a733656f0d60405160405180910390a45050565b6118f4828261120d565b156105ef5760008281526065602090815260408083206001600160a01b0385168085529252808320805460ff1916905551339285917ff6391f5c32d9c69d2a47ea670b442974b53935d1edc7fd64eb21e047a839171b9190a45050565b600061180c828461284e565b60006113686012600a612787565b600061180c828461282f565b6000610457611984611eab565b610e5461198f61195d565b859061196b565b600061180c8284612724565b6119aa611eb9565b6097805460ff191690557f5db9ee0a495bf2e6ff9c91a7834c1ba4fdd244a5e8aa4e537bd38aeae4b073aa335b6040516119e4919061256e565b60405180910390a1565b60006001600160a01b03821663b93f9b0a600c5b6040518263ffffffff1660e01b8152600401611a2091815260200190565b60206040518083038186803b158015611a3857600080fd5b505afa158015611a4c573d6000803e3d6000fd5b505050506040513d601f19601f8201168201806040525081019061045791906122f0565b611a78611f02565b6097805460ff191660011790557f62e78cea01bee320cd4e420270b5ea74000d11b0c9f74754ebdbfc544b05a2586119d73390565b60006001600160a01b03821663b93f9b0a600b611a02565b6101c3546000908190611ae0906001600160a01b0316611813565b6001600160a01b03166318160ddd6040518163ffffffff1660e01b815260040160206040518083038186803b158015611b1857600080fd5b505afa158015611b2c573d6000803e3d6000fd5b505050506040513d601f19601f82011682018060405250810190611b5091906124e7565b90506000611b5d84611977565b90506000611b6d6101c654611977565b90506000611b7a82611f48565b90506000611ba1611b9c611b8d866120c1565b611b96866120c1565b90611800565b611977565b90506101c554811115611bb457506101c5545b6000611bc383610e4e84611f48565b90506000611bd36101c554611f48565b905060008111611c395760405162461bcd60e51b815260206004820152602b60248201527f6d6178496e746572657374446f6c6c617273456c696769626c65206d7573742060448201526a6e6f74206265207a65726f60a81b60648201526084016104b3565b6000611c69611c4661195d565b610e548a610e486064610e5488610e546101c7548c61196b90919063ffffffff16565b90506000611ca7611c7861195d565b610e548b610e486064610e5489610e546101c754610e48611ca2611c9a61195d565b60019061196b565b611f48565b9050611cb3818661196b565b8210611d275760405162461bcd60e51b815260206004820152603d60248201527f6e657747726f7373526577617264732063616e6e6f742062652067726561746560448201527f72207468656e20746865206d6178206766692070657220646f6c6c617200000060648201526084016104b3565b509998505050505050505050565b60006001600160a01b03821663b93f9b0a6012611a02565b6001600160a01b038316611da35760405162461bcd60e51b815260206004820152601a60248201527f43616e27742073656e6420746f207a65726f206164647265737300000000000060448201526064016104b3565b60405163a9059cbb60e01b81526001600160a01b038481166004830152602482018490526000919086169063a9059cbb90604401602060405180830381600087803b158015611df157600080fd5b505af1158015611e05573d6000803e3d6000fd5b505050506040513d601f19601f82011682018060405250810190611e2991906123df565b90508181611e4a5760405162461bcd60e51b81526004016104b39190612582565b505050505050565b611e5c828261120d565b6105ef57611e69816120e0565b611e748360206120f2565b604051602001611e859291906124ff565b60408051601f198184030181529082905262461bcd60e51b82526104b391600401612582565b60006113686006600a612787565b60975460ff16610ea05760405162461bcd60e51b815260206004820152601460248201527314185d5cd8589b194e881b9bdd081c185d5cd95960621b60448201526064016104b3565b60975460ff1615610ea05760405162461bcd60e51b815260206004820152601060248201526f14185d5cd8589b194e881c185d5cd95960821b60448201526064016104b3565b600081611f5757506000919050565b816001600160801b8210611f705760809190911c9060401b5b600160401b8210611f865760409190911c9060201b5b6401000000008210611f9d5760209190911c9060101b5b620100008210611fb25760109190911c9060081b5b6101008210611fc65760089190911c9060041b5b60108210611fd95760049190911c9060021b5b60088210611fe55760011b5b6001611ff18286612724565b611ffb908361270c565b901c9050600161200b8286612724565b612015908361270c565b901c905060016120258286612724565b61202f908361270c565b901c9050600161203f8286612724565b612049908361270c565b901c905060016120598286612724565b612063908361270c565b901c905060016120738286612724565b61207d908361270c565b901c9050600161208d8286612724565b612097908361270c565b901c905060006120a78286612724565b90508082106120b657806120b8565b815b95945050505050565b60006104576120d96120d1611eab565b610e5461195d565b8390611996565b60606104576001600160a01b03831660145b6060600061210183600261282f565b61210c90600261270c565b67ffffffffffffffff81111561213257634e487b7160e01b600052604160045260246000fd5b6040519080825280601f01601f19166020018201604052801561215c576020820181803683370190505b509050600360fc1b8160008151811061218557634e487b7160e01b600052603260045260246000fd5b60200101906001600160f81b031916908160001a905350600f60fb1b816001815181106121c257634e487b7160e01b600052603260045260246000fd5b60200101906001600160f81b031916908160001a90535060006121e684600261282f565b6121f190600161270c565b90505b6001811115612285576f181899199a1a9b1b9c1cb0b131b232b360811b85600f166010811061223357634e487b7160e01b600052603260045260246000fd5b1a60f81b82828151811061225757634e487b7160e01b600052603260045260246000fd5b60200101906001600160f81b031916908160001a90535060049490941c9361227e81612895565b90506121f4565b50831561180c5760405162461bcd60e51b815260206004820181905260248201527f537472696e67733a20686578206c656e67746820696e73756666696369656e7460448201526064016104b3565b6000602082840312156122e5578081fd5b813561180c816128dd565b600060208284031215612301578081fd5b815161180c816128dd565b6000806040838503121561231e578081fd5b8235612329816128dd565b91506020830135612339816128dd565b809150509250929050565b60008060408385031215612356578182fd5b8235612361816128dd565b946020939093013593505050565b60008060208385031215612381578182fd5b823567ffffffffffffffff80821115612398578384fd5b818501915085601f8301126123ab578384fd5b8135818111156123b9578485fd5b8660208260051b85010111156123cd578485fd5b60209290920196919550909350505050565b6000602082840312156123f0578081fd5b8151801515811461180c578182fd5b600060208284031215612410578081fd5b5035919050565b60008060408385031215612429578182fd5b823591506020830135612339816128dd565b60006020828403121561244c578081fd5b81356001600160e01b03198116811461180c578182fd5b600060a08284031215612474578081fd5b60405160a0810181811067ffffffffffffffff821117156124a357634e487b7160e01b83526041600452602483fd5b60405282516124b1816128dd565b80825250602083015160208201526040830151604082015260608301516060820152608083015160808201528091505092915050565b6000602082840312156124f8578081fd5b5051919050565b76020b1b1b2b9b9a1b7b73a3937b61d1030b1b1b7bab73a1604d1b815260008351612531816017850160208801612865565b7001034b99036b4b9b9b4b733903937b6329607d1b6017918401918201528351612562816028840160208801612865565b01602801949350505050565b6001600160a01b0391909116815260200190565b60208152600082518060208401526125a1816040850160208701612865565b601f01601f19169190910160400192915050565b6020808252602c908201527f4d75737420686176652070617573657220726f6c6520746f20706572666f726d60408201526b103a3434b99030b1ba34b7b760a11b606082015260800190565b6020808252600d908201526c496e76616c696420706f6f6c2160981b604082015260600190565b6020808252602e908201527f496e697469616c697a61626c653a20636f6e747261637420697320616c72656160408201526d191e481a5b9a5d1a585b1a5e995960921b606082015260800190565b6020808252602b908201527f496e697469616c697a61626c653a20636f6e7472616374206973206e6f74206960408201526a6e697469616c697a696e6760a81b606082015260800190565b6020808252602b908201527f4d75737420686176652061646d696e20726f6c6520746f20706572666f726d2060408201526a3a3434b99030b1ba34b7b760a91b606082015260800190565b6000821982111561271f5761271f6128c7565b500190565b60008261273f57634e487b7160e01b81526012600452602481fd5b500490565b600181815b8085111561277f578160001904821115612765576127656128c7565b8085161561277257918102915b93841c9390800290612749565b509250929050565b600061180c838360008261279d57506001610457565b816127aa57506000610457565b81600181146127c057600281146127ca576127e6565b6001915050610457565b60ff8411156127db576127db6128c7565b50506001821b610457565b5060208310610133831016604e8410600b8410161715612809575081810a610457565b6128138383612744565b8060001904821115612827576128276128c7565b029392505050565b6000816000190483118215151615612849576128496128c7565b500290565b600082821015612860576128606128c7565b500390565b60005b83811015612880578181015183820152602001612868565b8381111561288f576000848401525b50505050565b6000816128a4576128a46128c7565b506000190190565b60006000198214156128c0576128c06128c7565b5060010190565b634e487b7160e01b600052601160045260246000fd5b6001600160a01b038116811461076e57600080fdfeb19546dff01e856fb3f010c267a7b1c60363cf8a4664e21cc89c26224620214e7f26b83ff96e1f2b6a682f133852f6798a09c465da95921460cefb384740249865d7a28e3265b37a6474929f336521b332c1681b933f6cb9f3376673440d862aa2646970667358221220490fb2a68ace6574d8f6f2224668cfea43126d23e8b4c1fba3766f6fc780710564736f6c63430008040033",
  "devdoc": {
    "kind": "dev",
    "methods": {
      "allocateRewards(uint256)": {
        "params": {
          "_interestPaymentAmount": "The amount of total dollars the interest payment, expects 10^6 value"
        }
      },
      "getRoleAdmin(bytes32)": {
        "details": "Returns the admin role that controls `role`. See {grantRole} and {revokeRole}. To change a role's admin, use {_setRoleAdmin}."
      },
      "grantRole(bytes32,address)": {
        "details": "Grants `role` to `account`. If `account` had not been already granted `role`, emits a {RoleGranted} event. Requirements: - the caller must have ``role``'s admin role. May emit a {RoleGranted} event."
      },
      "hasRole(bytes32,address)": {
        "details": "Returns `true` if `account` has been granted `role`."
      },
      "pause()": {
        "details": "Pauses all functions guarded by Pause See {Pausable-_pause}. Requirements: - the caller must have the PAUSER_ROLE."
      },
      "paused()": {
        "details": "Returns true if the contract is paused, and false otherwise."
      },
      "poolTokenClaimableRewards(uint256)": {
        "params": {
          "tokenId": "Pool token id"
        },
        "returns": {
          "_0": "The amount of GFI claimable"
        }
      },
      "renounceRole(bytes32,address)": {
        "details": "Revokes `role` from the calling account. Roles are often managed via {grantRole} and {revokeRole}: this function's purpose is to provide a mechanism for accounts to lose their privileges if they are compromised (such as when a trusted device is misplaced). If the calling account had been revoked `role`, emits a {RoleRevoked} event. Requirements: - the caller must be `account`. May emit a {RoleRevoked} event."
      },
      "revokeRole(bytes32,address)": {
        "details": "Revokes `role` from `account`. If `account` had been granted `role`, emits a {RoleRevoked} event. Requirements: - the caller must have ``role``'s admin role. May emit a {RoleRevoked} event."
      },
      "setMaxInterestDollarsEligible(uint256)": {
        "params": {
          "_maxInterestDollarsEligible": "The amount of interest dollars eligible for GFI rewards, expects 10^18 value"
        }
      },
      "setPoolTokenAccRewardsPerPrincipalDollarAtMint(address,uint256)": {
        "params": {
          "tokenId": "Pool token id"
        }
      },
      "setTotalInterestReceived(uint256)": {
        "params": {
          "_totalInterestReceived": "The amount of interest the protocol has received to date, expects 10^6 value"
        }
      },
      "setTotalRewards(uint256)": {
        "params": {
          "_totalRewards": "The amount of GFI rewards available, expects 10^18 value"
        }
      },
      "supportsInterface(bytes4)": {
        "details": "See {IERC165-supportsInterface}."
      },
      "unpause()": {
        "details": "Unpauses the contract See {Pausable-_unpause}. Requirements: - the caller must have the Pauser role"
      },
      "withdraw(uint256)": {
        "params": {
          "tokenId": "Pool token id"
        }
      },
      "withdrawMultiple(uint256[])": {
        "params": {
          "tokenIds": "Array of pool token id"
        }
      }
    },
    "version": 1
  },
  "userdoc": {
    "kind": "user",
    "methods": {
      "allocateRewards(uint256)": {
        "notice": "Calculates the accRewardsPerPrincipalDollar for a given pool, when a interest payment is received by the protocol"
      },
      "poolTokenClaimableRewards(uint256)": {
        "notice": "Calculate the gross available gfi rewards for a PoolToken"
      },
      "setMaxInterestDollarsEligible(uint256)": {
        "notice": "Set the max dollars across the entire protocol that are eligible for GFI rewards"
      },
      "setPoolTokenAccRewardsPerPrincipalDollarAtMint(address,uint256)": {
        "notice": "When a pool token is minted for multiple drawdowns, set accRewardsPerPrincipalDollarAtMint to the current accRewardsPerPrincipalDollar price"
      },
      "setTotalInterestReceived(uint256)": {
        "notice": "Set the total interest received to date. This should only be called once on contract deploy."
      },
      "setTotalRewards(uint256)": {
        "notice": "Set the total gfi rewards and the % of total GFI"
      },
      "withdraw(uint256)": {
        "notice": "PoolToken request to withdraw all allocated rewards"
      },
      "withdrawMultiple(uint256[])": {
        "notice": "PoolToken request to withdraw multiple PoolTokens allocated rewards"
      }
    },
    "version": 1
  },
  "storageLayout": {
    "storage": [
      {
        "astId": 588,
        "contract": "contracts/rewards/BackerRewards.sol:BackerRewards",
        "label": "_initialized",
        "offset": 0,
        "slot": "0",
        "type": "t_uint8"
      },
      {
        "astId": 591,
        "contract": "contracts/rewards/BackerRewards.sol:BackerRewards",
        "label": "_initializing",
        "offset": 1,
        "slot": "0",
        "type": "t_bool"
      },
      {
        "astId": 4964,
        "contract": "contracts/rewards/BackerRewards.sol:BackerRewards",
        "label": "__gap",
        "offset": 0,
        "slot": "1",
        "type": "t_array(t_uint256)50_storage"
      },
      {
        "astId": 5544,
        "contract": "contracts/rewards/BackerRewards.sol:BackerRewards",
        "label": "__gap",
        "offset": 0,
        "slot": "51",
        "type": "t_array(t_uint256)50_storage"
      },
      {
        "astId": 184,
        "contract": "contracts/rewards/BackerRewards.sol:BackerRewards",
        "label": "_roles",
        "offset": 0,
        "slot": "101",
        "type": "t_mapping(t_bytes32,t_struct(RoleData)179_storage)"
      },
      {
        "astId": 479,
        "contract": "contracts/rewards/BackerRewards.sol:BackerRewards",
        "label": "__gap",
        "offset": 0,
        "slot": "102",
        "type": "t_array(t_uint256)49_storage"
      },
      {
        "astId": 771,
        "contract": "contracts/rewards/BackerRewards.sol:BackerRewards",
        "label": "_paused",
        "offset": 0,
        "slot": "151",
        "type": "t_bool"
      },
      {
        "astId": 876,
        "contract": "contracts/rewards/BackerRewards.sol:BackerRewards",
        "label": "__gap",
        "offset": 0,
        "slot": "152",
        "type": "t_array(t_uint256)49_storage"
      },
      {
        "astId": 891,
        "contract": "contracts/rewards/BackerRewards.sol:BackerRewards",
        "label": "_status",
        "offset": 0,
        "slot": "201",
        "type": "t_uint256"
      },
      {
        "astId": 949,
        "contract": "contracts/rewards/BackerRewards.sol:BackerRewards",
        "label": "__gap",
        "offset": 0,
        "slot": "202",
        "type": "t_array(t_uint256)49_storage"
      },
      {
        "astId": 15949,
        "contract": "contracts/rewards/BackerRewards.sol:BackerRewards",
        "label": "__gap1",
        "offset": 0,
        "slot": "251",
        "type": "t_array(t_uint256)50_storage"
      },
      {
        "astId": 15953,
        "contract": "contracts/rewards/BackerRewards.sol:BackerRewards",
        "label": "__gap2",
        "offset": 0,
        "slot": "301",
        "type": "t_array(t_uint256)50_storage"
      },
      {
        "astId": 15957,
        "contract": "contracts/rewards/BackerRewards.sol:BackerRewards",
        "label": "__gap3",
        "offset": 0,
        "slot": "351",
        "type": "t_array(t_uint256)50_storage"
      },
      {
        "astId": 15961,
        "contract": "contracts/rewards/BackerRewards.sol:BackerRewards",
        "label": "__gap4",
        "offset": 0,
        "slot": "401",
        "type": "t_array(t_uint256)50_storage"
      },
      {
        "astId": 32545,
        "contract": "contracts/rewards/BackerRewards.sol:BackerRewards",
        "label": "config",
        "offset": 0,
        "slot": "451",
        "type": "t_contract(DobermanConfig)20001"
      },
      {
        "astId": 32562,
        "contract": "contracts/rewards/BackerRewards.sol:BackerRewards",
        "label": "totalRewards",
        "offset": 0,
        "slot": "452",
        "type": "t_uint256"
      },
      {
        "astId": 32564,
        "contract": "contracts/rewards/BackerRewards.sol:BackerRewards",
        "label": "maxInterestDollarsEligible",
        "offset": 0,
        "slot": "453",
        "type": "t_uint256"
      },
      {
        "astId": 32566,
        "contract": "contracts/rewards/BackerRewards.sol:BackerRewards",
        "label": "totalInterestReceived",
        "offset": 0,
        "slot": "454",
        "type": "t_uint256"
      },
      {
        "astId": 32568,
        "contract": "contracts/rewards/BackerRewards.sol:BackerRewards",
        "label": "totalRewardPercentOfTotalGFI",
        "offset": 0,
        "slot": "455",
        "type": "t_uint256"
      },
      {
        "astId": 32573,
        "contract": "contracts/rewards/BackerRewards.sol:BackerRewards",
        "label": "tokens",
        "offset": 0,
        "slot": "456",
        "type": "t_mapping(t_uint256,t_struct(BackerRewardsTokenInfo)32560_storage)"
      },
      {
        "astId": 32578,
        "contract": "contracts/rewards/BackerRewards.sol:BackerRewards",
        "label": "pools",
        "offset": 0,
        "slot": "457",
        "type": "t_mapping(t_address,t_struct(BackerRewardsInfo)32555_storage)"
      }
    ],
    "types": {
      "t_address": {
        "encoding": "inplace",
        "label": "address",
        "numberOfBytes": "20"
      },
      "t_array(t_uint256)49_storage": {
        "base": "t_uint256",
        "encoding": "inplace",
        "label": "uint256[49]",
        "numberOfBytes": "1568"
      },
      "t_array(t_uint256)50_storage": {
        "base": "t_uint256",
        "encoding": "inplace",
        "label": "uint256[50]",
        "numberOfBytes": "1600"
      },
      "t_bool": {
        "encoding": "inplace",
        "label": "bool",
        "numberOfBytes": "1"
      },
      "t_bytes32": {
        "encoding": "inplace",
        "label": "bytes32",
        "numberOfBytes": "32"
      },
      "t_contract(DobermanConfig)20001": {
        "encoding": "inplace",
        "label": "contract DobermanConfig",
        "numberOfBytes": "20"
      },
      "t_mapping(t_address,t_bool)": {
        "encoding": "mapping",
        "key": "t_address",
        "label": "mapping(address => bool)",
        "numberOfBytes": "32",
        "value": "t_bool"
      },
      "t_mapping(t_address,t_struct(BackerRewardsInfo)32555_storage)": {
        "encoding": "mapping",
        "key": "t_address",
        "label": "mapping(address => struct BackerRewards.BackerRewardsInfo)",
        "numberOfBytes": "32",
        "value": "t_struct(BackerRewardsInfo)32555_storage"
      },
      "t_mapping(t_bytes32,t_struct(RoleData)179_storage)": {
        "encoding": "mapping",
        "key": "t_bytes32",
        "label": "mapping(bytes32 => struct AccessControlUpgradeable.RoleData)",
        "numberOfBytes": "32",
        "value": "t_struct(RoleData)179_storage"
      },
      "t_mapping(t_uint256,t_struct(BackerRewardsTokenInfo)32560_storage)": {
        "encoding": "mapping",
        "key": "t_uint256",
        "label": "mapping(uint256 => struct BackerRewards.BackerRewardsTokenInfo)",
        "numberOfBytes": "32",
        "value": "t_struct(BackerRewardsTokenInfo)32560_storage"
      },
      "t_struct(BackerRewardsInfo)32555_storage": {
        "encoding": "inplace",
        "label": "struct BackerRewards.BackerRewardsInfo",
        "members": [
          {
            "astId": 32554,
            "contract": "contracts/rewards/BackerRewards.sol:BackerRewards",
            "label": "accRewardsPerPrincipalDollar",
            "offset": 0,
            "slot": "0",
            "type": "t_uint256"
          }
        ],
        "numberOfBytes": "32"
      },
      "t_struct(BackerRewardsTokenInfo)32560_storage": {
        "encoding": "inplace",
        "label": "struct BackerRewards.BackerRewardsTokenInfo",
        "members": [
          {
            "astId": 32557,
            "contract": "contracts/rewards/BackerRewards.sol:BackerRewards",
            "label": "rewardsClaimed",
            "offset": 0,
            "slot": "0",
            "type": "t_uint256"
          },
          {
            "astId": 32559,
            "contract": "contracts/rewards/BackerRewards.sol:BackerRewards",
            "label": "accRewardsPerPrincipalDollarAtMint",
            "offset": 0,
            "slot": "1",
            "type": "t_uint256"
          }
        ],
        "numberOfBytes": "64"
      },
      "t_struct(RoleData)179_storage": {
        "encoding": "inplace",
        "label": "struct AccessControlUpgradeable.RoleData",
        "members": [
          {
            "astId": 176,
            "contract": "contracts/rewards/BackerRewards.sol:BackerRewards",
            "label": "members",
            "offset": 0,
            "slot": "0",
            "type": "t_mapping(t_address,t_bool)"
          },
          {
            "astId": 178,
            "contract": "contracts/rewards/BackerRewards.sol:BackerRewards",
            "label": "adminRole",
            "offset": 0,
            "slot": "1",
            "type": "t_bytes32"
          }
        ],
        "numberOfBytes": "64"
      },
      "t_uint256": {
        "encoding": "inplace",
        "label": "uint256",
        "numberOfBytes": "32"
      },
      "t_uint8": {
        "encoding": "inplace",
        "label": "uint8",
        "numberOfBytes": "1"
      }
    }
  }
}