{
  "address": "0xc3053a274D0Fe6F0002428552C18202abC90eaC8",
  "abi": [
    {
      "anonymous": false,
      "inputs": [
        {
          "indexed": true,
          "internalType": "address",
          "name": "owner",
          "type": "address"
        },
        {
          "indexed": true,
          "internalType": "address",
          "name": "spender",
          "type": "address"
        },
        {
          "indexed": false,
          "internalType": "uint256",
          "name": "value",
          "type": "uint256"
        }
      ],
      "name": "Approval",
      "type": "event"
    },
    {
      "anonymous": false,
      "inputs": [
        {
          "indexed": true,
          "internalType": "address",
          "name": "who",
          "type": "address"
        },
        {
          "indexed": false,
          "internalType": "address",
          "name": "configAddress",
          "type": "address"
        }
      ],
      "name": "DobermanConfigUpdated",
      "type": "event"
    },
    {
      "anonymous": false,
      "inputs": [
        {
          "indexed": false,
          "internalType": "uint8",
          "name": "version",
          "type": "uint8"
        }
      ],
      "name": "Initialized",
      "type": "event"
    },
    {
      "anonymous": false,
      "inputs": [
        {
          "indexed": false,
          "internalType": "address",
          "name": "account",
          "type": "address"
        }
      ],
      "name": "Paused",
      "type": "event"
    },
    {
      "anonymous": false,
      "inputs": [
        {
          "indexed": true,
          "internalType": "bytes32",
          "name": "role",
          "type": "bytes32"
        },
        {
          "indexed": true,
          "internalType": "bytes32",
          "name": "previousAdminRole",
          "type": "bytes32"
        },
        {
          "indexed": true,
          "internalType": "bytes32",
          "name": "newAdminRole",
          "type": "bytes32"
        }
      ],
      "name": "RoleAdminChanged",
      "type": "event"
    },
    {
      "anonymous": false,
      "inputs": [
        {
          "indexed": true,
          "internalType": "bytes32",
          "name": "role",
          "type": "bytes32"
        },
        {
          "indexed": true,
          "internalType": "address",
          "name": "account",
          "type": "address"
        },
        {
          "indexed": true,
          "internalType": "address",
          "name": "sender",
          "type": "address"
        }
      ],
      "name": "RoleGranted",
      "type": "event"
    },
    {
      "anonymous": false,
      "inputs": [
        {
          "indexed": true,
          "internalType": "bytes32",
          "name": "role",
          "type": "bytes32"
        },
        {
          "indexed": true,
          "internalType": "address",
          "name": "account",
          "type": "address"
        },
        {
          "indexed": true,
          "internalType": "address",
          "name": "sender",
          "type": "address"
        }
      ],
      "name": "RoleRevoked",
      "type": "event"
    },
    {
      "anonymous": false,
      "inputs": [
        {
          "indexed": true,
          "internalType": "address",
          "name": "from",
          "type": "address"
        },
        {
          "indexed": true,
          "internalType": "address",
          "name": "to",
          "type": "address"
        },
        {
          "indexed": false,
          "internalType": "uint256",
          "name": "value",
          "type": "uint256"
        }
      ],
      "name": "Transfer",
      "type": "event"
    },
    {
      "anonymous": false,
      "inputs": [
        {
          "indexed": false,
          "internalType": "address",
          "name": "account",
          "type": "address"
        }
      ],
      "name": "Unpaused",
      "type": "event"
    },
    {
      "inputs": [],
      "name": "ASSET_LIABILITY_MATCH_THRESHOLD",
      "outputs": [
        {
          "internalType": "uint256",
          "name": "",
          "type": "uint256"
        }
      ],
      "stateMutability": "view",
      "type": "function"
    },
    {
      "inputs": [],
      "name": "DEFAULT_ADMIN_ROLE",
      "outputs": [
        {
          "internalType": "bytes32",
          "name": "",
          "type": "bytes32"
        }
      ],
      "stateMutability": "view",
      "type": "function"
    },
    {
      "inputs": [],
      "name": "MINTER_ROLE",
      "outputs": [
        {
          "internalType": "bytes32",
          "name": "",
          "type": "bytes32"
        }
      ],
      "stateMutability": "view",
      "type": "function"
    },
    {
      "inputs": [],
      "name": "OWNER_ROLE",
      "outputs": [
        {
          "internalType": "bytes32",
          "name": "",
          "type": "bytes32"
        }
      ],
      "stateMutability": "view",
      "type": "function"
    },
    {
      "inputs": [],
      "name": "PAUSER_ROLE",
      "outputs": [
        {
          "internalType": "bytes32",
          "name": "",
          "type": "bytes32"
        }
      ],
      "stateMutability": "view",
      "type": "function"
    },
    {
      "inputs": [
        {
          "internalType": "address",
          "name": "owner",
          "type": "address"
        },
        {
          "internalType": "string",
          "name": "name",
          "type": "string"
        },
        {
          "internalType": "string",
          "name": "symbol",
          "type": "string"
        },
        {
          "internalType": "contract DobermanConfig",
          "name": "_config",
          "type": "address"
        }
      ],
      "name": "__initialize__",
      "outputs": [],
      "stateMutability": "nonpayable",
      "type": "function"
    },
    {
      "inputs": [
        {
          "internalType": "address",
          "name": "owner",
          "type": "address"
        },
        {
          "internalType": "address",
          "name": "spender",
          "type": "address"
        }
      ],
      "name": "allowance",
      "outputs": [
        {
          "internalType": "uint256",
          "name": "",
          "type": "uint256"
        }
      ],
      "stateMutability": "view",
      "type": "function"
    },
    {
      "inputs": [
        {
          "internalType": "address",
          "name": "spender",
          "type": "address"
        },
        {
          "internalType": "uint256",
          "name": "amount",
          "type": "uint256"
        }
      ],
      "name": "approve",
      "outputs": [
        {
          "internalType": "bool",
          "name": "",
          "type": "bool"
        }
      ],
      "stateMutability": "nonpayable",
      "type": "function"
    },
    {
      "inputs": [
        {
          "internalType": "address",
          "name": "account",
          "type": "address"
        }
      ],
      "name": "balanceOf",
      "outputs": [
        {
          "internalType": "uint256",
          "name": "",
          "type": "uint256"
        }
      ],
      "stateMutability": "view",
      "type": "function"
    },
    {
      "inputs": [
        {
          "internalType": "uint256",
          "name": "amount",
          "type": "uint256"
        }
      ],
      "name": "burn",
      "outputs": [],
      "stateMutability": "nonpayable",
      "type": "function"
    },
    {
      "inputs": [
        {
          "internalType": "address",
          "name": "from",
          "type": "address"
        },
        {
          "internalType": "uint256",
          "name": "amount",
          "type": "uint256"
        }
      ],
      "name": "burnFrom",
      "outputs": [],
      "stateMutability": "nonpayable",
      "type": "function"
    },
    {
      "inputs": [],
      "name": "config",
      "outputs": [
        {
          "internalType": "contract DobermanConfig",
          "name": "",
          "type": "address"
        }
      ],
      "stateMutability": "view",
      "type": "function"
    },
    {
      "inputs": [],
      "name": "decimals",
      "outputs": [
        {
          "internalType": "uint8",
          "name": "",
          "type": "uint8"
        }
      ],
      "stateMutability": "view",
      "type": "function"
    },
    {
      "inputs": [
        {
          "internalType": "address",
          "name": "spender",
          "type": "address"
        },
        {
          "internalType": "uint256",
          "name": "subtractedValue",
          "type": "uint256"
        }
      ],
      "name": "decreaseAllowance",
      "outputs": [
        {
          "internalType": "bool",
          "name": "",
          "type": "bool"
        }
      ],
      "stateMutability": "nonpayable",
      "type": "function"
    },
    {
      "inputs": [
        {
          "internalType": "bytes32",
          "name": "role",
          "type": "bytes32"
        }
      ],
      "name": "getRoleAdmin",
      "outputs": [
        {
          "internalType": "bytes32",
          "name": "",
          "type": "bytes32"
        }
      ],
      "stateMutability": "view",
      "type": "function"
    },
    {
      "inputs": [
        {
          "internalType": "bytes32",
          "name": "role",
          "type": "bytes32"
        },
        {
          "internalType": "uint256",
          "name": "index",
          "type": "uint256"
        }
      ],
      "name": "getRoleMember",
      "outputs": [
        {
          "internalType": "address",
          "name": "",
          "type": "address"
        }
      ],
      "stateMutability": "view",
      "type": "function"
    },
    {
      "inputs": [
        {
          "internalType": "bytes32",
          "name": "role",
          "type": "bytes32"
        }
      ],
      "name": "getRoleMemberCount",
      "outputs": [
        {
          "internalType": "uint256",
          "name": "",
          "type": "uint256"
        }
      ],
      "stateMutability": "view",
      "type": "function"
    },
    {
      "inputs": [
        {
          "internalType": "bytes32",
          "name": "role",
          "type": "bytes32"
        },
        {
          "internalType": "address",
          "name": "account",
          "type": "address"
        }
      ],
      "name": "grantRole",
      "outputs": [],
      "stateMutability": "nonpayable",
      "type": "function"
    },
    {
      "inputs": [
        {
          "internalType": "bytes32",
          "name": "role",
          "type": "bytes32"
        },
        {
          "internalType": "address",
          "name": "account",
          "type": "address"
        }
      ],
      "name": "hasRole",
      "outputs": [
        {
          "internalType": "bool",
          "name": "",
          "type": "bool"
        }
      ],
      "stateMutability": "view",
      "type": "function"
    },
    {
      "inputs": [
        {
          "internalType": "address",
          "name": "spender",
          "type": "address"
        },
        {
          "internalType": "uint256",
          "name": "addedValue",
          "type": "uint256"
        }
      ],
      "name": "increaseAllowance",
      "outputs": [
        {
          "internalType": "bool",
          "name": "",
          "type": "bool"
        }
      ],
      "stateMutability": "nonpayable",
      "type": "function"
    },
    {
      "inputs": [
        {
          "internalType": "string",
          "name": "name",
          "type": "string"
        },
        {
          "internalType": "string",
          "name": "symbol",
          "type": "string"
        }
      ],
      "name": "initialize",
      "outputs": [],
      "stateMutability": "nonpayable",
      "type": "function"
    },
    {
      "inputs": [
        {
          "internalType": "address",
          "name": "to",
          "type": "address"
        },
        {
          "internalType": "uint256",
          "name": "amount",
          "type": "uint256"
        }
      ],
      "name": "mint",
      "outputs": [],
      "stateMutability": "nonpayable",
      "type": "function"
    },
    {
      "inputs": [
        {
          "internalType": "address",
          "name": "to",
          "type": "address"
        },
        {
          "internalType": "uint256",
          "name": "amount",
          "type": "uint256"
        }
      ],
      "name": "mintTo",
      "outputs": [],
      "stateMutability": "nonpayable",
      "type": "function"
    },
    {
      "inputs": [],
      "name": "name",
      "outputs": [
        {
          "internalType": "string",
          "name": "",
          "type": "string"
        }
      ],
      "stateMutability": "view",
      "type": "function"
    },
    {
      "inputs": [],
      "name": "pause",
      "outputs": [],
      "stateMutability": "nonpayable",
      "type": "function"
    },
    {
      "inputs": [],
      "name": "paused",
      "outputs": [
        {
          "internalType": "bool",
          "name": "",
          "type": "bool"
        }
      ],
      "stateMutability": "view",
      "type": "function"
    },
    {
      "inputs": [
        {
          "internalType": "bytes32",
          "name": "role",
          "type": "bytes32"
        },
        {
          "internalType": "address",
          "name": "account",
          "type": "address"
        }
      ],
      "name": "renounceRole",
      "outputs": [],
      "stateMutability": "nonpayable",
      "type": "function"
    },
    {
      "inputs": [
        {
          "internalType": "bytes32",
          "name": "role",
          "type": "bytes32"
        },
        {
          "internalType": "address",
          "name": "account",
          "type": "address"
        }
      ],
      "name": "revokeRole",
      "outputs": [],
      "stateMutability": "nonpayable",
      "type": "function"
    },
    {
      "inputs": [
        {
          "internalType": "bytes4",
          "name": "interfaceId",
          "type": "bytes4"
        }
      ],
      "name": "supportsInterface",
      "outputs": [
        {
          "internalType": "bool",
          "name": "",
          "type": "bool"
        }
      ],
      "stateMutability": "view",
      "type": "function"
    },
    {
      "inputs": [],
      "name": "symbol",
      "outputs": [
        {
          "internalType": "string",
          "name": "",
          "type": "string"
        }
      ],
      "stateMutability": "view",
      "type": "function"
    },
    {
      "inputs": [],
      "name": "totalSupply",
      "outputs": [
        {
          "internalType": "uint256",
          "name": "",
          "type": "uint256"
        }
      ],
      "stateMutability": "view",
      "type": "function"
    },
    {
      "inputs": [
        {
          "internalType": "address",
          "name": "to",
          "type": "address"
        },
        {
          "internalType": "uint256",
          "name": "amount",
          "type": "uint256"
        }
      ],
      "name": "transfer",
      "outputs": [
        {
          "internalType": "bool",
          "name": "",
          "type": "bool"
        }
      ],
      "stateMutability": "nonpayable",
      "type": "function"
    },
    {
      "inputs": [
        {
          "internalType": "address",
          "name": "from",
          "type": "address"
        },
        {
          "internalType": "address",
          "name": "to",
          "type": "address"
        },
        {
          "internalType": "uint256",
          "name": "amount",
          "type": "uint256"
        }
      ],
      "name": "transferFrom",
      "outputs": [
        {
          "internalType": "bool",
          "name": "",
          "type": "bool"
        }
      ],
      "stateMutability": "nonpayable",
      "type": "function"
    },
    {
      "inputs": [],
      "name": "unpause",
      "outputs": [],
      "stateMutability": "nonpayable",
      "type": "function"
    },
    {
      "inputs": [],
      "name": "updateDobermanConfig",
      "outputs": [],
      "stateMutability": "nonpayable",
      "type": "function"
    }
  ],
  "transactionHash": "0x2e09a3bbc2ecf4315c34a51dae41be061e7a5e6b7bd584ada3e4919bf6556fb8",
  "args": [],
  "numDeployments": 1,
  "solcInputHash": "f8a9201ec43fb675f4ca3c235dc4a777",
  "bytecode": "0x608060405234801561001057600080fd5b506127bd806100206000396000f3fe608060405234801561001057600080fd5b50600436106101d15760003560e01c806370a0823111610105578063a9059cbb1161009d578063a9059cbb146103d0578063ca15c873146103e3578063d30a0911146103f6578063d5391393146103fe578063d547741f14610413578063dd62ed3e14610426578063e58378bb14610439578063e63ab1e91461044e578063f77356f01461046357600080fd5b806370a082311461032257806379502c551461034b57806379cc67901461036c5780638456cb591461037f5780639010d07c1461038757806391d148541461039a57806395d89b41146103ad578063a217fddf146103b5578063a457c2d7146103bd57600080fd5b806336568abe1161017857806336568abe1461029257806339509351146102a55780633f4ba83a146102b857806340c10f19146102c057806342966c68146102d3578063449a52f8146102e65780634cd88b76146102f95780635c975abb1461030c57806363be20301461031857600080fd5b806301ffc9a7146101d657806306fdde03146101fe578063095ea7b31461021357806318160ddd1461022657806323b872dd14610238578063248a9ca31461024b5780632f2ff15d1461026e578063313ce56714610283575b600080fd5b6101e96101e43660046122df565b610476565b60405190151581526020015b60405180910390f35b6102066104a1565b6040516101f59190612403565b6101e9610221366004612257565b610533565b60cb545b6040519081526020016101f5565b6101e9610246366004612185565b61054b565b61022a610259366004612282565b60009081526065602052604090206001015490565b61028161027c36600461229a565b61056f565b005b604051601281526020016101f5565b6102816102a036600461229a565b610599565b6101e96102b3366004612257565b61061c565b61028161063e565b6102816102ce366004612257565b6106bc565b6102816102e1366004612282565b610737565b6102816102f4366004612257565b610744565b610281610307366004612307565b6107c4565b61012d5460ff166101e9565b61022a620f424081565b61022a610330366004612115565b6001600160a01b0316600090815260c9602052604090205490565b6101c35461035f906001600160a01b031681565b6040516101f591906123ef565b61028161037a366004612257565b610891565b610281610994565b61035f6103953660046122be565b610a0e565b6101e96103a836600461229a565b610a2d565b610206610a58565b61022a600081565b6101e96103cb366004612257565b610a67565b6101e96103de366004612257565b610ae2565b61022a6103f1366004612282565b610af0565b610281610b07565b61022a60008051602061274883398151915281565b61028161042136600461229a565b610c02565b61022a61043436600461214d565b610c27565b61022a60008051602061270883398151915281565b61022a60008051602061272883398151915281565b6102816104713660046121c5565b610c52565b60006001600160e01b03198216635a05180f60e01b148061049b575061049b82610e7d565b92915050565b606060cc80546104b09061266b565b80601f01602080910402602001604051908101604052809291908181526020018280546104dc9061266b565b80156105295780601f106104fe57610100808354040283529160200191610529565b820191906000526020600020905b81548152906001019060200180831161050c57829003601f168201915b5050505050905090565b600033610541818585610eb2565b5060019392505050565b600033610559858285610fd6565b610564858585611050565b506001949350505050565b60008281526065602052604090206001015461058a816111f4565b61059483836111fe565b505050565b6001600160a01b038116331461060e5760405162461bcd60e51b815260206004820152602f60248201527f416363657373436f6e74726f6c3a2063616e206f6e6c792072656e6f756e636560448201526e103937b632b9903337b91039b2b63360891b60648201526084015b60405180910390fd5b6106188282611220565b5050565b60003361054181858561062f8383610c27565b61063991906124cf565b610eb2565b61065660008051602061272883398151915233610a2d565b6106b25760405162461bcd60e51b815260206004820152603960248201526000805160206126e883398151915260448201527876652070617573657220726f6c6520746f20756e706175736560381b6064820152608401610605565b6106ba611242565b565b6106d460008051602061274883398151915233610a2d565b61072d5760405162461bcd60e51b815260206004820152603660248201526000805160206126e88339815191526044820152751d99481b5a5b9d195c881c9bdb19481d1bc81b5a5b9d60521b6064820152608401610605565b610618828261128f565b610741338261134a565b50565b61074d81611478565b6107ba5760405162461bcd60e51b815260206004820152603860248201527f43616e6e6f74206d696e743a20697420776f756c642063726561746520616e206044820152770c2e6e6cae85ed8d2c2c4d2d8d2e8f240dad2e6dac2e8c6d60431b6064820152608401610605565b61061882826106bc565b600054610100900460ff16158080156107e45750600054600160ff909116105b806107fe5750303b1580156107fe575060005460ff166001145b61081a5760405162461bcd60e51b815260040161060590612436565b6000805460ff19166001179055801561083d576000805461ff0019166101001790555b61084783836115e6565b8015610594576000805461ff0019169055604051600181527f7f26b83ff96e1f2b6a682f133852f6798a09c465da95921460cefb38474024989060200160405180910390a1505050565b6108a960008051602061274883398151915233610a2d565b6109145760405162461bcd60e51b815260206004820152603660248201527f45524332305072657365744d696e7465725061757365723a204d7573742068616044820152753b329036b4b73a32b9103937b632903a3790313ab93760511b6064820152608401610605565b61091d81611629565b61098a5760405162461bcd60e51b815260206004820152603860248201527f43616e6e6f74206275726e3a20697420776f756c642063726561746520616e206044820152770c2e6e6cae85ed8d2c2c4d2d8d2e8f240dad2e6dac2e8c6d60431b6064820152608401610605565b610618828261134a565b6109ac60008051602061272883398151915233610a2d565b610a065760405162461bcd60e51b815260206004820152603760248201526000805160206126e883398151915260448201527676652070617573657220726f6c6520746f20706175736560481b6064820152608401610605565b6106ba6116da565b6000828152609760205260408120610a269083611718565b9392505050565b60009182526065602090815260408084206001600160a01b0393909316845291905290205460ff1690565b606060cd80546104b09061266b565b60003381610a758286610c27565b905083811015610ad55760405162461bcd60e51b815260206004820152602560248201527f45524332303a2064656372656173656420616c6c6f77616e63652062656c6f77604482015264207a65726f60d81b6064820152608401610605565b6105648286868403610eb2565b600033610541818585611050565b600081815260976020526040812061049b90611724565b610b1f60008051602061270883398151915233610a2d565b610b915760405162461bcd60e51b815260206004820152603f60248201527f45524332305072657365744d696e7465725061757365723a204d75737420686160448201527f7665206d696e74657220726f6c6520746f206368616e676520636f6e666967006064820152608401610605565b6101c354610ba7906001600160a01b031661172e565b6101c380546001600160a01b0319166001600160a01b0392909216918217905560405133917f8d003bc2e3965bd9d92389a8ae0ef8c601fa211ba9378150dde7dc3cf38c3a3691610bf891906123ef565b60405180910390a2565b600082815260656020526040902060010154610c1d816111f4565b6105948383611220565b6001600160a01b03918216600090815260ca6020908152604080832093909416825291909152205490565b600054610100900460ff1615808015610c725750600054600160ff909116105b80610c8c5750303b158015610c8c575060005460ff166001145b610ca85760405162461bcd60e51b815260040161060590612436565b6000805460ff191660011790558015610ccb576000805461ff0019166101001790555b610cd36117b0565b610cdb6117b0565b610d4e86868080601f01602080910402602001604051908101604052809392919081815260200183838082843760009201919091525050604080516020601f8a0181900481028201810190925288815292508891508790819084018382808284376000920191909152506117d792505050565b610d566117b0565b610d5e611825565b610d666117b0565b6101c380546001600160a01b0319166001600160a01b038416179055610d9a60008051602061274883398151915288611859565b610db260008051602061272883398151915288611859565b610dca60008051602061270883398151915288611859565b610df0600080516020612748833981519152600080516020612708833981519152611863565b610e16600080516020612728833981519152600080516020612708833981519152611863565b610e2e60008051602061270883398151915280611863565b8015610e74576000805461ff0019169055604051600181527f7f26b83ff96e1f2b6a682f133852f6798a09c465da95921460cefb38474024989060200160405180910390a15b50505050505050565b60006001600160e01b03198216637965db0b60e01b148061049b57506301ffc9a760e01b6001600160e01b031983161461049b565b6001600160a01b038316610f145760405162461bcd60e51b8152602060048201526024808201527f45524332303a20617070726f76652066726f6d20746865207a65726f206164646044820152637265737360e01b6064820152608401610605565b6001600160a01b038216610f755760405162461bcd60e51b815260206004820152602260248201527f45524332303a20617070726f766520746f20746865207a65726f206164647265604482015261737360f01b6064820152608401610605565b6001600160a01b03838116600081815260ca602090815260408083209487168084529482529182902085905590518481527f8c5be1e5ebec7d5bd14f71427d1e84f3dd0314c0f7b2291e5b200ac8c7c3b925910160405180910390a3505050565b6000610fe28484610c27565b9050600019811461104a578181101561103d5760405162461bcd60e51b815260206004820152601d60248201527f45524332303a20696e73756666696369656e7420616c6c6f77616e63650000006044820152606401610605565b61104a8484848403610eb2565b50505050565b6001600160a01b0383166110b45760405162461bcd60e51b815260206004820152602560248201527f45524332303a207472616e736665722066726f6d20746865207a65726f206164604482015264647265737360d81b6064820152608401610605565b6001600160a01b0382166111165760405162461bcd60e51b815260206004820152602360248201527f45524332303a207472616e7366657220746f20746865207a65726f206164647260448201526265737360e81b6064820152608401610605565b6111218383836118ae565b6001600160a01b038316600090815260c96020526040902054818110156111995760405162461bcd60e51b815260206004820152602660248201527f45524332303a207472616e7366657220616d6f756e7420657863656564732062604482015265616c616e636560d01b6064820152608401610605565b6001600160a01b03808516600081815260c960205260408082208686039055928616808252908390208054860190559151600080516020612768833981519152906111e79086815260200190565b60405180910390a361104a565b61074181336118b9565b6112088282611912565b60008281526097602052604090206105949082611998565b61122a82826119ad565b60008281526097602052604090206105949082611a14565b61124a611a29565b61012d805460ff191690557f5db9ee0a495bf2e6ff9c91a7834c1ba4fdd244a5e8aa4e537bd38aeae4b073aa335b60405161128591906123ef565b60405180910390a1565b6001600160a01b0382166112e55760405162461bcd60e51b815260206004820152601f60248201527f45524332303a206d696e7420746f20746865207a65726f2061646472657373006044820152606401610605565b6112f1600083836118ae565b8060cb600082825461130391906124cf565b90915550506001600160a01b038216600081815260c96020908152604080832080548601905551848152600080516020612768833981519152910160405180910390a35050565b6001600160a01b0382166113aa5760405162461bcd60e51b815260206004820152602160248201527f45524332303a206275726e2066726f6d20746865207a65726f206164647265736044820152607360f81b6064820152608401610605565b6113b6826000836118ae565b6001600160a01b038216600090815260c960205260409020548181101561142a5760405162461bcd60e51b815260206004820152602260248201527f45524332303a206275726e20616d6f756e7420657863656564732062616c616e604482015261636560f01b6064820152608401610605565b6001600160a01b038316600081815260c960209081526040808320868603905560cb8054879003905551858152919291600080516020612768833981519152910160405180910390a3505050565b6101c3546000908190611493906001600160a01b0316611a73565b905060006115356114a2611a7e565b61152f846001600160a01b031663872697296040518163ffffffff1660e01b815260040160206040518083038186803b1580156114de57600080fd5b505afa1580156114f2573d6000803e3d6000fd5b505050506040513d601f19601f820116820180604052508101906115169190612368565b6115298861152360cb5490565b90611a91565b90611a9d565b90611aa9565b9050600061154282611ab5565b90506000836001600160a01b03166371a973056040518163ffffffff1660e01b815260040160206040518083038186803b15801561157f57600080fd5b505afa158015611593573d6000803e3d6000fd5b505050506040513d601f19601f820116820180604052508101906115b79190612368565b90508181106115cc5750600195945050505050565b620f42406115da8383611ad4565b11159695505050505050565b600054610100900460ff1661160d5760405162461bcd60e51b815260040161060590612484565b61161782826117d7565b61161f611825565b6106188282611ae0565b6101c3546000908190611644906001600160a01b0316611a73565b90506000611535611653611a7e565b61152f846001600160a01b031663872697296040518163ffffffff1660e01b815260040160206040518083038186803b15801561168f57600080fd5b505afa1580156116a3573d6000803e3d6000fd5b505050506040513d601f19601f820116820180604052508101906116c79190612368565b611529886116d460cb5490565b90611ad4565b6116e2611b42565b61012d805460ff191660011790557f62e78cea01bee320cd4e420270b5ea74000d11b0c9f74754ebdbfc544b05a2586112783390565b6000610a268383611b89565b600061049b825490565b60006001600160a01b03821663b93f9b0a600b5b6040518263ffffffff1660e01b815260040161176091815260200190565b60206040518083038186803b15801561177857600080fd5b505afa15801561178c573d6000803e3d6000fd5b505050506040513d601f19601f8201168201806040525081019061049b9190612131565b600054610100900460ff166106ba5760405162461bcd60e51b815260040161060590612484565b600054610100900460ff166117fe5760405162461bcd60e51b815260040161060590612484565b81516118119060cc906020850190611fae565b5080516105949060cd906020840190611fae565b600054610100900460ff1661184c5760405162461bcd60e51b815260040161060590612484565b61012d805460ff19169055565b61061882826111fe565b600082815260656020526040808220600101805490849055905190918391839186917fbd79b86ffe0ab8e8776151514217cd7cacd52c909f66475c3af44e129f0b00ff9190a4505050565b610594838383611bc1565b6118c38282610a2d565b610618576118d081611c28565b6118db836020611c3a565b6040516020016118ec929190612380565b60408051601f198184030181529082905262461bcd60e51b825261060591600401612403565b61191c8282610a2d565b6106185760008281526065602090815260408083206001600160a01b03851684529091529020805460ff191660011790556119543390565b6001600160a01b0316816001600160a01b0316837f2f8788117e7eff1d82e926ec794901d17c78024a50270940304540a733656f0d60405160405180910390a45050565b6000610a26836001600160a01b038416611e1c565b6119b78282610a2d565b156106185760008281526065602090815260408083206001600160a01b0385168085529252808320805460ff1916905551339285917ff6391f5c32d9c69d2a47ea670b442974b53935d1edc7fd64eb21e047a839171b9190a45050565b6000610a26836001600160a01b038416611e6b565b61012d5460ff166106ba5760405162461bcd60e51b815260206004820152601460248201527314185d5cd8589b194e881b9bdd081c185d5cd95960621b6044820152606401610605565b600061049b82611f88565b6000611a8c6012600a61254a565b905090565b6000610a2682846124cf565b6000610a2682846125f2565b6000610a2682846124e7565b600061049b611acd611ac5611fa0565b61152f611a7e565b8390611aa9565b6000610a268284612611565b600054610100900460ff16611b075760405162461bcd60e51b815260040161060590612484565b611b12600033611859565b611b2a60008051602061274883398151915233611859565b61061860008051602061272883398151915233611859565b61012d5460ff16156106ba5760405162461bcd60e51b815260206004820152601060248201526f14185d5cd8589b194e881c185d5cd95960821b6044820152606401610605565b6000826000018281548110611bae57634e487b7160e01b600052603260045260246000fd5b9060005260206000200154905092915050565b61012d5460ff16156105945760405162461bcd60e51b815260206004820152602a60248201527f45524332305061757361626c653a20746f6b656e207472616e736665722077686044820152691a5b19481c185d5cd95960b21b6064820152608401610605565b606061049b6001600160a01b03831660145b60606000611c498360026125f2565b611c549060026124cf565b67ffffffffffffffff811115611c7a57634e487b7160e01b600052604160045260246000fd5b6040519080825280601f01601f191660200182016040528015611ca4576020820181803683370190505b509050600360fc1b81600081518110611ccd57634e487b7160e01b600052603260045260246000fd5b60200101906001600160f81b031916908160001a905350600f60fb1b81600181518110611d0a57634e487b7160e01b600052603260045260246000fd5b60200101906001600160f81b031916908160001a9053506000611d2e8460026125f2565b611d399060016124cf565b90505b6001811115611dcd576f181899199a1a9b1b9c1cb0b131b232b360811b85600f1660108110611d7b57634e487b7160e01b600052603260045260246000fd5b1a60f81b828281518110611d9f57634e487b7160e01b600052603260045260246000fd5b60200101906001600160f81b031916908160001a90535060049490941c93611dc681612654565b9050611d3c565b508315610a265760405162461bcd60e51b815260206004820181905260248201527f537472696e67733a20686578206c656e67746820696e73756666696369656e746044820152606401610605565b6000818152600183016020526040812054611e635750815460018181018455600084815260208082209093018490558454848252828601909352604090209190915561049b565b50600061049b565b60008181526001830160205260408120548015611f7e576000611e8f600183612611565b8554909150600090611ea390600190612611565b9050818114611f24576000866000018281548110611ed157634e487b7160e01b600052603260045260246000fd5b9060005260206000200154905080876000018481548110611f0257634e487b7160e01b600052603260045260246000fd5b6000918252602080832090910192909255918252600188019052604090208390555b8554869080611f4357634e487b7160e01b600052603160045260246000fd5b60019003818190600052602060002001600090559055856001016000868152602001908152602001600020600090556001935050505061049b565b600091505061049b565b60006001600160a01b03821663b93f9b0a600e611742565b6000611a8c6006600a61254a565b828054611fba9061266b565b90600052602060002090601f016020900481019282611fdc5760008555612022565b82601f10611ff557805160ff1916838001178555612022565b82800160010185558215612022579182015b82811115612022578251825591602001919060010190612007565b5061202e929150612032565b5090565b5b8082111561202e5760008155600101612033565b60008083601f840112612058578182fd5b50813567ffffffffffffffff81111561206f578182fd5b60208301915083602082850101111561208757600080fd5b9250929050565b600082601f83011261209e578081fd5b813567ffffffffffffffff808211156120b9576120b96126bc565b604051601f8301601f19908116603f011681019082821181831017156120e1576120e16126bc565b816040528381528660208588010111156120f9578485fd5b8360208701602083013792830160200193909352509392505050565b600060208284031215612126578081fd5b8135610a26816126d2565b600060208284031215612142578081fd5b8151610a26816126d2565b6000806040838503121561215f578081fd5b823561216a816126d2565b9150602083013561217a816126d2565b809150509250929050565b600080600060608486031215612199578081fd5b83356121a4816126d2565b925060208401356121b4816126d2565b929592945050506040919091013590565b600080600080600080608087890312156121dd578182fd5b86356121e8816126d2565b9550602087013567ffffffffffffffff80821115612204578384fd5b6122108a838b01612047565b90975095506040890135915080821115612228578384fd5b5061223589828a01612047565b9094509250506060870135612249816126d2565b809150509295509295509295565b60008060408385031215612269578182fd5b8235612274816126d2565b946020939093013593505050565b600060208284031215612293578081fd5b5035919050565b600080604083850312156122ac578182fd5b82359150602083013561217a816126d2565b600080604083850312156122d0578182fd5b50508035926020909101359150565b6000602082840312156122f0578081fd5b81356001600160e01b031981168114610a26578182fd5b60008060408385031215612319578182fd5b823567ffffffffffffffff80821115612330578384fd5b61233c8683870161208e565b93506020850135915080821115612351578283fd5b5061235e8582860161208e565b9150509250929050565b600060208284031215612379578081fd5b5051919050565b76020b1b1b2b9b9a1b7b73a3937b61d1030b1b1b7bab73a1604d1b8152600083516123b2816017850160208801612628565b7001034b99036b4b9b9b4b733903937b6329607d1b60179184019182015283516123e3816028840160208801612628565b01602801949350505050565b6001600160a01b0391909116815260200190565b6020815260008251806020840152612422816040850160208701612628565b601f01601f19169190910160400192915050565b6020808252602e908201527f496e697469616c697a61626c653a20636f6e747261637420697320616c72656160408201526d191e481a5b9a5d1a585b1a5e995960921b606082015260800190565b6020808252602b908201527f496e697469616c697a61626c653a20636f6e7472616374206973206e6f74206960408201526a6e697469616c697a696e6760a81b606082015260800190565b600082198211156124e2576124e26126a6565b500190565b60008261250257634e487b7160e01b81526012600452602481fd5b500490565b600181815b80851115612542578160001904821115612528576125286126a6565b8085161561253557918102915b93841c939080029061250c565b509250929050565b6000610a2683836000826125605750600161049b565b8161256d5750600061049b565b8160018114612583576002811461258d576125a9565b600191505061049b565b60ff84111561259e5761259e6126a6565b50506001821b61049b565b5060208310610133831016604e8410600b84101617156125cc575081810a61049b565b6125d68383612507565b80600019048211156125ea576125ea6126a6565b029392505050565b600081600019048311821515161561260c5761260c6126a6565b500290565b600082821015612623576126236126a6565b500390565b60005b8381101561264357818101518382015260200161262b565b8381111561104a5750506000910152565b600081612663576126636126a6565b506000190190565b600181811c9082168061267f57607f821691505b602082108114156126a057634e487b7160e01b600052602260045260246000fd5b50919050565b634e487b7160e01b600052601160045260246000fd5b634e487b7160e01b600052604160045260246000fd5b6001600160a01b038116811461074157600080fdfe45524332305072657365744d696e7465725061757365723a206d757374206861b19546dff01e856fb3f010c267a7b1c60363cf8a4664e21cc89c26224620214e65d7a28e3265b37a6474929f336521b332c1681b933f6cb9f3376673440d862a9f2df0fed2c77648de5860a4cc508cd0818c85b8b8a1ab4ceeef8d981c8956a6ddf252ad1be2c89b69c2b068fc378daa952ba7f163c4a11628f55a4df523b3efa2646970667358221220baa90d0528792eb9e19a2df01a8d31e9fc336f53eb9feb9660f2a8c82e7fccb664736f6c63430008040033",
  "devdoc": {
    "author": "Doberman",
    "kind": "dev",
    "methods": {
      "allowance(address,address)": {
        "details": "See {IERC20-allowance}."
      },
      "approve(address,uint256)": {
        "details": "See {IERC20-approve}. NOTE: If `amount` is the maximum `uint256`, the allowance is not updated on `transferFrom`. This is semantically equivalent to an infinite approval. Requirements: - `spender` cannot be the zero address."
      },
      "balanceOf(address)": {
        "details": "See {IERC20-balanceOf}."
      },
      "burn(uint256)": {
        "details": "Destroys `amount` tokens from the caller. See {ERC20-_burn}."
      },
      "burnFrom(address,uint256)": {
        "details": "Destroys `amount` tokens from `account`, deducting from the caller's allowance. See {ERC20-_burn} and {ERC20-allowance}. Requirements: - the caller must have the MINTER_ROLE"
      },
      "decimals()": {
        "details": "Returns the number of decimals used to get its user representation. For example, if `decimals` equals `2`, a balance of `505` tokens should be displayed to a user as `5.05` (`505 / 10 ** 2`). Tokens usually opt for a value of 18, imitating the relationship between Ether and Wei. This is the value {ERC20} uses, unless this function is overridden; NOTE: This information is only used for _display_ purposes: it in no way affects any of the arithmetic of the contract, including {IERC20-balanceOf} and {IERC20-transfer}."
      },
      "decreaseAllowance(address,uint256)": {
        "details": "Atomically decreases the allowance granted to `spender` by the caller. This is an alternative to {approve} that can be used as a mitigation for problems described in {IERC20-approve}. Emits an {Approval} event indicating the updated allowance. Requirements: - `spender` cannot be the zero address. - `spender` must have allowance for the caller of at least `subtractedValue`."
      },
      "getRoleAdmin(bytes32)": {
        "details": "Returns the admin role that controls `role`. See {grantRole} and {revokeRole}. To change a role's admin, use {_setRoleAdmin}."
      },
      "getRoleMember(bytes32,uint256)": {
        "details": "Returns one of the accounts that have `role`. `index` must be a value between 0 and {getRoleMemberCount}, non-inclusive. Role bearers are not sorted in any particular way, and their ordering may change at any point. WARNING: When using {getRoleMember} and {getRoleMemberCount}, make sure you perform all queries on the same block. See the following https://forum.openzeppelin.com/t/iterating-over-elements-on-enumerableset-in-openzeppelin-contracts/2296[forum post] for more information."
      },
      "getRoleMemberCount(bytes32)": {
        "details": "Returns the number of accounts that have `role`. Can be used together with {getRoleMember} to enumerate all bearers of a role."
      },
      "grantRole(bytes32,address)": {
        "details": "Grants `role` to `account`. If `account` had not been already granted `role`, emits a {RoleGranted} event. Requirements: - the caller must have ``role``'s admin role. May emit a {RoleGranted} event."
      },
      "hasRole(bytes32,address)": {
        "details": "Returns `true` if `account` has been granted `role`."
      },
      "increaseAllowance(address,uint256)": {
        "details": "Atomically increases the allowance granted to `spender` by the caller. This is an alternative to {approve} that can be used as a mitigation for problems described in {IERC20-approve}. Emits an {Approval} event indicating the updated allowance. Requirements: - `spender` cannot be the zero address."
      },
      "mint(address,uint256)": {
        "details": "Creates `amount` new tokens for `to`. See {ERC20-_mint}. Requirements: - the caller must have the `MINTER_ROLE`."
      },
      "mintTo(address,uint256)": {
        "details": "Creates `amount` new tokens for `to`. See {ERC20-_mint}. Requirements: - the caller must have the `MINTER_ROLE`."
      },
      "name()": {
        "details": "Returns the name of the token."
      },
      "pause()": {
        "details": "Pauses all token transfers. See {ERC20Pausable} and {Pausable-_pause}. Requirements: - the caller must have the `PAUSER_ROLE`."
      },
      "paused()": {
        "details": "Returns true if the contract is paused, and false otherwise."
      },
      "renounceRole(bytes32,address)": {
        "details": "Revokes `role` from the calling account. Roles are often managed via {grantRole} and {revokeRole}: this function's purpose is to provide a mechanism for accounts to lose their privileges if they are compromised (such as when a trusted device is misplaced). If the calling account had been revoked `role`, emits a {RoleRevoked} event. Requirements: - the caller must be `account`. May emit a {RoleRevoked} event."
      },
      "revokeRole(bytes32,address)": {
        "details": "Revokes `role` from `account`. If `account` had been granted `role`, emits a {RoleRevoked} event. Requirements: - the caller must have ``role``'s admin role. May emit a {RoleRevoked} event."
      },
      "supportsInterface(bytes4)": {
        "details": "See {IERC165-supportsInterface}."
      },
      "symbol()": {
        "details": "Returns the symbol of the token, usually a shorter version of the name."
      },
      "totalSupply()": {
        "details": "See {IERC20-totalSupply}."
      },
      "transfer(address,uint256)": {
        "details": "See {IERC20-transfer}. Requirements: - `to` cannot be the zero address. - the caller must have a balance of at least `amount`."
      },
      "transferFrom(address,address,uint256)": {
        "details": "See {IERC20-transferFrom}. Emits an {Approval} event indicating the updated allowance. This is not required by the EIP. See the note at the beginning of {ERC20}. NOTE: Does not update the allowance if the current allowance is the maximum `uint256`. Requirements: - `from` and `to` cannot be the zero address. - `from` must have a balance of at least `amount`. - the caller must have allowance for ``from``'s tokens of at least `amount`."
      },
      "unpause()": {
        "details": "Unpauses all token transfers. See {ERC20Pausable} and {Pausable-_unpause}. Requirements: - the caller must have the `PAUSER_ROLE`."
      }
    },
    "title": "Fidu",
    "version": 1
  },
  "userdoc": {
    "kind": "user",
    "methods": {},
    "notice": "Fidu (symbol: FIDU) is Doberman's liquidity token, representing shares  in the Pool. When you deposit, we mint a corresponding amount of Fidu, and when you withdraw, we  burn Fidu. The share price of the Pool implicitly represents the \"exchange rate\" between Fidu  and USDC (or whatever currencies the Pool may allow withdraws in during the future)",
    "version": 1
  },
  "storageLayout": {
    "storage": [
      {
        "astId": 588,
        "contract": "contracts/protocol/core/Fidu.sol:Fidu",
        "label": "_initialized",
        "offset": 0,
        "slot": "0",
        "type": "t_uint8"
      },
      {
        "astId": 591,
        "contract": "contracts/protocol/core/Fidu.sol:Fidu",
        "label": "_initializing",
        "offset": 1,
        "slot": "0",
        "type": "t_bool"
      },
      {
        "astId": 3470,
        "contract": "contracts/protocol/core/Fidu.sol:Fidu",
        "label": "__gap",
        "offset": 0,
        "slot": "1",
        "type": "t_array(t_uint256)50_storage"
      },
      {
        "astId": 3689,
        "contract": "contracts/protocol/core/Fidu.sol:Fidu",
        "label": "__gap",
        "offset": 0,
        "slot": "51",
        "type": "t_array(t_uint256)50_storage"
      },
      {
        "astId": 184,
        "contract": "contracts/protocol/core/Fidu.sol:Fidu",
        "label": "_roles",
        "offset": 0,
        "slot": "101",
        "type": "t_mapping(t_bytes32,t_struct(RoleData)179_storage)"
      },
      {
        "astId": 479,
        "contract": "contracts/protocol/core/Fidu.sol:Fidu",
        "label": "__gap",
        "offset": 0,
        "slot": "102",
        "type": "t_array(t_uint256)49_storage"
      },
      {
        "astId": 33,
        "contract": "contracts/protocol/core/Fidu.sol:Fidu",
        "label": "_roleMembers",
        "offset": 0,
        "slot": "151",
        "type": "t_mapping(t_bytes32,t_struct(AddressSet)4893_storage)"
      },
      {
        "astId": 143,
        "contract": "contracts/protocol/core/Fidu.sol:Fidu",
        "label": "__gap",
        "offset": 0,
        "slot": "152",
        "type": "t_array(t_uint256)49_storage"
      },
      {
        "astId": 969,
        "contract": "contracts/protocol/core/Fidu.sol:Fidu",
        "label": "_balances",
        "offset": 0,
        "slot": "201",
        "type": "t_mapping(t_address,t_uint256)"
      },
      {
        "astId": 975,
        "contract": "contracts/protocol/core/Fidu.sol:Fidu",
        "label": "_allowances",
        "offset": 0,
        "slot": "202",
        "type": "t_mapping(t_address,t_mapping(t_address,t_uint256))"
      },
      {
        "astId": 977,
        "contract": "contracts/protocol/core/Fidu.sol:Fidu",
        "label": "_totalSupply",
        "offset": 0,
        "slot": "203",
        "type": "t_uint256"
      },
      {
        "astId": 979,
        "contract": "contracts/protocol/core/Fidu.sol:Fidu",
        "label": "_name",
        "offset": 0,
        "slot": "204",
        "type": "t_string_storage"
      },
      {
        "astId": 981,
        "contract": "contracts/protocol/core/Fidu.sol:Fidu",
        "label": "_symbol",
        "offset": 0,
        "slot": "205",
        "type": "t_string_storage"
      },
      {
        "astId": 1561,
        "contract": "contracts/protocol/core/Fidu.sol:Fidu",
        "label": "__gap",
        "offset": 0,
        "slot": "206",
        "type": "t_array(t_uint256)45_storage"
      },
      {
        "astId": 1703,
        "contract": "contracts/protocol/core/Fidu.sol:Fidu",
        "label": "__gap",
        "offset": 0,
        "slot": "251",
        "type": "t_array(t_uint256)50_storage"
      },
      {
        "astId": 771,
        "contract": "contracts/protocol/core/Fidu.sol:Fidu",
        "label": "_paused",
        "offset": 0,
        "slot": "301",
        "type": "t_bool"
      },
      {
        "astId": 876,
        "contract": "contracts/protocol/core/Fidu.sol:Fidu",
        "label": "__gap",
        "offset": 0,
        "slot": "302",
        "type": "t_array(t_uint256)49_storage"
      },
      {
        "astId": 1763,
        "contract": "contracts/protocol/core/Fidu.sol:Fidu",
        "label": "__gap",
        "offset": 0,
        "slot": "351",
        "type": "t_array(t_uint256)50_storage"
      },
      {
        "astId": 1968,
        "contract": "contracts/protocol/core/Fidu.sol:Fidu",
        "label": "__gap",
        "offset": 0,
        "slot": "401",
        "type": "t_array(t_uint256)50_storage"
      },
      {
        "astId": 16573,
        "contract": "contracts/protocol/core/Fidu.sol:Fidu",
        "label": "config",
        "offset": 0,
        "slot": "451",
        "type": "t_contract(DobermanConfig)15869"
      }
    ],
    "types": {
      "t_address": {
        "encoding": "inplace",
        "label": "address",
        "numberOfBytes": "20"
      },
      "t_array(t_bytes32)dyn_storage": {
        "base": "t_bytes32",
        "encoding": "dynamic_array",
        "label": "bytes32[]",
        "numberOfBytes": "32"
      },
      "t_array(t_uint256)45_storage": {
        "base": "t_uint256",
        "encoding": "inplace",
        "label": "uint256[45]",
        "numberOfBytes": "1440"
      },
      "t_array(t_uint256)49_storage": {
        "base": "t_uint256",
        "encoding": "inplace",
        "label": "uint256[49]",
        "numberOfBytes": "1568"
      },
      "t_array(t_uint256)50_storage": {
        "base": "t_uint256",
        "encoding": "inplace",
        "label": "uint256[50]",
        "numberOfBytes": "1600"
      },
      "t_bool": {
        "encoding": "inplace",
        "label": "bool",
        "numberOfBytes": "1"
      },
      "t_bytes32": {
        "encoding": "inplace",
        "label": "bytes32",
        "numberOfBytes": "32"
      },
      "t_contract(DobermanConfig)15869": {
        "encoding": "inplace",
        "label": "contract DobermanConfig",
        "numberOfBytes": "20"
      },
      "t_mapping(t_address,t_bool)": {
        "encoding": "mapping",
        "key": "t_address",
        "label": "mapping(address => bool)",
        "numberOfBytes": "32",
        "value": "t_bool"
      },
      "t_mapping(t_address,t_mapping(t_address,t_uint256))": {
        "encoding": "mapping",
        "key": "t_address",
        "label": "mapping(address => mapping(address => uint256))",
        "numberOfBytes": "32",
        "value": "t_mapping(t_address,t_uint256)"
      },
      "t_mapping(t_address,t_uint256)": {
        "encoding": "mapping",
        "key": "t_address",
        "label": "mapping(address => uint256)",
        "numberOfBytes": "32",
        "value": "t_uint256"
      },
      "t_mapping(t_bytes32,t_struct(AddressSet)4893_storage)": {
        "encoding": "mapping",
        "key": "t_bytes32",
        "label": "mapping(bytes32 => struct EnumerableSetUpgradeable.AddressSet)",
        "numberOfBytes": "32",
        "value": "t_struct(AddressSet)4893_storage"
      },
      "t_mapping(t_bytes32,t_struct(RoleData)179_storage)": {
        "encoding": "mapping",
        "key": "t_bytes32",
        "label": "mapping(bytes32 => struct AccessControlUpgradeable.RoleData)",
        "numberOfBytes": "32",
        "value": "t_struct(RoleData)179_storage"
      },
      "t_mapping(t_bytes32,t_uint256)": {
        "encoding": "mapping",
        "key": "t_bytes32",
        "label": "mapping(bytes32 => uint256)",
        "numberOfBytes": "32",
        "value": "t_uint256"
      },
      "t_string_storage": {
        "encoding": "bytes",
        "label": "string",
        "numberOfBytes": "32"
      },
      "t_struct(AddressSet)4893_storage": {
        "encoding": "inplace",
        "label": "struct EnumerableSetUpgradeable.AddressSet",
        "members": [
          {
            "astId": 4892,
            "contract": "contracts/protocol/core/Fidu.sol:Fidu",
            "label": "_inner",
            "offset": 0,
            "slot": "0",
            "type": "t_struct(Set)4578_storage"
          }
        ],
        "numberOfBytes": "64"
      },
      "t_struct(RoleData)179_storage": {
        "encoding": "inplace",
        "label": "struct AccessControlUpgradeable.RoleData",
        "members": [
          {
            "astId": 176,
            "contract": "contracts/protocol/core/Fidu.sol:Fidu",
            "label": "members",
            "offset": 0,
            "slot": "0",
            "type": "t_mapping(t_address,t_bool)"
          },
          {
            "astId": 178,
            "contract": "contracts/protocol/core/Fidu.sol:Fidu",
            "label": "adminRole",
            "offset": 0,
            "slot": "1",
            "type": "t_bytes32"
          }
        ],
        "numberOfBytes": "64"
      },
      "t_struct(Set)4578_storage": {
        "encoding": "inplace",
        "label": "struct EnumerableSetUpgradeable.Set",
        "members": [
          {
            "astId": 4573,
            "contract": "contracts/protocol/core/Fidu.sol:Fidu",
            "label": "_values",
            "offset": 0,
            "slot": "0",
            "type": "t_array(t_bytes32)dyn_storage"
          },
          {
            "astId": 4577,
            "contract": "contracts/protocol/core/Fidu.sol:Fidu",
            "label": "_indexes",
            "offset": 0,
            "slot": "1",
            "type": "t_mapping(t_bytes32,t_uint256)"
          }
        ],
        "numberOfBytes": "64"
      },
      "t_uint256": {
        "encoding": "inplace",
        "label": "uint256",
        "numberOfBytes": "32"
      },
      "t_uint8": {
        "encoding": "inplace",
        "label": "uint8",
        "numberOfBytes": "1"
      }
    }
  }
}