{
  "address": "0xB231C9baC8681D92FF3F419C23aB2E0fCEdB06c2",
  "abi": [
    {
      "anonymous": false,
      "inputs": [
        {
          "indexed": true,
          "internalType": "address",
          "name": "capitalProvider",
          "type": "address"
        },
        {
          "indexed": false,
          "internalType": "uint256",
          "name": "amount",
          "type": "uint256"
        },
        {
          "indexed": false,
          "internalType": "uint256",
          "name": "shares",
          "type": "uint256"
        }
      ],
      "name": "DepositMade",
      "type": "event"
    },
    {
      "anonymous": false,
      "inputs": [
        {
          "indexed": true,
          "internalType": "address",
          "name": "who",
          "type": "address"
        },
        {
          "indexed": false,
          "internalType": "address",
          "name": "configAddress",
          "type": "address"
        }
      ],
      "name": "DobermanConfigUpdated",
      "type": "event"
    },
    {
      "anonymous": false,
      "inputs": [
        {
          "indexed": false,
          "internalType": "uint8",
          "name": "version",
          "type": "uint8"
        }
      ],
      "name": "Initialized",
      "type": "event"
    },
    {
      "anonymous": false,
      "inputs": [
        {
          "indexed": true,
          "internalType": "address",
          "name": "payer",
          "type": "address"
        },
        {
          "indexed": false,
          "internalType": "uint256",
          "name": "amount",
          "type": "uint256"
        }
      ],
      "name": "InterestCollected",
      "type": "event"
    },
    {
      "anonymous": false,
      "inputs": [
        {
          "indexed": true,
          "internalType": "address",
          "name": "tranchedPool",
          "type": "address"
        },
        {
          "indexed": false,
          "internalType": "uint256",
          "name": "amount",
          "type": "uint256"
        }
      ],
      "name": "InvestmentMadeInJunior",
      "type": "event"
    },
    {
      "anonymous": false,
      "inputs": [
        {
          "indexed": true,
          "internalType": "address",
          "name": "tranchedPool",
          "type": "address"
        },
        {
          "indexed": false,
          "internalType": "uint256",
          "name": "amount",
          "type": "uint256"
        }
      ],
      "name": "InvestmentMadeInSenior",
      "type": "event"
    },
    {
      "anonymous": false,
      "inputs": [
        {
          "indexed": false,
          "internalType": "address",
          "name": "account",
          "type": "address"
        }
      ],
      "name": "Paused",
      "type": "event"
    },
    {
      "anonymous": false,
      "inputs": [
        {
          "indexed": true,
          "internalType": "address",
          "name": "payer",
          "type": "address"
        },
        {
          "indexed": false,
          "internalType": "uint256",
          "name": "amount",
          "type": "uint256"
        }
      ],
      "name": "PrincipalCollected",
      "type": "event"
    },
    {
      "anonymous": false,
      "inputs": [
        {
          "indexed": true,
          "internalType": "address",
          "name": "tranchedPool",
          "type": "address"
        },
        {
          "indexed": false,
          "internalType": "int256",
          "name": "amount",
          "type": "int256"
        }
      ],
      "name": "PrincipalWrittenDown",
      "type": "event"
    },
    {
      "anonymous": false,
      "inputs": [
        {
          "indexed": true,
          "internalType": "address",
          "name": "user",
          "type": "address"
        },
        {
          "indexed": false,
          "internalType": "uint256",
          "name": "amount",
          "type": "uint256"
        }
      ],
      "name": "ReserveFundsCollected",
      "type": "event"
    },
    {
      "anonymous": false,
      "inputs": [
        {
          "indexed": true,
          "internalType": "bytes32",
          "name": "role",
          "type": "bytes32"
        },
        {
          "indexed": true,
          "internalType": "bytes32",
          "name": "previousAdminRole",
          "type": "bytes32"
        },
        {
          "indexed": true,
          "internalType": "bytes32",
          "name": "newAdminRole",
          "type": "bytes32"
        }
      ],
      "name": "RoleAdminChanged",
      "type": "event"
    },
    {
      "anonymous": false,
      "inputs": [
        {
          "indexed": true,
          "internalType": "bytes32",
          "name": "role",
          "type": "bytes32"
        },
        {
          "indexed": true,
          "internalType": "address",
          "name": "account",
          "type": "address"
        },
        {
          "indexed": true,
          "internalType": "address",
          "name": "sender",
          "type": "address"
        }
      ],
      "name": "RoleGranted",
      "type": "event"
    },
    {
      "anonymous": false,
      "inputs": [
        {
          "indexed": true,
          "internalType": "bytes32",
          "name": "role",
          "type": "bytes32"
        },
        {
          "indexed": true,
          "internalType": "address",
          "name": "account",
          "type": "address"
        },
        {
          "indexed": true,
          "internalType": "address",
          "name": "sender",
          "type": "address"
        }
      ],
      "name": "RoleRevoked",
      "type": "event"
    },
    {
      "anonymous": false,
      "inputs": [
        {
          "indexed": false,
          "internalType": "address",
          "name": "account",
          "type": "address"
        }
      ],
      "name": "Unpaused",
      "type": "event"
    },
    {
      "anonymous": false,
      "inputs": [
        {
          "indexed": true,
          "internalType": "address",
          "name": "capitalProvider",
          "type": "address"
        },
        {
          "indexed": false,
          "internalType": "uint256",
          "name": "userAmount",
          "type": "uint256"
        },
        {
          "indexed": false,
          "internalType": "uint256",
          "name": "reserveAmount",
          "type": "uint256"
        }
      ],
      "name": "WithdrawalMade",
      "type": "event"
    },
    {
      "inputs": [],
      "name": "DEFAULT_ADMIN_ROLE",
      "outputs": [
        {
          "internalType": "bytes32",
          "name": "",
          "type": "bytes32"
        }
      ],
      "stateMutability": "view",
      "type": "function"
    },
    {
      "inputs": [],
      "name": "OWNER_ROLE",
      "outputs": [
        {
          "internalType": "bytes32",
          "name": "",
          "type": "bytes32"
        }
      ],
      "stateMutability": "view",
      "type": "function"
    },
    {
      "inputs": [],
      "name": "PAUSER_ROLE",
      "outputs": [
        {
          "internalType": "bytes32",
          "name": "",
          "type": "bytes32"
        }
      ],
      "stateMutability": "view",
      "type": "function"
    },
    {
      "inputs": [
        {
          "internalType": "address",
          "name": "owner",
          "type": "address"
        }
      ],
      "name": "__BaseUpgradeablePausable__init",
      "outputs": [],
      "stateMutability": "nonpayable",
      "type": "function"
    },
    {
      "inputs": [],
      "name": "__PauserPausable__init",
      "outputs": [],
      "stateMutability": "nonpayable",
      "type": "function"
    },
    {
      "inputs": [],
      "name": "assets",
      "outputs": [
        {
          "internalType": "uint256",
          "name": "",
          "type": "uint256"
        }
      ],
      "stateMutability": "view",
      "type": "function"
    },
    {
      "inputs": [
        {
          "internalType": "uint256",
          "name": "tokenId",
          "type": "uint256"
        }
      ],
      "name": "calculateWritedown",
      "outputs": [
        {
          "internalType": "uint256",
          "name": "",
          "type": "uint256"
        }
      ],
      "stateMutability": "view",
      "type": "function"
    },
    {
      "inputs": [],
      "name": "compoundBalance",
      "outputs": [
        {
          "internalType": "uint256",
          "name": "",
          "type": "uint256"
        }
      ],
      "stateMutability": "view",
      "type": "function"
    },
    {
      "inputs": [],
      "name": "config",
      "outputs": [
        {
          "internalType": "contract DobermanConfig",
          "name": "",
          "type": "address"
        }
      ],
      "stateMutability": "view",
      "type": "function"
    },
    {
      "inputs": [
        {
          "internalType": "uint256",
          "name": "amount",
          "type": "uint256"
        }
      ],
      "name": "deposit",
      "outputs": [
        {
          "internalType": "uint256",
          "name": "depositShares",
          "type": "uint256"
        }
      ],
      "stateMutability": "nonpayable",
      "type": "function"
    },
    {
      "inputs": [
        {
          "internalType": "uint256",
          "name": "amount",
          "type": "uint256"
        },
        {
          "internalType": "uint256",
          "name": "deadline",
          "type": "uint256"
        },
        {
          "internalType": "uint8",
          "name": "v",
          "type": "uint8"
        },
        {
          "internalType": "bytes32",
          "name": "r",
          "type": "bytes32"
        },
        {
          "internalType": "bytes32",
          "name": "s",
          "type": "bytes32"
        }
      ],
      "name": "depositWithPermit",
      "outputs": [
        {
          "internalType": "uint256",
          "name": "depositShares",
          "type": "uint256"
        }
      ],
      "stateMutability": "nonpayable",
      "type": "function"
    },
    {
      "inputs": [
        {
          "internalType": "contract ITranchedPool",
          "name": "pool",
          "type": "address"
        }
      ],
      "name": "estimateInvestment",
      "outputs": [
        {
          "internalType": "uint256",
          "name": "",
          "type": "uint256"
        }
      ],
      "stateMutability": "view",
      "type": "function"
    },
    {
      "inputs": [
        {
          "internalType": "uint256",
          "name": "amount",
          "type": "uint256"
        }
      ],
      "name": "getNumShares",
      "outputs": [
        {
          "internalType": "uint256",
          "name": "",
          "type": "uint256"
        }
      ],
      "stateMutability": "view",
      "type": "function"
    },
    {
      "inputs": [
        {
          "internalType": "bytes32",
          "name": "role",
          "type": "bytes32"
        }
      ],
      "name": "getRoleAdmin",
      "outputs": [
        {
          "internalType": "bytes32",
          "name": "",
          "type": "bytes32"
        }
      ],
      "stateMutability": "view",
      "type": "function"
    },
    {
      "inputs": [
        {
          "internalType": "bytes32",
          "name": "role",
          "type": "bytes32"
        },
        {
          "internalType": "address",
          "name": "account",
          "type": "address"
        }
      ],
      "name": "grantRole",
      "outputs": [],
      "stateMutability": "nonpayable",
      "type": "function"
    },
    {
      "inputs": [
        {
          "internalType": "bytes32",
          "name": "role",
          "type": "bytes32"
        },
        {
          "internalType": "address",
          "name": "account",
          "type": "address"
        }
      ],
      "name": "hasRole",
      "outputs": [
        {
          "internalType": "bool",
          "name": "",
          "type": "bool"
        }
      ],
      "stateMutability": "view",
      "type": "function"
    },
    {
      "inputs": [
        {
          "internalType": "address",
          "name": "owner",
          "type": "address"
        },
        {
          "internalType": "contract DobermanConfig",
          "name": "_config",
          "type": "address"
        }
      ],
      "name": "initialize",
      "outputs": [],
      "stateMutability": "nonpayable",
      "type": "function"
    },
    {
      "inputs": [
        {
          "internalType": "contract ITranchedPool",
          "name": "pool",
          "type": "address"
        }
      ],
      "name": "invest",
      "outputs": [],
      "stateMutability": "nonpayable",
      "type": "function"
    },
    {
      "inputs": [],
      "name": "isAdmin",
      "outputs": [
        {
          "internalType": "bool",
          "name": "",
          "type": "bool"
        }
      ],
      "stateMutability": "view",
      "type": "function"
    },
    {
      "inputs": [],
      "name": "pause",
      "outputs": [],
      "stateMutability": "nonpayable",
      "type": "function"
    },
    {
      "inputs": [],
      "name": "paused",
      "outputs": [
        {
          "internalType": "bool",
          "name": "",
          "type": "bool"
        }
      ],
      "stateMutability": "view",
      "type": "function"
    },
    {
      "inputs": [
        {
          "internalType": "uint256",
          "name": "tokenId",
          "type": "uint256"
        }
      ],
      "name": "redeem",
      "outputs": [],
      "stateMutability": "nonpayable",
      "type": "function"
    },
    {
      "inputs": [
        {
          "internalType": "bytes32",
          "name": "role",
          "type": "bytes32"
        },
        {
          "internalType": "address",
          "name": "account",
          "type": "address"
        }
      ],
      "name": "renounceRole",
      "outputs": [],
      "stateMutability": "nonpayable",
      "type": "function"
    },
    {
      "inputs": [
        {
          "internalType": "bytes32",
          "name": "role",
          "type": "bytes32"
        },
        {
          "internalType": "address",
          "name": "account",
          "type": "address"
        }
      ],
      "name": "revokeRole",
      "outputs": [],
      "stateMutability": "nonpayable",
      "type": "function"
    },
    {
      "inputs": [],
      "name": "sharePrice",
      "outputs": [
        {
          "internalType": "uint256",
          "name": "",
          "type": "uint256"
        }
      ],
      "stateMutability": "view",
      "type": "function"
    },
    {
      "inputs": [
        {
          "internalType": "bytes4",
          "name": "interfaceId",
          "type": "bytes4"
        }
      ],
      "name": "supportsInterface",
      "outputs": [
        {
          "internalType": "bool",
          "name": "",
          "type": "bool"
        }
      ],
      "stateMutability": "view",
      "type": "function"
    },
    {
      "inputs": [],
      "name": "sweepFromCompound",
      "outputs": [],
      "stateMutability": "nonpayable",
      "type": "function"
    },
    {
      "inputs": [],
      "name": "sweepToCompound",
      "outputs": [],
      "stateMutability": "nonpayable",
      "type": "function"
    },
    {
      "inputs": [],
      "name": "totalLoansOutstanding",
      "outputs": [
        {
          "internalType": "uint256",
          "name": "",
          "type": "uint256"
        }
      ],
      "stateMutability": "view",
      "type": "function"
    },
    {
      "inputs": [],
      "name": "totalWritedowns",
      "outputs": [
        {
          "internalType": "uint256",
          "name": "",
          "type": "uint256"
        }
      ],
      "stateMutability": "view",
      "type": "function"
    },
    {
      "inputs": [],
      "name": "unpause",
      "outputs": [],
      "stateMutability": "nonpayable",
      "type": "function"
    },
    {
      "inputs": [],
      "name": "updateDobermanConfig",
      "outputs": [],
      "stateMutability": "nonpayable",
      "type": "function"
    },
    {
      "inputs": [
        {
          "internalType": "uint256",
          "name": "usdcAmount",
          "type": "uint256"
        }
      ],
      "name": "withdraw",
      "outputs": [
        {
          "internalType": "uint256",
          "name": "amount",
          "type": "uint256"
        }
      ],
      "stateMutability": "nonpayable",
      "type": "function"
    },
    {
      "inputs": [
        {
          "internalType": "uint256",
          "name": "fiduAmount",
          "type": "uint256"
        }
      ],
      "name": "withdrawInFidu",
      "outputs": [
        {
          "internalType": "uint256",
          "name": "amount",
          "type": "uint256"
        }
      ],
      "stateMutability": "nonpayable",
      "type": "function"
    },
    {
      "inputs": [
        {
          "internalType": "uint256",
          "name": "tokenId",
          "type": "uint256"
        }
      ],
      "name": "writedown",
      "outputs": [],
      "stateMutability": "nonpayable",
      "type": "function"
    },
    {
      "inputs": [
        {
          "internalType": "contract ITranchedPool",
          "name": "",
          "type": "address"
        }
      ],
      "name": "writedowns",
      "outputs": [
        {
          "internalType": "uint256",
          "name": "",
          "type": "uint256"
        }
      ],
      "stateMutability": "view",
      "type": "function"
    }
  ],
  "transactionHash": "0x8d15016b4331012098414c1b79b7eeade4c3a42c6331320568dcda6fdb775efc",
  "args": [],
  "numDeployments": 1,
  "solcInputHash": "df369af656b85c4868caefa9a6688c8c",
  "bytecode": "0x608060405234801561001057600080fd5b50613bde806100206000396000f3fe608060405234801561001057600080fd5b50600436106101dc5760003560e01c8063855cb21b11610105578063b6db75a01161009d578063b6db75a0146103be578063d30a0911146103c6578063d547741f146103ce578063d78a5c65146103e1578063db006a7514610402578063e58378bb14610415578063e63ab1e91461042a578063ed80c8501461043f578063f1a80e621461044957600080fd5b8063855cb21b1461034657806387269729146103595780638836d9021461036357806391d148541461036b578063945ed49a1461037e5780639e4a88e114610391578063a217fddf14610399578063a6f4487e146103a1578063b6b55f25146103ab57600080fd5b80634a970be7116101785780634a970be7146102b6578063526d81f6146102c957806358031d12146102d15780635c975abb146102e457806371a97305146102ef578063722eeec3146102f757806379502c551461030a5780637e30cdff1461032b5780638456cb591461033e57600080fd5b806301ffc9a7146101e157806303f9c79314610209578063097616a31461021e578063248a9ca3146102315780632e1a7d4d146102625780632f2ff15d1461027557806336568abe146102885780633f4ba83a1461029b578063485cc955146102a3575b600080fd5b6101f46101ef36600461345c565b610453565b60405190151581526020015b60405180910390f35b61021c610217366004613390565b61048a565b005b61021c61022c366004613390565b6106c5565b61025461023f366004613420565b60009081526065602052604090206001015490565b604051908152602001610200565b610254610270366004613420565b6107c8565b61021c610283366004613438565b6108e1565b61021c610296366004613438565b61090b565b61021c610989565b61021c6102b13660046133c8565b6109c7565b6102546102c4366004613543565b610c78565b61021c610d2a565b6102546102df366004613420565b610df3565b60975460ff166101f4565b610254610f09565b610254610305366004613420565b610fcf565b6101c65461031e906001600160a01b031681565b60405161020091906135ff565b610254610339366004613390565b61109e565b61021c611168565b610254610354366004613420565b6111a4565b6102546101c35481565b61021c6111cd565b6101f4610379366004613438565b611201565b61021c61038c366004613420565b61122c565b61021c611525565b610254600081565b6102546101c55481565b6102546103b9366004613420565b61176e565b6101f4611a25565b61021c611a3f565b61021c6103dc366004613438565b611ad4565b6102546103ef366004613390565b6101c86020526000908152604090205481565b61021c610410366004613420565b611af9565b610254600080516020613b6983398151915281565b610254600080516020613b8983398151915281565b6102546101c45481565b6102546101c75481565b60006001600160e01b03198216637965db0b60e01b148061048457506301ffc9a760e01b6001600160e01b03198316145b92915050565b610492611c42565b61049a611c88565b6104a381611ce2565b6104c85760405162461bcd60e51b81526004016104bf90613755565b60405180910390fd5b6101c754156104d9576104d9611d76565b6101c6546000906104f2906001600160a01b0316611e16565b6040516001623ad88160e11b031981523060048201526001600160a01b03848116602483015291925060009183169063ff8a4efe9060440160206040518083038186803b15801561054257600080fd5b505afa158015610556573d6000803e3d6000fd5b505050506040513d601f19601f8201168201806040525081019061057a9190613508565b9050600081116105d75760405162461bcd60e51b815260206004820152602260248201527f496e766573746d656e7420616d6f756e74206d75737420626520706f73697469604482015261766560f01b60648201526084016104bf565b6105e18382611e21565b604051631c57762b60e31b815260016004820152602481018290526001600160a01b0384169063e2bbb15890604401602060405180830381600087803b15801561062a57600080fd5b505af115801561063e573d6000803e3d6000fd5b505050506040513d601f19601f820116820180604052508101906106629190613508565b50826001600160a01b03167f86da25fff7a4075a94de2ffed109ca6748c3af22736eaf7efc75e3988f899d6e8260405161069e91815260200190565b60405180910390a26101c4546106b49082611edd565b6101c4555050600160c95550565b50565b600054610100900460ff166106ec5760405162461bcd60e51b81526004016104bf90613806565b6001600160a01b0381166107425760405162461bcd60e51b815260206004820181905260248201527f4f776e65722063616e6e6f7420626520746865207a65726f206164647265737360448201526064016104bf565b61074a611ef0565b610752611f17565b61075a611f4a565b610772600080516020613b6983398151915282611f71565b61078a600080516020613b8983398151915282611f71565b6107b0600080516020613b89833981519152600080516020613b69833981519152611f7b565b6106c2600080516020613b6983398151915280611f7b565b60006107d2611c42565b6107da611c88565b6101c6546107f0906001600160a01b0316611fc6565b6001600160a01b031663a37b92c9336040518263ffffffff1660e01b815260040161081b91906135ff565b60206040518083038186803b15801561083357600080fd5b505afa158015610847573d6000803e3d6000fd5b505050506040513d601f19601f8201168201806040525081019061086b9190613400565b6108875760405162461bcd60e51b81526004016104bf9061365f565b600082116108a75760405162461bcd60e51b81526004016104bf906137cf565b6101c754156108b8576108b8611d76565b60006108c3836111a4565b90506108cf8382611fd1565b9150506108dc600160c955565b919050565b6000828152606560205260409020600101546108fc8161221c565b6109068383612226565b505050565b6001600160a01b038116331461097b5760405162461bcd60e51b815260206004820152602f60248201527f416363657373436f6e74726f6c3a2063616e206f6e6c792072656e6f756e636560448201526e103937b632b9903337b91039b2b63360891b60648201526084016104bf565b61098582826122ac565b5050565b6109a1600080516020613b8983398151915233611201565b6109bd5760405162461bcd60e51b81526004016104bf90613709565b6109c5612313565b565b600054610100900460ff16158080156109e75750600054600160ff909116105b80610a015750303b158015610a01575060005460ff166001145b610a1d5760405162461bcd60e51b81526004016104bf90613781565b6000805460ff191660011790558015610a40576000805461ff0019166101001790555b6001600160a01b03831615801590610a6057506001600160a01b03821615155b610abf5760405162461bcd60e51b815260206004820152602a60248201527f4f776e657220616e6420636f6e666967206164647265737365732063616e6e6f6044820152697420626520656d70747960b01b60648201526084016104bf565b610ac8836106c5565b6101c680546001600160a01b0319166001600160a01b038416179055610aec61235f565b6101c35560006101c48190556101c58190556101c654610b14906001600160a01b031661236d565b9050806001600160a01b03166318160ddd6040518163ffffffff1660e01b815260040160206040518083038186803b158015610b4f57600080fd5b505afa158015610b63573d6000803e3d6000fd5b505050506040513d601f19601f82011682018060405250810190610b879190613508565b5060405163095ea7b360e01b81526000906001600160a01b0383169063095ea7b390610bbb90309060001990600401613613565b602060405180830381600087803b158015610bd557600080fd5b505af1158015610be9573d6000803e3d6000fd5b505050506040513d601f19601f82011682018060405250810190610c0d9190613400565b905080610c2c5760405162461bcd60e51b81526004016104bf906136d9565b50508015610906576000805461ff0019169055604051600181527f7f26b83ff96e1f2b6a682f133852f6798a09c465da95921460cefb38474024989060200160405180910390a1505050565b6101c654600090610c91906001600160a01b0316612374565b60405163d505accf60e01b8152336004820152306024820152604481018890526064810187905260ff8616608482015260a4810185905260c481018490526001600160a01b03919091169063d505accf9060e401600060405180830381600087803b158015610cff57600080fd5b505af1158015610d13573d6000803e3d6000fd5b50505050610d208661176e565b9695505050505050565b600054610100900460ff1615808015610d4a5750600054600160ff909116105b80610d645750303b158015610d64575060005460ff166001145b610d805760405162461bcd60e51b81526004016104bf90613781565b6000805460ff191660011790558015610da3576000805461ff0019166101001790555b610dab611f17565b80156106c2576000805461ff0019169055604051600181527f7f26b83ff96e1f2b6a682f133852f6798a09c465da95921460cefb38474024989060200160405180910390a150565b6000610dfd611c42565b610e05611c88565b6101c654610e1b906001600160a01b0316611fc6565b6001600160a01b031663a37b92c9336040518263ffffffff1660e01b8152600401610e4691906135ff565b60206040518083038186803b158015610e5e57600080fd5b505afa158015610e72573d6000803e3d6000fd5b505050506040513d601f19601f82011682018060405250810190610e969190613400565b610eb25760405162461bcd60e51b81526004016104bf9061365f565b60008211610ed25760405162461bcd60e51b81526004016104bf906137cf565b6101c75415610ee357610ee3611d76565b6000610eee836123f6565b905082610efb8282611fd1565b925050506108dc600160c955565b6101c5546101c4546101c654600092610fca929091610fc49190610fbe90610f39906001600160a01b031661236d565b6001600160a01b03166370a08231306040518263ffffffff1660e01b8152600401610f6491906135ff565b60206040518083038186803b158015610f7c57600080fd5b505afa158015610f90573d6000803e3d6000fd5b505050506040513d601f19601f82011682018060405250810190610fb49190613508565b6101c75490611edd565b90611edd565b9061241a565b905090565b6101c6546000908190610fea906001600160a01b0316612426565b6001600160a01b0316638c7a63ae846040518263ffffffff1660e01b815260040161101791815260200190565b60a06040518083038186803b15801561102f57600080fd5b505afa158015611043573d6000803e3d6000fd5b505050506040513d601f19601f820116820180604052508101906110679190613484565b8051606082015160408301519293509091600091611085919061241a565b905060006110938383612431565b979650505050505050565b60006110a982611ce2565b6110c55760405162461bcd60e51b81526004016104bf90613755565b6101c6546000906110de906001600160a01b0316611e16565b604051631f999a2d60e01b81523060048201526001600160a01b03858116602483015291925090821690631f999a2d9060440160206040518083038186803b15801561112957600080fd5b505afa15801561113d573d6000803e3d6000fd5b505050506040513d601f19601f820116820180604052508101906111619190613508565b9392505050565b611180600080516020613b8983398151915233611201565b61119c5760405162461bcd60e51b81526004016104bf90613709565b6109c5612588565b60006104846101c3546111c76111b861235f565b6111c1866125c5565b906125e0565b906125ec565b6111d5611a25565b6111f15760405162461bcd60e51b81526004016104bf90613894565b6111f9611c42565b6109c5611d76565b60009182526065602090815260408084206001600160a01b0393909316845291905290205460ff1690565b611234611c42565b61123c611c88565b6101c654600090611255906001600160a01b0316612426565b6040516331a9108f60e11b8152600481018490529091506001600160a01b03821690636352211e9060240160206040518083038186803b15801561129857600080fd5b505afa1580156112ac573d6000803e3d6000fd5b505050506040513d601f19601f820116820180604052508101906112d091906133ac565b6001600160a01b0316306001600160a01b0316146113515760405162461bcd60e51b815260206004820152603860248201527f4f6e6c7920746f6b656e73206f776e6564206279207468652073656e696f72206044820152773837b7b61031b0b7103132903bb934ba3a32b7103237bbb760411b60648201526084016104bf565b60405163463d31d760e11b8152600481018390526000906001600160a01b03831690638c7a63ae9060240160a06040518083038186803b15801561139457600080fd5b505afa1580156113a8573d6000803e3d6000fd5b505050506040513d601f19601f820116820180604052508101906113cc9190613484565b80519091506113da81611ce2565b6113f65760405162461bcd60e51b81526004016104bf90613755565b60006114138360600151846040015161241a90919063ffffffff16565b90506000806114228484612431565b6001600160a01b03861660009081526101c8602052604090205491935091508215801561144d575080155b1561145e575050505050505061151b565b600061146a8383613aa4565b6001600160a01b03871660009081526101c8602052604090208490559050611491816125f8565b60008113156114b1576101c5546114a8908261241a565b6101c5556114cf565b6114ca6114c082600019613a02565b6101c55490611edd565b6101c5555b856001600160a01b03167f176e189790e519c3382df7234bd391cc24005bf9cfaaa9de00103c208e10a2748260405161150a91815260200190565b60405180910390a250505050505050505b6106c2600160c955565b61152d611a25565b6115495760405162461bcd60e51b81526004016104bf90613894565b611551611c42565b6101c65460009061156a906001600160a01b031661236d565b90506000816001600160a01b03166370a08231306040518263ffffffff1660e01b815260040161159a91906135ff565b60206040518083038186803b1580156115b257600080fd5b505afa1580156115c6573d6000803e3d6000fd5b505050506040513d601f19601f820116820180604052508101906115ea9190613508565b6101c654909150600090611606906001600160a01b031661264c565b90506000836001600160a01b031663095ea7b383856040518363ffffffff1660e01b8152600401611638929190613613565b602060405180830381600087803b15801561165257600080fd5b505af1158015611666573d6000803e3d6000fd5b505050506040513d601f19601f8201168201806040525081019061168a9190613400565b9050806116a95760405162461bcd60e51b81526004016104bf90613851565b6116b38284612657565b6101c6546116c9906001600160a01b031661236d565b6001600160a01b031663095ea7b38360006040518363ffffffff1660e01b81526004016116f7929190613613565b602060405180830381600087803b15801561171157600080fd5b505af1158015611725573d6000803e3d6000fd5b505050506040513d601f19601f820116820180604052508101906117499190613400565b9050806117685760405162461bcd60e51b81526004016104bf90613851565b50505050565b6000611778611c42565b611780611c88565b6101c654611796906001600160a01b0316611fc6565b6001600160a01b031663a37b92c9336040518263ffffffff1660e01b81526004016117c191906135ff565b60206040518083038186803b1580156117d957600080fd5b505afa1580156117ed573d6000803e3d6000fd5b505050506040513d601f19601f820116820180604052508101906118119190613400565b61182d5760405162461bcd60e51b81526004016104bf9061365f565b6000821161187d5760405162461bcd60e51b815260206004820152601b60248201527f4d757374206465706f736974206d6f7265207468616e207a65726f000000000060448201526064016104bf565b611886826111a4565b9050600061189682610fbe6127b2565b90506118a18161283b565b61190d5760405162461bcd60e51b815260206004820152603760248201527f4465706f73697420776f756c6420707574207468652073656e696f7220706f6f604482015276361037bb32b9103a3432903a37ba30b6103634b6b4ba1760491b60648201526084016104bf565b604080518481526020810184905233917f0b05f0d1cd0819f155b8a61f60baf7767c1ee49d04aeaab701df236140eb93f9910160405180910390a260006119553330866128d7565b9050806119a45760405162461bcd60e51b815260206004820152601e60248201527f4661696c656420746f207472616e7366657220666f72206465706f736974000060448201526064016104bf565b6101c6546119ba906001600160a01b03166129df565b6001600160a01b031663449a52f833856040518363ffffffff1660e01b81526004016119e7929190613613565b600060405180830381600087803b158015611a0157600080fd5b505af1158015611a15573d6000803e3d6000fd5b5050505050506108dc600160c955565b6000610fca600080516020613b6983398151915233611201565b611a47611a25565b611a635760405162461bcd60e51b81526004016104bf90613894565b6101c654611a79906001600160a01b03166129ea565b6101c680546001600160a01b0319166001600160a01b0392909216918217905560405133917f8d003bc2e3965bd9d92389a8ae0ef8c601fa211ba9378150dde7dc3cf38c3a3691611aca91906135ff565b60405180910390a2565b600082815260656020526040902060010154611aef8161221c565b61090683836122ac565b611b01611c42565b611b09611c88565b6101c654600090611b22906001600160a01b0316612426565b60405163463d31d760e11b8152600481018490529091506000906001600160a01b03831690638c7a63ae9060240160a06040518083038186803b158015611b6857600080fd5b505afa158015611b7c573d6000803e3d6000fd5b505050506040513d601f19601f82011682018060405250810190611ba09190613484565b8051604051632a8a9f1360e21b8152600481018690529192509060009081906001600160a01b0384169063aa2a7c4c906024016040805180830381600087803b158015611bec57600080fd5b505af1158015611c00573d6000803e3d6000fd5b505050506040513d601f19601f82011682018060405250810190611c249190613520565b91509150611c33838383612a02565b50505050506106c2600160c955565b60975460ff16156109c55760405162461bcd60e51b815260206004820152601060248201526f14185d5cd8589b194e881c185d5cd95960821b60448201526064016104bf565b600260c9541415611cdb5760405162461bcd60e51b815260206004820152601f60248201527f5265656e7472616e637947756172643a207265656e7472616e742063616c6c0060448201526064016104bf565b600260c955565b6101c654600090611cfb906001600160a01b0316612426565b6001600160a01b031663b5ada6d8836040518263ffffffff1660e01b8152600401611d2691906135ff565b60206040518083038186803b158015611d3e57600080fd5b505afa158015611d52573d6000803e3d6000fd5b505050506040513d601f19601f820116820180604052508101906104849190613400565b6101c654600090611d8f906001600160a01b031661264c565b90506106c281826001600160a01b03166370a08231306040518263ffffffff1660e01b8152600401611dc191906135ff565b60206040518083038186803b158015611dd957600080fd5b505afa158015611ded573d6000803e3d6000fd5b505050506040513d601f19601f82011682018060405250810190611e119190613508565b612acd565b600061048482612e66565b6101c654600090611e3a906001600160a01b031661236d565b90506000816001600160a01b031663095ea7b385856040518363ffffffff1660e01b8152600401611e6c929190613613565b602060405180830381600087803b158015611e8657600080fd5b505af1158015611e9a573d6000803e3d6000fd5b505050506040513d601f19601f82011682018060405250810190611ebe9190613400565b9050806117685760405162461bcd60e51b81526004016104bf906136d9565b600061116182846138df565b600160c955565b600054610100900460ff166109c55760405162461bcd60e51b81526004016104bf90613806565b600054610100900460ff16611f3e5760405162461bcd60e51b81526004016104bf90613806565b6097805460ff19169055565b600054610100900460ff16611ee95760405162461bcd60e51b81526004016104bf90613806565b6109858282612226565b600082815260656020526040808220600101805490849055905190918391839186917fbd79b86ffe0ab8e8776151514217cd7cacd52c909f66475c3af44e129f0b00ff9190a4505050565b600061048482612e7e565b6101c6546000908190611fec906001600160a01b03166129df565b90506000816001600160a01b03166370a08231336040518263ffffffff1660e01b815260040161201c91906135ff565b60206040518083038186803b15801561203457600080fd5b505afa158015612048573d6000803e3d6000fd5b505050506040513d601f19601f8201168201806040525081019061206c9190613508565b9050808411156120de5760405162461bcd60e51b815260206004820152603760248201527f416d6f756e74207265717565737465642069732067726561746572207468616e604482015276207768617420746869732061646472657373206f776e7360481b60648201526084016104bf565b6101c654600090612102906120fb906001600160a01b0316612e96565b87906125ec565b905061210e868261241a565b604080518281526020810184905291955033917f2d4d49c3e017b8235c908cbaa83a2431a08f3b950712696ece2088964fd399f0910160405180910390a260006121593033876128d7565b9050806121a85760405162461bcd60e51b815260206004820152601f60248201527f4661696c656420746f207472616e7366657220666f722077697468647261770060448201526064016104bf565b6121b28233612f18565b60405163079cc67960e41b81526001600160a01b038516906379cc6790906121e09033908a90600401613613565b600060405180830381600087803b1580156121fa57600080fd5b505af115801561220e573d6000803e3d6000fd5b505050505050505092915050565b6106c28133612fdb565b6122308282611201565b6109855760008281526065602090815260408083206001600160a01b03851684529091529020805460ff191660011790556122683390565b6001600160a01b0316816001600160a01b0316837f2f8788117e7eff1d82e926ec794901d17c78024a50270940304540a733656f0d60405160405180910390a45050565b6122b68282611201565b156109855760008281526065602090815260408083206001600160a01b0385168085529252808320805460ff1916905551339285917ff6391f5c32d9c69d2a47ea670b442974b53935d1edc7fd64eb21e047a839171b9190a45050565b61231b613034565b6097805460ff191690557f5db9ee0a495bf2e6ff9c91a7834c1ba4fdd244a5e8aa4e537bd38aeae4b073aa335b60405161235591906135ff565b60405180910390a1565b6000610fca6012600a61395a565b6000610484825b60006001600160a01b03821663b93f9b0a60055b6040518263ffffffff1660e01b81526004016123a691815260200190565b60206040518083038186803b1580156123be57600080fd5b505afa1580156123d2573d6000803e3d6000fd5b505050506040513d601f19601f8201168201806040525081019061048491906133ac565b600061048461241561240661235f565b6101c3546111c79086906125e0565b61307d565b60006111618284613ae3565b600061048482613095565b600080736411227B41DAa555AB88b546F0F7B218cCA4dD2F6397aec1ab856001600160a01b03166347195e136040518163ffffffff1660e01b815260040160206040518083038186803b15801561248757600080fd5b505afa15801561249b573d6000803e3d6000fd5b505050506040513d601f19601f820116820180604052508101906124bf91906133ac565b85426101c6546124d7906001600160a01b03166130ad565b6101c6546124ed906001600160a01b03166130c5565b6040516001600160e01b031960e088901b1681526001600160a01b039095166004860152602485019390935260448401919091526064830152608482015260a401604080518083038186803b15801561254557600080fd5b505af4158015612559573d6000803e3d6000fd5b505050506040513d601f19601f8201168201806040525081019061257d9190613520565b915091509250929050565b612590611c42565b6097805460ff191660011790557f62e78cea01bee320cd4e420270b5ea74000d11b0c9f74754ebdbfc544b05a2586123483390565b60006104846125d26130dd565b6111c76125dd61235f565b85905b60006111618284613a85565b600061116182846138f7565b600081131561262557600061260c826130eb565b6101c35490915061261d9082611edd565b6101c3555050565b600061263b61263683600019613a02565b6130eb565b6101c35490915061261d908261241a565b600061048482613103565b6101c754156126c55760405162461bcd60e51b815260206004820152603460248201527f43616e6e6f74207377656570207768656e20776520616c72656164792068617660448201527365206120636f6d706f756e642062616c616e636560601b60648201526084016104bf565b806126e25760405162461bcd60e51b81526004016104bf906136a2565b60405163140e25ad60e31b8152600481018290526000906001600160a01b0384169063a0712d6890602401602060405180830381600087803b15801561272757600080fd5b505af115801561273b573d6000803e3d6000fd5b505050506040513d601f19601f8201168201806040525081019061275f9190613508565b905080156127aa5760405162461bcd60e51b815260206004820152601860248201527714ddd9595c081d1bc818dbdb5c1bdd5b990819985a5b195960421b60448201526064016104bf565b506101c75550565b6101c6546000906127cb906001600160a01b03166129df565b6001600160a01b03166318160ddd6040518163ffffffff1660e01b815260040160206040518083038186803b15801561280357600080fd5b505afa158015612817573d6000803e3d6000fd5b505050506040513d601f19601f82011682018060405250810190610fca9190613508565b6101c654604051631f8ac6cb60e31b8152600160048201526000916128c4916001600160a01b039091169063fc5636589060240160206040518083038186803b15801561288757600080fd5b505afa15801561289b573d6000803e3d6000fd5b505050506040513d601f19601f820116820180604052508101906128bf9190613508565b6125c5565b6128cf61240661235f565b111592915050565b60006001600160a01b03831661292f5760405162461bcd60e51b815260206004820152601a60248201527f43616e27742073656e6420746f207a65726f206164647265737300000000000060448201526064016104bf565b6101c654600090612948906001600160a01b031661236d565b6040516323b872dd60e01b81526001600160a01b038781166004830152868116602483015260448201869052919250908216906323b872dd90606401602060405180830381600087803b15801561299e57600080fd5b505af11580156129b2573d6000803e3d6000fd5b505050506040513d601f19601f820116820180604052508101906129d69190613400565b95945050505050565b60006104848261311b565b60006001600160a01b03821663b93f9b0a600b612388565b6000612a0d836130eb565b6101c354909150612a1e9082611edd565b6101c3558215612a6c57836001600160a01b03167fed3bc1b58411ea8e764b3ef8fa6b654877bc1e796a5a1a2373dfc8f1c0e0ea4884604051612a6391815260200190565b60405180910390a25b811561176857836001600160a01b03167f8295ad220549851bab232c2a7ae2e3c53a63d2294602bc85f8d8af108778a37e83604051612aad91815260200190565b60405180910390a26101c454612ac3908361241a565b6101c45550505050565b6101c75480612b155760405162461bcd60e51b8152602060048201526014602482015273139bc8199d5b991cc81bdb8818dbdb5c1bdd5b9960621b60448201526064016104bf565b81612b325760405162461bcd60e51b81526004016104bf906136a2565b6101c654600090612b4b906001600160a01b031661236d565b90506000816001600160a01b03166370a08231306040518263ffffffff1660e01b8152600401612b7b91906135ff565b60206040518083038186803b158015612b9357600080fd5b505afa158015612ba7573d6000803e3d6000fd5b505050506040513d601f19601f82011682018060405250810190612bcb9190613508565b90506000856001600160a01b031663bd6d894d6040518163ffffffff1660e01b8152600401602060405180830381600087803b158015612c0a57600080fd5b505af1158015612c1e573d6000803e3d6000fd5b505050506040513d601f19601f82011682018060405250810190612c429190613508565b90506000612c508287613133565b60405163db006a7560e01b8152600481018890529091506000906001600160a01b0389169063db006a7590602401602060405180830381600087803b158015612c9857600080fd5b505af1158015612cac573d6000803e3d6000fd5b505050506040513d601f19601f82011682018060405250810190612cd09190613508565b90506000856001600160a01b03166370a08231306040518263ffffffff1660e01b8152600401612d0091906135ff565b60206040518083038186803b158015612d1857600080fd5b505afa158015612d2c573d6000803e3d6000fd5b505050506040513d601f19601f82011682018060405250810190612d509190613508565b90508115612da05760405162461bcd60e51b815260206004820152601a60248201527f53776565702066726f6d20636f6d706f756e64206661696c656400000000000060448201526064016104bf565b82612dab828761241a565b14612df35760405162461bcd60e51b8152602060048201526018602482015277155b995e1c1958dd1959081c995919595b48185b5bdd5b9d60421b60448201526064016104bf565b6000612dff848961241a565b6101c654909150600090612e2690612e1f906001600160a01b031661316c565b83906125ec565b90506000612e34838361241a565b9050612e4230826000612a02565b8115612e5257612e52828d612f18565b505060006101c75550505050505050505050565b60006001600160a01b03821663b93f9b0a600f612388565b60006001600160a01b03821663b93f9b0a6013612388565b60006001600160a01b03821663fc56365860045b6040518263ffffffff1660e01b8152600401612ec891815260200190565b60206040518083038186803b158015612ee057600080fd5b505afa158015612ef4573d6000803e3d6000fd5b505050506040513d601f19601f820116820180604052508101906104849190613508565b806001600160a01b03167ff3583f178a8d4f8888c3683f8e948faf9b6eb701c4f1fab265a6ecad1a1ddebb83604051612f5391815260200190565b60405180910390a26101c654600090612f80903090612f7a906001600160a01b0316613184565b856128d7565b9050806109065760405162461bcd60e51b815260206004820152602360248201527f52657365727665207472616e7366657220776173206e6f742073756363657373604482015262199d5b60ea1b60648201526084016104bf565b612fe58282611201565b61098557612ff28161319c565b612ffd8360206131ae565b60405160200161300e929190613590565b60408051601f198184030181529082905262461bcd60e51b82526104bf9160040161362c565b60975460ff166109c55760405162461bcd60e51b815260206004820152601460248201527314185d5cd8589b194e881b9bdd081c185d5cd95960621b60448201526064016104bf565b6000610484612e1f61308d6130dd565b6111c761235f565b60006001600160a01b03821663b93f9b0a600c612388565b60006001600160a01b03821663fc5636586005612eaa565b60006001600160a01b03821663fc5636586006612eaa565b6000610fca6006600a61395a565b60006104846130f86127b2565b6111c76111b861235f565b60006001600160a01b03821663b93f9b0a600a612388565b60006001600160a01b03821663b93f9b0a6004612388565b6000600660086129d660646111c78361314d8660126138df565b6131579190613ae3565b61316290600a61395a565b6111c7888a6125e0565b60006001600160a01b03821663fc5636586003612eaa565b60006001600160a01b03821663b93f9b0a6006612388565b60606104846001600160a01b03831660145b606060006131bd836002613a85565b6131c89060026138df565b67ffffffffffffffff8111156131ee57634e487b7160e01b600052604160045260246000fd5b6040519080825280601f01601f191660200182016040528015613218576020820181803683370190505b509050600360fc1b8160008151811061324157634e487b7160e01b600052603260045260246000fd5b60200101906001600160f81b031916908160001a905350600f60fb1b8160018151811061327e57634e487b7160e01b600052603260045260246000fd5b60200101906001600160f81b031916908160001a90535060006132a2846002613a85565b6132ad9060016138df565b90505b6001811115613341576f181899199a1a9b1b9c1cb0b131b232b360811b85600f16601081106132ef57634e487b7160e01b600052603260045260246000fd5b1a60f81b82828151811061331357634e487b7160e01b600052603260045260246000fd5b60200101906001600160f81b031916908160001a90535060049490941c9361333a81613b26565b90506132b0565b5083156111615760405162461bcd60e51b815260206004820181905260248201527f537472696e67733a20686578206c656e67746820696e73756666696369656e7460448201526064016104bf565b6000602082840312156133a1578081fd5b813561116181613b53565b6000602082840312156133bd578081fd5b815161116181613b53565b600080604083850312156133da578081fd5b82356133e581613b53565b915060208301356133f581613b53565b809150509250929050565b600060208284031215613411578081fd5b81518015158114611161578182fd5b600060208284031215613431578081fd5b5035919050565b6000806040838503121561344a578182fd5b8235915060208301356133f581613b53565b60006020828403121561346d578081fd5b81356001600160e01b031981168114611161578182fd5b600060a08284031215613495578081fd5b60405160a0810181811067ffffffffffffffff821117156134c457634e487b7160e01b83526041600452602483fd5b60405282516134d281613b53565b80825250602083015160208201526040830151604082015260608301516060820152608083015160808201528091505092915050565b600060208284031215613519578081fd5b5051919050565b60008060408385031215613532578182fd5b505080516020909101519092909150565b600080600080600060a0868803121561355a578081fd5b8535945060208601359350604086013560ff81168114613578578182fd5b94979396509394606081013594506080013592915050565b76020b1b1b2b9b9a1b7b73a3937b61d1030b1b1b7bab73a1604d1b8152600083516135c2816017850160208801613afa565b7001034b99036b4b9b9b4b733903937b6329607d1b60179184019182015283516135f3816028840160208801613afa565b01602801949350505050565b6001600160a01b0391909116815260200190565b6001600160a01b03929092168252602082015260400190565b602081526000825180602084015261364b816040850160208701613afa565b601f01601f19169190910160400192915050565b60208082526023908201527f54686973206164647265737320686173206e6f74206265656e20676f2d6c69736040820152621d195960ea1b606082015260800190565b6020808252601e908201527f416d6f756e7420746f2073776565702063616e6e6f74206265207a65726f0000604082015260600190565b6020808252601690820152754661696c656420746f20617070726f7665205553444360501b604082015260600190565b6020808252602c908201527f4d75737420686176652070617573657220726f6c6520746f20706572666f726d60408201526b103a3434b99030b1ba34b7b760a11b606082015260800190565b602080825260129082015271141bdbdb081b5d5cdd081899481d985b1a5960721b604082015260600190565b6020808252602e908201527f496e697469616c697a61626c653a20636f6e747261637420697320616c72656160408201526d191e481a5b9a5d1a585b1a5e995960921b606082015260800190565b6020808252601c908201527f4d757374207769746864726177206d6f7265207468616e207a65726f00000000604082015260600190565b6020808252602b908201527f496e697469616c697a61626c653a20636f6e7472616374206973206e6f74206960408201526a6e697469616c697a696e6760a81b606082015260800190565b60208082526023908201527f4661696c656420746f20617070726f7665205553444320666f7220636f6d706f6040820152621d5b9960ea1b606082015260800190565b6020808252602b908201527f4d75737420686176652061646d696e20726f6c6520746f20706572666f726d2060408201526a3a3434b99030b1ba34b7b760a91b606082015260800190565b600082198211156138f2576138f2613b3d565b500190565b60008261391257634e487b7160e01b81526012600452602481fd5b500490565b600181815b8085111561395257816000190482111561393857613938613b3d565b8085161561394557918102915b93841c939080029061391c565b509250929050565b6000611161838360008261397057506001610484565b8161397d57506000610484565b8160018114613993576002811461399d576139b9565b6001915050610484565b60ff8411156139ae576139ae613b3d565b50506001821b610484565b5060208310610133831016604e8410600b84101617156139dc575081810a610484565b6139e68383613917565b80600019048211156139fa576139fa613b3d565b029392505050565b60006001600160ff1b0381841382841380821686840486111615613a2857613a28613b3d565b600160ff1b84871282811687830589121615613a4657613a46613b3d565b858712925087820587128484161615613a6157613a61613b3d565b87850587128184161615613a7757613a77613b3d565b505050929093029392505050565b6000816000190483118215151615613a9f57613a9f613b3d565b500290565b60008083128015600160ff1b850184121615613ac257613ac2613b3d565b6001600160ff1b0384018313811615613add57613add613b3d565b50500390565b600082821015613af557613af5613b3d565b500390565b60005b83811015613b15578181015183820152602001613afd565b838111156117685750506000910152565b600081613b3557613b35613b3d565b506000190190565b634e487b7160e01b600052601160045260246000fd5b6001600160a01b03811681146106c257600080fdfeb19546dff01e856fb3f010c267a7b1c60363cf8a4664e21cc89c26224620214e65d7a28e3265b37a6474929f336521b332c1681b933f6cb9f3376673440d862aa26469706673582212205169f50882b401f85c64533175f0948670ab05278db7331aafd52e3d1c60582564736f6c63430008040033",
  "deployedBytecode": "0x608060405234801561001057600080fd5b50600436106101dc5760003560e01c8063855cb21b11610105578063b6db75a01161009d578063b6db75a0146103be578063d30a0911146103c6578063d547741f146103ce578063d78a5c65146103e1578063db006a7514610402578063e58378bb14610415578063e63ab1e91461042a578063ed80c8501461043f578063f1a80e621461044957600080fd5b8063855cb21b1461034657806387269729146103595780638836d9021461036357806391d148541461036b578063945ed49a1461037e5780639e4a88e114610391578063a217fddf14610399578063a6f4487e146103a1578063b6b55f25146103ab57600080fd5b80634a970be7116101785780634a970be7146102b6578063526d81f6146102c957806358031d12146102d15780635c975abb146102e457806371a97305146102ef578063722eeec3146102f757806379502c551461030a5780637e30cdff1461032b5780638456cb591461033e57600080fd5b806301ffc9a7146101e157806303f9c79314610209578063097616a31461021e578063248a9ca3146102315780632e1a7d4d146102625780632f2ff15d1461027557806336568abe146102885780633f4ba83a1461029b578063485cc955146102a3575b600080fd5b6101f46101ef36600461345c565b610453565b60405190151581526020015b60405180910390f35b61021c610217366004613390565b61048a565b005b61021c61022c366004613390565b6106c5565b61025461023f366004613420565b60009081526065602052604090206001015490565b604051908152602001610200565b610254610270366004613420565b6107c8565b61021c610283366004613438565b6108e1565b61021c610296366004613438565b61090b565b61021c610989565b61021c6102b13660046133c8565b6109c7565b6102546102c4366004613543565b610c78565b61021c610d2a565b6102546102df366004613420565b610df3565b60975460ff166101f4565b610254610f09565b610254610305366004613420565b610fcf565b6101c65461031e906001600160a01b031681565b60405161020091906135ff565b610254610339366004613390565b61109e565b61021c611168565b610254610354366004613420565b6111a4565b6102546101c35481565b61021c6111cd565b6101f4610379366004613438565b611201565b61021c61038c366004613420565b61122c565b61021c611525565b610254600081565b6102546101c55481565b6102546103b9366004613420565b61176e565b6101f4611a25565b61021c611a3f565b61021c6103dc366004613438565b611ad4565b6102546103ef366004613390565b6101c86020526000908152604090205481565b61021c610410366004613420565b611af9565b610254600080516020613b6983398151915281565b610254600080516020613b8983398151915281565b6102546101c45481565b6102546101c75481565b60006001600160e01b03198216637965db0b60e01b148061048457506301ffc9a760e01b6001600160e01b03198316145b92915050565b610492611c42565b61049a611c88565b6104a381611ce2565b6104c85760405162461bcd60e51b81526004016104bf90613755565b60405180910390fd5b6101c754156104d9576104d9611d76565b6101c6546000906104f2906001600160a01b0316611e16565b6040516001623ad88160e11b031981523060048201526001600160a01b03848116602483015291925060009183169063ff8a4efe9060440160206040518083038186803b15801561054257600080fd5b505afa158015610556573d6000803e3d6000fd5b505050506040513d601f19601f8201168201806040525081019061057a9190613508565b9050600081116105d75760405162461bcd60e51b815260206004820152602260248201527f496e766573746d656e7420616d6f756e74206d75737420626520706f73697469604482015261766560f01b60648201526084016104bf565b6105e18382611e21565b604051631c57762b60e31b815260016004820152602481018290526001600160a01b0384169063e2bbb15890604401602060405180830381600087803b15801561062a57600080fd5b505af115801561063e573d6000803e3d6000fd5b505050506040513d601f19601f820116820180604052508101906106629190613508565b50826001600160a01b03167f86da25fff7a4075a94de2ffed109ca6748c3af22736eaf7efc75e3988f899d6e8260405161069e91815260200190565b60405180910390a26101c4546106b49082611edd565b6101c4555050600160c95550565b50565b600054610100900460ff166106ec5760405162461bcd60e51b81526004016104bf90613806565b6001600160a01b0381166107425760405162461bcd60e51b815260206004820181905260248201527f4f776e65722063616e6e6f7420626520746865207a65726f206164647265737360448201526064016104bf565b61074a611ef0565b610752611f17565b61075a611f4a565b610772600080516020613b6983398151915282611f71565b61078a600080516020613b8983398151915282611f71565b6107b0600080516020613b89833981519152600080516020613b69833981519152611f7b565b6106c2600080516020613b6983398151915280611f7b565b60006107d2611c42565b6107da611c88565b6101c6546107f0906001600160a01b0316611fc6565b6001600160a01b031663a37b92c9336040518263ffffffff1660e01b815260040161081b91906135ff565b60206040518083038186803b15801561083357600080fd5b505afa158015610847573d6000803e3d6000fd5b505050506040513d601f19601f8201168201806040525081019061086b9190613400565b6108875760405162461bcd60e51b81526004016104bf9061365f565b600082116108a75760405162461bcd60e51b81526004016104bf906137cf565b6101c754156108b8576108b8611d76565b60006108c3836111a4565b90506108cf8382611fd1565b9150506108dc600160c955565b919050565b6000828152606560205260409020600101546108fc8161221c565b6109068383612226565b505050565b6001600160a01b038116331461097b5760405162461bcd60e51b815260206004820152602f60248201527f416363657373436f6e74726f6c3a2063616e206f6e6c792072656e6f756e636560448201526e103937b632b9903337b91039b2b63360891b60648201526084016104bf565b61098582826122ac565b5050565b6109a1600080516020613b8983398151915233611201565b6109bd5760405162461bcd60e51b81526004016104bf90613709565b6109c5612313565b565b600054610100900460ff16158080156109e75750600054600160ff909116105b80610a015750303b158015610a01575060005460ff166001145b610a1d5760405162461bcd60e51b81526004016104bf90613781565b6000805460ff191660011790558015610a40576000805461ff0019166101001790555b6001600160a01b03831615801590610a6057506001600160a01b03821615155b610abf5760405162461bcd60e51b815260206004820152602a60248201527f4f776e657220616e6420636f6e666967206164647265737365732063616e6e6f6044820152697420626520656d70747960b01b60648201526084016104bf565b610ac8836106c5565b6101c680546001600160a01b0319166001600160a01b038416179055610aec61235f565b6101c35560006101c48190556101c58190556101c654610b14906001600160a01b031661236d565b9050806001600160a01b03166318160ddd6040518163ffffffff1660e01b815260040160206040518083038186803b158015610b4f57600080fd5b505afa158015610b63573d6000803e3d6000fd5b505050506040513d601f19601f82011682018060405250810190610b879190613508565b5060405163095ea7b360e01b81526000906001600160a01b0383169063095ea7b390610bbb90309060001990600401613613565b602060405180830381600087803b158015610bd557600080fd5b505af1158015610be9573d6000803e3d6000fd5b505050506040513d601f19601f82011682018060405250810190610c0d9190613400565b905080610c2c5760405162461bcd60e51b81526004016104bf906136d9565b50508015610906576000805461ff0019169055604051600181527f7f26b83ff96e1f2b6a682f133852f6798a09c465da95921460cefb38474024989060200160405180910390a1505050565b6101c654600090610c91906001600160a01b0316612374565b60405163d505accf60e01b8152336004820152306024820152604481018890526064810187905260ff8616608482015260a4810185905260c481018490526001600160a01b03919091169063d505accf9060e401600060405180830381600087803b158015610cff57600080fd5b505af1158015610d13573d6000803e3d6000fd5b50505050610d208661176e565b9695505050505050565b600054610100900460ff1615808015610d4a5750600054600160ff909116105b80610d645750303b158015610d64575060005460ff166001145b610d805760405162461bcd60e51b81526004016104bf90613781565b6000805460ff191660011790558015610da3576000805461ff0019166101001790555b610dab611f17565b80156106c2576000805461ff0019169055604051600181527f7f26b83ff96e1f2b6a682f133852f6798a09c465da95921460cefb38474024989060200160405180910390a150565b6000610dfd611c42565b610e05611c88565b6101c654610e1b906001600160a01b0316611fc6565b6001600160a01b031663a37b92c9336040518263ffffffff1660e01b8152600401610e4691906135ff565b60206040518083038186803b158015610e5e57600080fd5b505afa158015610e72573d6000803e3d6000fd5b505050506040513d601f19601f82011682018060405250810190610e969190613400565b610eb25760405162461bcd60e51b81526004016104bf9061365f565b60008211610ed25760405162461bcd60e51b81526004016104bf906137cf565b6101c75415610ee357610ee3611d76565b6000610eee836123f6565b905082610efb8282611fd1565b925050506108dc600160c955565b6101c5546101c4546101c654600092610fca929091610fc49190610fbe90610f39906001600160a01b031661236d565b6001600160a01b03166370a08231306040518263ffffffff1660e01b8152600401610f6491906135ff565b60206040518083038186803b158015610f7c57600080fd5b505afa158015610f90573d6000803e3d6000fd5b505050506040513d601f19601f82011682018060405250810190610fb49190613508565b6101c75490611edd565b90611edd565b9061241a565b905090565b6101c6546000908190610fea906001600160a01b0316612426565b6001600160a01b0316638c7a63ae846040518263ffffffff1660e01b815260040161101791815260200190565b60a06040518083038186803b15801561102f57600080fd5b505afa158015611043573d6000803e3d6000fd5b505050506040513d601f19601f820116820180604052508101906110679190613484565b8051606082015160408301519293509091600091611085919061241a565b905060006110938383612431565b979650505050505050565b60006110a982611ce2565b6110c55760405162461bcd60e51b81526004016104bf90613755565b6101c6546000906110de906001600160a01b0316611e16565b604051631f999a2d60e01b81523060048201526001600160a01b03858116602483015291925090821690631f999a2d9060440160206040518083038186803b15801561112957600080fd5b505afa15801561113d573d6000803e3d6000fd5b505050506040513d601f19601f820116820180604052508101906111619190613508565b9392505050565b611180600080516020613b8983398151915233611201565b61119c5760405162461bcd60e51b81526004016104bf90613709565b6109c5612588565b60006104846101c3546111c76111b861235f565b6111c1866125c5565b906125e0565b906125ec565b6111d5611a25565b6111f15760405162461bcd60e51b81526004016104bf90613894565b6111f9611c42565b6109c5611d76565b60009182526065602090815260408084206001600160a01b0393909316845291905290205460ff1690565b611234611c42565b61123c611c88565b6101c654600090611255906001600160a01b0316612426565b6040516331a9108f60e11b8152600481018490529091506001600160a01b03821690636352211e9060240160206040518083038186803b15801561129857600080fd5b505afa1580156112ac573d6000803e3d6000fd5b505050506040513d601f19601f820116820180604052508101906112d091906133ac565b6001600160a01b0316306001600160a01b0316146113515760405162461bcd60e51b815260206004820152603860248201527f4f6e6c7920746f6b656e73206f776e6564206279207468652073656e696f72206044820152773837b7b61031b0b7103132903bb934ba3a32b7103237bbb760411b60648201526084016104bf565b60405163463d31d760e11b8152600481018390526000906001600160a01b03831690638c7a63ae9060240160a06040518083038186803b15801561139457600080fd5b505afa1580156113a8573d6000803e3d6000fd5b505050506040513d601f19601f820116820180604052508101906113cc9190613484565b80519091506113da81611ce2565b6113f65760405162461bcd60e51b81526004016104bf90613755565b60006114138360600151846040015161241a90919063ffffffff16565b90506000806114228484612431565b6001600160a01b03861660009081526101c8602052604090205491935091508215801561144d575080155b1561145e575050505050505061151b565b600061146a8383613aa4565b6001600160a01b03871660009081526101c8602052604090208490559050611491816125f8565b60008113156114b1576101c5546114a8908261241a565b6101c5556114cf565b6114ca6114c082600019613a02565b6101c55490611edd565b6101c5555b856001600160a01b03167f176e189790e519c3382df7234bd391cc24005bf9cfaaa9de00103c208e10a2748260405161150a91815260200190565b60405180910390a250505050505050505b6106c2600160c955565b61152d611a25565b6115495760405162461bcd60e51b81526004016104bf90613894565b611551611c42565b6101c65460009061156a906001600160a01b031661236d565b90506000816001600160a01b03166370a08231306040518263ffffffff1660e01b815260040161159a91906135ff565b60206040518083038186803b1580156115b257600080fd5b505afa1580156115c6573d6000803e3d6000fd5b505050506040513d601f19601f820116820180604052508101906115ea9190613508565b6101c654909150600090611606906001600160a01b031661264c565b90506000836001600160a01b031663095ea7b383856040518363ffffffff1660e01b8152600401611638929190613613565b602060405180830381600087803b15801561165257600080fd5b505af1158015611666573d6000803e3d6000fd5b505050506040513d601f19601f8201168201806040525081019061168a9190613400565b9050806116a95760405162461bcd60e51b81526004016104bf90613851565b6116b38284612657565b6101c6546116c9906001600160a01b031661236d565b6001600160a01b031663095ea7b38360006040518363ffffffff1660e01b81526004016116f7929190613613565b602060405180830381600087803b15801561171157600080fd5b505af1158015611725573d6000803e3d6000fd5b505050506040513d601f19601f820116820180604052508101906117499190613400565b9050806117685760405162461bcd60e51b81526004016104bf90613851565b50505050565b6000611778611c42565b611780611c88565b6101c654611796906001600160a01b0316611fc6565b6001600160a01b031663a37b92c9336040518263ffffffff1660e01b81526004016117c191906135ff565b60206040518083038186803b1580156117d957600080fd5b505afa1580156117ed573d6000803e3d6000fd5b505050506040513d601f19601f820116820180604052508101906118119190613400565b61182d5760405162461bcd60e51b81526004016104bf9061365f565b6000821161187d5760405162461bcd60e51b815260206004820152601b60248201527f4d757374206465706f736974206d6f7265207468616e207a65726f000000000060448201526064016104bf565b611886826111a4565b9050600061189682610fbe6127b2565b90506118a18161283b565b61190d5760405162461bcd60e51b815260206004820152603760248201527f4465706f73697420776f756c6420707574207468652073656e696f7220706f6f604482015276361037bb32b9103a3432903a37ba30b6103634b6b4ba1760491b60648201526084016104bf565b604080518481526020810184905233917f0b05f0d1cd0819f155b8a61f60baf7767c1ee49d04aeaab701df236140eb93f9910160405180910390a260006119553330866128d7565b9050806119a45760405162461bcd60e51b815260206004820152601e60248201527f4661696c656420746f207472616e7366657220666f72206465706f736974000060448201526064016104bf565b6101c6546119ba906001600160a01b03166129df565b6001600160a01b031663449a52f833856040518363ffffffff1660e01b81526004016119e7929190613613565b600060405180830381600087803b158015611a0157600080fd5b505af1158015611a15573d6000803e3d6000fd5b5050505050506108dc600160c955565b6000610fca600080516020613b6983398151915233611201565b611a47611a25565b611a635760405162461bcd60e51b81526004016104bf90613894565b6101c654611a79906001600160a01b03166129ea565b6101c680546001600160a01b0319166001600160a01b0392909216918217905560405133917f8d003bc2e3965bd9d92389a8ae0ef8c601fa211ba9378150dde7dc3cf38c3a3691611aca91906135ff565b60405180910390a2565b600082815260656020526040902060010154611aef8161221c565b61090683836122ac565b611b01611c42565b611b09611c88565b6101c654600090611b22906001600160a01b0316612426565b60405163463d31d760e11b8152600481018490529091506000906001600160a01b03831690638c7a63ae9060240160a06040518083038186803b158015611b6857600080fd5b505afa158015611b7c573d6000803e3d6000fd5b505050506040513d601f19601f82011682018060405250810190611ba09190613484565b8051604051632a8a9f1360e21b8152600481018690529192509060009081906001600160a01b0384169063aa2a7c4c906024016040805180830381600087803b158015611bec57600080fd5b505af1158015611c00573d6000803e3d6000fd5b505050506040513d601f19601f82011682018060405250810190611c249190613520565b91509150611c33838383612a02565b50505050506106c2600160c955565b60975460ff16156109c55760405162461bcd60e51b815260206004820152601060248201526f14185d5cd8589b194e881c185d5cd95960821b60448201526064016104bf565b600260c9541415611cdb5760405162461bcd60e51b815260206004820152601f60248201527f5265656e7472616e637947756172643a207265656e7472616e742063616c6c0060448201526064016104bf565b600260c955565b6101c654600090611cfb906001600160a01b0316612426565b6001600160a01b031663b5ada6d8836040518263ffffffff1660e01b8152600401611d2691906135ff565b60206040518083038186803b158015611d3e57600080fd5b505afa158015611d52573d6000803e3d6000fd5b505050506040513d601f19601f820116820180604052508101906104849190613400565b6101c654600090611d8f906001600160a01b031661264c565b90506106c281826001600160a01b03166370a08231306040518263ffffffff1660e01b8152600401611dc191906135ff565b60206040518083038186803b158015611dd957600080fd5b505afa158015611ded573d6000803e3d6000fd5b505050506040513d601f19601f82011682018060405250810190611e119190613508565b612acd565b600061048482612e66565b6101c654600090611e3a906001600160a01b031661236d565b90506000816001600160a01b031663095ea7b385856040518363ffffffff1660e01b8152600401611e6c929190613613565b602060405180830381600087803b158015611e8657600080fd5b505af1158015611e9a573d6000803e3d6000fd5b505050506040513d601f19601f82011682018060405250810190611ebe9190613400565b9050806117685760405162461bcd60e51b81526004016104bf906136d9565b600061116182846138df565b600160c955565b600054610100900460ff166109c55760405162461bcd60e51b81526004016104bf90613806565b600054610100900460ff16611f3e5760405162461bcd60e51b81526004016104bf90613806565b6097805460ff19169055565b600054610100900460ff16611ee95760405162461bcd60e51b81526004016104bf90613806565b6109858282612226565b600082815260656020526040808220600101805490849055905190918391839186917fbd79b86ffe0ab8e8776151514217cd7cacd52c909f66475c3af44e129f0b00ff9190a4505050565b600061048482612e7e565b6101c6546000908190611fec906001600160a01b03166129df565b90506000816001600160a01b03166370a08231336040518263ffffffff1660e01b815260040161201c91906135ff565b60206040518083038186803b15801561203457600080fd5b505afa158015612048573d6000803e3d6000fd5b505050506040513d601f19601f8201168201806040525081019061206c9190613508565b9050808411156120de5760405162461bcd60e51b815260206004820152603760248201527f416d6f756e74207265717565737465642069732067726561746572207468616e604482015276207768617420746869732061646472657373206f776e7360481b60648201526084016104bf565b6101c654600090612102906120fb906001600160a01b0316612e96565b87906125ec565b905061210e868261241a565b604080518281526020810184905291955033917f2d4d49c3e017b8235c908cbaa83a2431a08f3b950712696ece2088964fd399f0910160405180910390a260006121593033876128d7565b9050806121a85760405162461bcd60e51b815260206004820152601f60248201527f4661696c656420746f207472616e7366657220666f722077697468647261770060448201526064016104bf565b6121b28233612f18565b60405163079cc67960e41b81526001600160a01b038516906379cc6790906121e09033908a90600401613613565b600060405180830381600087803b1580156121fa57600080fd5b505af115801561220e573d6000803e3d6000fd5b505050505050505092915050565b6106c28133612fdb565b6122308282611201565b6109855760008281526065602090815260408083206001600160a01b03851684529091529020805460ff191660011790556122683390565b6001600160a01b0316816001600160a01b0316837f2f8788117e7eff1d82e926ec794901d17c78024a50270940304540a733656f0d60405160405180910390a45050565b6122b68282611201565b156109855760008281526065602090815260408083206001600160a01b0385168085529252808320805460ff1916905551339285917ff6391f5c32d9c69d2a47ea670b442974b53935d1edc7fd64eb21e047a839171b9190a45050565b61231b613034565b6097805460ff191690557f5db9ee0a495bf2e6ff9c91a7834c1ba4fdd244a5e8aa4e537bd38aeae4b073aa335b60405161235591906135ff565b60405180910390a1565b6000610fca6012600a61395a565b6000610484825b60006001600160a01b03821663b93f9b0a60055b6040518263ffffffff1660e01b81526004016123a691815260200190565b60206040518083038186803b1580156123be57600080fd5b505afa1580156123d2573d6000803e3d6000fd5b505050506040513d601f19601f8201168201806040525081019061048491906133ac565b600061048461241561240661235f565b6101c3546111c79086906125e0565b61307d565b60006111618284613ae3565b600061048482613095565b60008073__$1dcd660c042b25ef260537b13a3f0ede49$__6397aec1ab856001600160a01b03166347195e136040518163ffffffff1660e01b815260040160206040518083038186803b15801561248757600080fd5b505afa15801561249b573d6000803e3d6000fd5b505050506040513d601f19601f820116820180604052508101906124bf91906133ac565b85426101c6546124d7906001600160a01b03166130ad565b6101c6546124ed906001600160a01b03166130c5565b6040516001600160e01b031960e088901b1681526001600160a01b039095166004860152602485019390935260448401919091526064830152608482015260a401604080518083038186803b15801561254557600080fd5b505af4158015612559573d6000803e3d6000fd5b505050506040513d601f19601f8201168201806040525081019061257d9190613520565b915091509250929050565b612590611c42565b6097805460ff191660011790557f62e78cea01bee320cd4e420270b5ea74000d11b0c9f74754ebdbfc544b05a2586123483390565b60006104846125d26130dd565b6111c76125dd61235f565b85905b60006111618284613a85565b600061116182846138f7565b600081131561262557600061260c826130eb565b6101c35490915061261d9082611edd565b6101c3555050565b600061263b61263683600019613a02565b6130eb565b6101c35490915061261d908261241a565b600061048482613103565b6101c754156126c55760405162461bcd60e51b815260206004820152603460248201527f43616e6e6f74207377656570207768656e20776520616c72656164792068617660448201527365206120636f6d706f756e642062616c616e636560601b60648201526084016104bf565b806126e25760405162461bcd60e51b81526004016104bf906136a2565b60405163140e25ad60e31b8152600481018290526000906001600160a01b0384169063a0712d6890602401602060405180830381600087803b15801561272757600080fd5b505af115801561273b573d6000803e3d6000fd5b505050506040513d601f19601f8201168201806040525081019061275f9190613508565b905080156127aa5760405162461bcd60e51b815260206004820152601860248201527714ddd9595c081d1bc818dbdb5c1bdd5b990819985a5b195960421b60448201526064016104bf565b506101c75550565b6101c6546000906127cb906001600160a01b03166129df565b6001600160a01b03166318160ddd6040518163ffffffff1660e01b815260040160206040518083038186803b15801561280357600080fd5b505afa158015612817573d6000803e3d6000fd5b505050506040513d601f19601f82011682018060405250810190610fca9190613508565b6101c654604051631f8ac6cb60e31b8152600160048201526000916128c4916001600160a01b039091169063fc5636589060240160206040518083038186803b15801561288757600080fd5b505afa15801561289b573d6000803e3d6000fd5b505050506040513d601f19601f820116820180604052508101906128bf9190613508565b6125c5565b6128cf61240661235f565b111592915050565b60006001600160a01b03831661292f5760405162461bcd60e51b815260206004820152601a60248201527f43616e27742073656e6420746f207a65726f206164647265737300000000000060448201526064016104bf565b6101c654600090612948906001600160a01b031661236d565b6040516323b872dd60e01b81526001600160a01b038781166004830152868116602483015260448201869052919250908216906323b872dd90606401602060405180830381600087803b15801561299e57600080fd5b505af11580156129b2573d6000803e3d6000fd5b505050506040513d601f19601f820116820180604052508101906129d69190613400565b95945050505050565b60006104848261311b565b60006001600160a01b03821663b93f9b0a600b612388565b6000612a0d836130eb565b6101c354909150612a1e9082611edd565b6101c3558215612a6c57836001600160a01b03167fed3bc1b58411ea8e764b3ef8fa6b654877bc1e796a5a1a2373dfc8f1c0e0ea4884604051612a6391815260200190565b60405180910390a25b811561176857836001600160a01b03167f8295ad220549851bab232c2a7ae2e3c53a63d2294602bc85f8d8af108778a37e83604051612aad91815260200190565b60405180910390a26101c454612ac3908361241a565b6101c45550505050565b6101c75480612b155760405162461bcd60e51b8152602060048201526014602482015273139bc8199d5b991cc81bdb8818dbdb5c1bdd5b9960621b60448201526064016104bf565b81612b325760405162461bcd60e51b81526004016104bf906136a2565b6101c654600090612b4b906001600160a01b031661236d565b90506000816001600160a01b03166370a08231306040518263ffffffff1660e01b8152600401612b7b91906135ff565b60206040518083038186803b158015612b9357600080fd5b505afa158015612ba7573d6000803e3d6000fd5b505050506040513d601f19601f82011682018060405250810190612bcb9190613508565b90506000856001600160a01b031663bd6d894d6040518163ffffffff1660e01b8152600401602060405180830381600087803b158015612c0a57600080fd5b505af1158015612c1e573d6000803e3d6000fd5b505050506040513d601f19601f82011682018060405250810190612c429190613508565b90506000612c508287613133565b60405163db006a7560e01b8152600481018890529091506000906001600160a01b0389169063db006a7590602401602060405180830381600087803b158015612c9857600080fd5b505af1158015612cac573d6000803e3d6000fd5b505050506040513d601f19601f82011682018060405250810190612cd09190613508565b90506000856001600160a01b03166370a08231306040518263ffffffff1660e01b8152600401612d0091906135ff565b60206040518083038186803b158015612d1857600080fd5b505afa158015612d2c573d6000803e3d6000fd5b505050506040513d601f19601f82011682018060405250810190612d509190613508565b90508115612da05760405162461bcd60e51b815260206004820152601a60248201527f53776565702066726f6d20636f6d706f756e64206661696c656400000000000060448201526064016104bf565b82612dab828761241a565b14612df35760405162461bcd60e51b8152602060048201526018602482015277155b995e1c1958dd1959081c995919595b48185b5bdd5b9d60421b60448201526064016104bf565b6000612dff848961241a565b6101c654909150600090612e2690612e1f906001600160a01b031661316c565b83906125ec565b90506000612e34838361241a565b9050612e4230826000612a02565b8115612e5257612e52828d612f18565b505060006101c75550505050505050505050565b60006001600160a01b03821663b93f9b0a600f612388565b60006001600160a01b03821663b93f9b0a6013612388565b60006001600160a01b03821663fc56365860045b6040518263ffffffff1660e01b8152600401612ec891815260200190565b60206040518083038186803b158015612ee057600080fd5b505afa158015612ef4573d6000803e3d6000fd5b505050506040513d601f19601f820116820180604052508101906104849190613508565b806001600160a01b03167ff3583f178a8d4f8888c3683f8e948faf9b6eb701c4f1fab265a6ecad1a1ddebb83604051612f5391815260200190565b60405180910390a26101c654600090612f80903090612f7a906001600160a01b0316613184565b856128d7565b9050806109065760405162461bcd60e51b815260206004820152602360248201527f52657365727665207472616e7366657220776173206e6f742073756363657373604482015262199d5b60ea1b60648201526084016104bf565b612fe58282611201565b61098557612ff28161319c565b612ffd8360206131ae565b60405160200161300e929190613590565b60408051601f198184030181529082905262461bcd60e51b82526104bf9160040161362c565b60975460ff166109c55760405162461bcd60e51b815260206004820152601460248201527314185d5cd8589b194e881b9bdd081c185d5cd95960621b60448201526064016104bf565b6000610484612e1f61308d6130dd565b6111c761235f565b60006001600160a01b03821663b93f9b0a600c612388565b60006001600160a01b03821663fc5636586005612eaa565b60006001600160a01b03821663fc5636586006612eaa565b6000610fca6006600a61395a565b60006104846130f86127b2565b6111c76111b861235f565b60006001600160a01b03821663b93f9b0a600a612388565b60006001600160a01b03821663b93f9b0a6004612388565b6000600660086129d660646111c78361314d8660126138df565b6131579190613ae3565b61316290600a61395a565b6111c7888a6125e0565b60006001600160a01b03821663fc5636586003612eaa565b60006001600160a01b03821663b93f9b0a6006612388565b60606104846001600160a01b03831660145b606060006131bd836002613a85565b6131c89060026138df565b67ffffffffffffffff8111156131ee57634e487b7160e01b600052604160045260246000fd5b6040519080825280601f01601f191660200182016040528015613218576020820181803683370190505b509050600360fc1b8160008151811061324157634e487b7160e01b600052603260045260246000fd5b60200101906001600160f81b031916908160001a905350600f60fb1b8160018151811061327e57634e487b7160e01b600052603260045260246000fd5b60200101906001600160f81b031916908160001a90535060006132a2846002613a85565b6132ad9060016138df565b90505b6001811115613341576f181899199a1a9b1b9c1cb0b131b232b360811b85600f16601081106132ef57634e487b7160e01b600052603260045260246000fd5b1a60f81b82828151811061331357634e487b7160e01b600052603260045260246000fd5b60200101906001600160f81b031916908160001a90535060049490941c9361333a81613b26565b90506132b0565b5083156111615760405162461bcd60e51b815260206004820181905260248201527f537472696e67733a20686578206c656e67746820696e73756666696369656e7460448201526064016104bf565b6000602082840312156133a1578081fd5b813561116181613b53565b6000602082840312156133bd578081fd5b815161116181613b53565b600080604083850312156133da578081fd5b82356133e581613b53565b915060208301356133f581613b53565b809150509250929050565b600060208284031215613411578081fd5b81518015158114611161578182fd5b600060208284031215613431578081fd5b5035919050565b6000806040838503121561344a578182fd5b8235915060208301356133f581613b53565b60006020828403121561346d578081fd5b81356001600160e01b031981168114611161578182fd5b600060a08284031215613495578081fd5b60405160a0810181811067ffffffffffffffff821117156134c457634e487b7160e01b83526041600452602483fd5b60405282516134d281613b53565b80825250602083015160208201526040830151604082015260608301516060820152608083015160808201528091505092915050565b600060208284031215613519578081fd5b5051919050565b60008060408385031215613532578182fd5b505080516020909101519092909150565b600080600080600060a0868803121561355a578081fd5b8535945060208601359350604086013560ff81168114613578578182fd5b94979396509394606081013594506080013592915050565b76020b1b1b2b9b9a1b7b73a3937b61d1030b1b1b7bab73a1604d1b8152600083516135c2816017850160208801613afa565b7001034b99036b4b9b9b4b733903937b6329607d1b60179184019182015283516135f3816028840160208801613afa565b01602801949350505050565b6001600160a01b0391909116815260200190565b6001600160a01b03929092168252602082015260400190565b602081526000825180602084015261364b816040850160208701613afa565b601f01601f19169190910160400192915050565b60208082526023908201527f54686973206164647265737320686173206e6f74206265656e20676f2d6c69736040820152621d195960ea1b606082015260800190565b6020808252601e908201527f416d6f756e7420746f2073776565702063616e6e6f74206265207a65726f0000604082015260600190565b6020808252601690820152754661696c656420746f20617070726f7665205553444360501b604082015260600190565b6020808252602c908201527f4d75737420686176652070617573657220726f6c6520746f20706572666f726d60408201526b103a3434b99030b1ba34b7b760a11b606082015260800190565b602080825260129082015271141bdbdb081b5d5cdd081899481d985b1a5960721b604082015260600190565b6020808252602e908201527f496e697469616c697a61626c653a20636f6e747261637420697320616c72656160408201526d191e481a5b9a5d1a585b1a5e995960921b606082015260800190565b6020808252601c908201527f4d757374207769746864726177206d6f7265207468616e207a65726f00000000604082015260600190565b6020808252602b908201527f496e697469616c697a61626c653a20636f6e7472616374206973206e6f74206960408201526a6e697469616c697a696e6760a81b606082015260800190565b60208082526023908201527f4661696c656420746f20617070726f7665205553444320666f7220636f6d706f6040820152621d5b9960ea1b606082015260800190565b6020808252602b908201527f4d75737420686176652061646d696e20726f6c6520746f20706572666f726d2060408201526a3a3434b99030b1ba34b7b760a91b606082015260800190565b600082198211156138f2576138f2613b3d565b500190565b60008261391257634e487b7160e01b81526012600452602481fd5b500490565b600181815b8085111561395257816000190482111561393857613938613b3d565b8085161561394557918102915b93841c939080029061391c565b509250929050565b6000611161838360008261397057506001610484565b8161397d57506000610484565b8160018114613993576002811461399d576139b9565b6001915050610484565b60ff8411156139ae576139ae613b3d565b50506001821b610484565b5060208310610133831016604e8410600b84101617156139dc575081810a610484565b6139e68383613917565b80600019048211156139fa576139fa613b3d565b029392505050565b60006001600160ff1b0381841382841380821686840486111615613a2857613a28613b3d565b600160ff1b84871282811687830589121615613a4657613a46613b3d565b858712925087820587128484161615613a6157613a61613b3d565b87850587128184161615613a7757613a77613b3d565b505050929093029392505050565b6000816000190483118215151615613a9f57613a9f613b3d565b500290565b60008083128015600160ff1b850184121615613ac257613ac2613b3d565b6001600160ff1b0384018313811615613add57613add613b3d565b50500390565b600082821015613af557613af5613b3d565b500390565b60005b83811015613b15578181015183820152602001613afd565b838111156117685750506000910152565b600081613b3557613b35613b3d565b506000190190565b634e487b7160e01b600052601160045260246000fd5b6001600160a01b03811681146106c257600080fdfeb19546dff01e856fb3f010c267a7b1c60363cf8a4664e21cc89c26224620214e65d7a28e3265b37a6474929f336521b332c1681b933f6cb9f3376673440d862aa26469706673582212205169f50882b401f85c64533175f0948670ab05278db7331aafd52e3d1c60582564736f6c63430008040033",
  "libraries": {
    "Accountant": "0x6411227B41DAa555AB88b546F0F7B218cCA4dD2F"
  },
  "devdoc": {
    "author": "Doberman",
    "kind": "dev",
    "methods": {
      "calculateWritedown(uint256)": {
        "params": {
          "tokenId": "The token reprsenting the position"
        },
        "returns": {
          "_0": "The amount in dollars the principal should be written down by"
        }
      },
      "deposit(uint256)": {
        "params": {
          "amount": "The amount of USDC to deposit"
        }
      },
      "depositWithPermit(uint256,uint256,uint8,bytes32,bytes32)": {
        "params": {
          "amount": "The amount of USDC to deposit",
          "r": "secp256k1 signature component",
          "s": "secp256k1 signature component",
          "v": "secp256k1 signature component"
        }
      },
      "getNumShares(uint256)": {
        "params": {
          "amount": "USDC amount to convert to FIDU"
        }
      },
      "getRoleAdmin(bytes32)": {
        "details": "Returns the admin role that controls `role`. See {grantRole} and {revokeRole}. To change a role's admin, use {_setRoleAdmin}."
      },
      "grantRole(bytes32,address)": {
        "details": "Grants `role` to `account`. If `account` had not been already granted `role`, emits a {RoleGranted} event. Requirements: - the caller must have ``role``'s admin role. May emit a {RoleGranted} event."
      },
      "hasRole(bytes32,address)": {
        "details": "Returns `true` if `account` has been granted `role`."
      },
      "invest(address)": {
        "params": {
          "pool": "An ITranchedPool whose senior tranche should be considered for investment"
        }
      },
      "pause()": {
        "details": "Pauses all functions guarded by Pause See {Pausable-_pause}. Requirements: - the caller must have the PAUSER_ROLE."
      },
      "paused()": {
        "details": "Returns true if the contract is paused, and false otherwise."
      },
      "redeem(uint256)": {
        "params": {
          "tokenId": "the ID of an IPoolTokens token to be redeemed"
        }
      },
      "renounceRole(bytes32,address)": {
        "details": "Revokes `role` from the calling account. Roles are often managed via {grantRole} and {revokeRole}: this function's purpose is to provide a mechanism for accounts to lose their privileges if they are compromised (such as when a trusted device is misplaced). If the calling account had been revoked `role`, emits a {RoleRevoked} event. Requirements: - the caller must be `account`. May emit a {RoleRevoked} event."
      },
      "revokeRole(bytes32,address)": {
        "details": "Revokes `role` from `account`. If `account` had been granted `role`, emits a {RoleRevoked} event. Requirements: - the caller must have ``role``'s admin role. May emit a {RoleRevoked} event."
      },
      "supportsInterface(bytes4)": {
        "details": "See {IERC165-supportsInterface}."
      },
      "unpause()": {
        "details": "Unpauses the contract See {Pausable-_unpause}. Requirements: - the caller must have the Pauser role"
      },
      "withdraw(uint256)": {
        "params": {
          "usdcAmount": "The amount of USDC to withdraw"
        }
      },
      "withdrawInFidu(uint256)": {
        "params": {
          "fiduAmount": "The amount of USDC to withdraw in terms of FIDU shares"
        }
      },
      "writedown(uint256)": {
        "params": {
          "tokenId": "the ID of an IPoolTokens token to be considered for writedown"
        }
      }
    },
    "title": "Doberman's SeniorPool contract",
    "version": 1
  },
  "userdoc": {
    "kind": "user",
    "methods": {
      "assets()": {
        "notice": "Returns the net assests controlled by and owed to the pool"
      },
      "calculateWritedown(uint256)": {
        "notice": "Calculates the writedown amount for a particular pool position"
      },
      "deposit(uint256)": {
        "notice": "Deposits `amount` USDC from msg.sender into the SeniorPool, and grants you the  equivalent value of FIDU tokens"
      },
      "depositWithPermit(uint256,uint256,uint8,bytes32,bytes32)": {
        "notice": "Identical to deposit, except it allows for a passed up signature to permit  the Senior Pool to move funds on behalf of the user, all within one transaction."
      },
      "getNumShares(uint256)": {
        "notice": "Converts and USDC amount to FIDU amount"
      },
      "invest(address)": {
        "notice": "Invest in an ITranchedPool's senior tranche using the senior pool's strategy"
      },
      "redeem(uint256)": {
        "notice": "Redeem interest and/or principal from an ITranchedPool investment"
      },
      "sweepFromCompound()": {
        "notice": "Moves any USDC from Compound back to the SeniorPool, and recognizes interest earned. This is done automatically on drawdown or withdraw, but can be called manually if necessary. Requirements:  - The caller must be an admin."
      },
      "sweepToCompound()": {
        "notice": "Moves any USDC still in the SeniorPool to Compound, and tracks the amount internally. This is done to earn interest on latent funds until we have other borrowers who can use it. Requirements:  - The caller must be an admin."
      },
      "updateDobermanConfig()": {
        "notice": "Migrates to a new Doberman config address"
      },
      "withdraw(uint256)": {
        "notice": "Withdraws USDC from the SeniorPool to msg.sender, and burns the equivalent value of FIDU tokens"
      },
      "withdrawInFidu(uint256)": {
        "notice": "Withdraws USDC (denominated in FIDU terms) from the SeniorPool to msg.sender"
      },
      "writedown(uint256)": {
        "notice": "Write down an ITranchedPool investment. This will adjust the senior pool's share price  down if we're considering the investment a loss, or up if the borrower has subsequently  made repayments that restore confidence that the full loan will be repaid."
      }
    },
    "notice": "Main entry point for senior LPs (a.k.a. capital providers)  Automatically invests across borrower pools using an adjustable strategy.",
    "version": 1
  },
  "storageLayout": {
    "storage": [
      {
        "astId": 415,
        "contract": "contracts/protocol/core/SeniorPool.sol:SeniorPool",
        "label": "_initialized",
        "offset": 0,
        "slot": "0",
        "type": "t_uint8"
      },
      {
        "astId": 418,
        "contract": "contracts/protocol/core/SeniorPool.sol:SeniorPool",
        "label": "_initializing",
        "offset": 1,
        "slot": "0",
        "type": "t_bool"
      },
      {
        "astId": 1218,
        "contract": "contracts/protocol/core/SeniorPool.sol:SeniorPool",
        "label": "__gap",
        "offset": 0,
        "slot": "1",
        "type": "t_array(t_uint256)50_storage"
      },
      {
        "astId": 1437,
        "contract": "contracts/protocol/core/SeniorPool.sol:SeniorPool",
        "label": "__gap",
        "offset": 0,
        "slot": "51",
        "type": "t_array(t_uint256)50_storage"
      },
      {
        "astId": 39,
        "contract": "contracts/protocol/core/SeniorPool.sol:SeniorPool",
        "label": "_roles",
        "offset": 0,
        "slot": "101",
        "type": "t_mapping(t_bytes32,t_struct(RoleData)34_storage)"
      },
      {
        "astId": 334,
        "contract": "contracts/protocol/core/SeniorPool.sol:SeniorPool",
        "label": "__gap",
        "offset": 0,
        "slot": "102",
        "type": "t_array(t_uint256)49_storage"
      },
      {
        "astId": 598,
        "contract": "contracts/protocol/core/SeniorPool.sol:SeniorPool",
        "label": "_paused",
        "offset": 0,
        "slot": "151",
        "type": "t_bool"
      },
      {
        "astId": 703,
        "contract": "contracts/protocol/core/SeniorPool.sol:SeniorPool",
        "label": "__gap",
        "offset": 0,
        "slot": "152",
        "type": "t_array(t_uint256)49_storage"
      },
      {
        "astId": 718,
        "contract": "contracts/protocol/core/SeniorPool.sol:SeniorPool",
        "label": "_status",
        "offset": 0,
        "slot": "201",
        "type": "t_uint256"
      },
      {
        "astId": 776,
        "contract": "contracts/protocol/core/SeniorPool.sol:SeniorPool",
        "label": "__gap",
        "offset": 0,
        "slot": "202",
        "type": "t_array(t_uint256)49_storage"
      },
      {
        "astId": 7041,
        "contract": "contracts/protocol/core/SeniorPool.sol:SeniorPool",
        "label": "__gap1",
        "offset": 0,
        "slot": "251",
        "type": "t_array(t_uint256)50_storage"
      },
      {
        "astId": 7045,
        "contract": "contracts/protocol/core/SeniorPool.sol:SeniorPool",
        "label": "__gap2",
        "offset": 0,
        "slot": "301",
        "type": "t_array(t_uint256)50_storage"
      },
      {
        "astId": 7049,
        "contract": "contracts/protocol/core/SeniorPool.sol:SeniorPool",
        "label": "__gap3",
        "offset": 0,
        "slot": "351",
        "type": "t_array(t_uint256)50_storage"
      },
      {
        "astId": 7053,
        "contract": "contracts/protocol/core/SeniorPool.sol:SeniorPool",
        "label": "__gap4",
        "offset": 0,
        "slot": "401",
        "type": "t_array(t_uint256)50_storage"
      },
      {
        "astId": 5937,
        "contract": "contracts/protocol/core/SeniorPool.sol:SeniorPool",
        "label": "sharePrice",
        "offset": 0,
        "slot": "451",
        "type": "t_uint256"
      },
      {
        "astId": 5939,
        "contract": "contracts/protocol/core/SeniorPool.sol:SeniorPool",
        "label": "totalLoansOutstanding",
        "offset": 0,
        "slot": "452",
        "type": "t_uint256"
      },
      {
        "astId": 5941,
        "contract": "contracts/protocol/core/SeniorPool.sol:SeniorPool",
        "label": "totalWritedowns",
        "offset": 0,
        "slot": "453",
        "type": "t_uint256"
      },
      {
        "astId": 9526,
        "contract": "contracts/protocol/core/SeniorPool.sol:SeniorPool",
        "label": "config",
        "offset": 0,
        "slot": "454",
        "type": "t_contract(DobermanConfig)9450"
      },
      {
        "astId": 9535,
        "contract": "contracts/protocol/core/SeniorPool.sol:SeniorPool",
        "label": "compoundBalance",
        "offset": 0,
        "slot": "455",
        "type": "t_uint256"
      },
      {
        "astId": 9540,
        "contract": "contracts/protocol/core/SeniorPool.sol:SeniorPool",
        "label": "writedowns",
        "offset": 0,
        "slot": "456",
        "type": "t_mapping(t_contract(ITranchedPool)6249,t_uint256)"
      }
    ],
    "types": {
      "t_address": {
        "encoding": "inplace",
        "label": "address",
        "numberOfBytes": "20"
      },
      "t_array(t_uint256)49_storage": {
        "base": "t_uint256",
        "encoding": "inplace",
        "label": "uint256[49]",
        "numberOfBytes": "1568"
      },
      "t_array(t_uint256)50_storage": {
        "base": "t_uint256",
        "encoding": "inplace",
        "label": "uint256[50]",
        "numberOfBytes": "1600"
      },
      "t_bool": {
        "encoding": "inplace",
        "label": "bool",
        "numberOfBytes": "1"
      },
      "t_bytes32": {
        "encoding": "inplace",
        "label": "bytes32",
        "numberOfBytes": "32"
      },
      "t_contract(DobermanConfig)9450": {
        "encoding": "inplace",
        "label": "contract DobermanConfig",
        "numberOfBytes": "20"
      },
      "t_contract(ITranchedPool)6249": {
        "encoding": "inplace",
        "label": "contract ITranchedPool",
        "numberOfBytes": "20"
      },
      "t_mapping(t_address,t_bool)": {
        "encoding": "mapping",
        "key": "t_address",
        "label": "mapping(address => bool)",
        "numberOfBytes": "32",
        "value": "t_bool"
      },
      "t_mapping(t_bytes32,t_struct(RoleData)34_storage)": {
        "encoding": "mapping",
        "key": "t_bytes32",
        "label": "mapping(bytes32 => struct AccessControlUpgradeable.RoleData)",
        "numberOfBytes": "32",
        "value": "t_struct(RoleData)34_storage"
      },
      "t_mapping(t_contract(ITranchedPool)6249,t_uint256)": {
        "encoding": "mapping",
        "key": "t_contract(ITranchedPool)6249",
        "label": "mapping(contract ITranchedPool => uint256)",
        "numberOfBytes": "32",
        "value": "t_uint256"
      },
      "t_struct(RoleData)34_storage": {
        "encoding": "inplace",
        "label": "struct AccessControlUpgradeable.RoleData",
        "members": [
          {
            "astId": 31,
            "contract": "contracts/protocol/core/SeniorPool.sol:SeniorPool",
            "label": "members",
            "offset": 0,
            "slot": "0",
            "type": "t_mapping(t_address,t_bool)"
          },
          {
            "astId": 33,
            "contract": "contracts/protocol/core/SeniorPool.sol:SeniorPool",
            "label": "adminRole",
            "offset": 0,
            "slot": "1",
            "type": "t_bytes32"
          }
        ],
        "numberOfBytes": "64"
      },
      "t_uint256": {
        "encoding": "inplace",
        "label": "uint256",
        "numberOfBytes": "32"
      },
      "t_uint8": {
        "encoding": "inplace",
        "label": "uint8",
        "numberOfBytes": "1"
      }
    }
  }
}