{
  "address": "0xe8679bFD6757CEF944529FCFBdA65837Cca2Ec17",
  "abi": [
    {
      "anonymous": false,
      "inputs": [
        {
          "indexed": true,
          "internalType": "address",
          "name": "account",
          "type": "address"
        },
        {
          "indexed": true,
          "internalType": "address",
          "name": "operator",
          "type": "address"
        },
        {
          "indexed": false,
          "internalType": "bool",
          "name": "approved",
          "type": "bool"
        }
      ],
      "name": "ApprovalForAll",
      "type": "event"
    },
    {
      "anonymous": false,
      "inputs": [
        {
          "indexed": false,
          "internalType": "uint8",
          "name": "version",
          "type": "uint8"
        }
      ],
      "name": "Initialized",
      "type": "event"
    },
    {
      "anonymous": false,
      "inputs": [
        {
          "indexed": false,
          "internalType": "address",
          "name": "account",
          "type": "address"
        }
      ],
      "name": "Paused",
      "type": "event"
    },
    {
      "anonymous": false,
      "inputs": [
        {
          "indexed": true,
          "internalType": "bytes32",
          "name": "role",
          "type": "bytes32"
        },
        {
          "indexed": true,
          "internalType": "bytes32",
          "name": "previousAdminRole",
          "type": "bytes32"
        },
        {
          "indexed": true,
          "internalType": "bytes32",
          "name": "newAdminRole",
          "type": "bytes32"
        }
      ],
      "name": "RoleAdminChanged",
      "type": "event"
    },
    {
      "anonymous": false,
      "inputs": [
        {
          "indexed": true,
          "internalType": "bytes32",
          "name": "role",
          "type": "bytes32"
        },
        {
          "indexed": true,
          "internalType": "address",
          "name": "account",
          "type": "address"
        },
        {
          "indexed": true,
          "internalType": "address",
          "name": "sender",
          "type": "address"
        }
      ],
      "name": "RoleGranted",
      "type": "event"
    },
    {
      "anonymous": false,
      "inputs": [
        {
          "indexed": true,
          "internalType": "bytes32",
          "name": "role",
          "type": "bytes32"
        },
        {
          "indexed": true,
          "internalType": "address",
          "name": "account",
          "type": "address"
        },
        {
          "indexed": true,
          "internalType": "address",
          "name": "sender",
          "type": "address"
        }
      ],
      "name": "RoleRevoked",
      "type": "event"
    },
    {
      "anonymous": false,
      "inputs": [
        {
          "indexed": true,
          "internalType": "address",
          "name": "operator",
          "type": "address"
        },
        {
          "indexed": true,
          "internalType": "address",
          "name": "from",
          "type": "address"
        },
        {
          "indexed": true,
          "internalType": "address",
          "name": "to",
          "type": "address"
        },
        {
          "indexed": false,
          "internalType": "uint256[]",
          "name": "ids",
          "type": "uint256[]"
        },
        {
          "indexed": false,
          "internalType": "uint256[]",
          "name": "values",
          "type": "uint256[]"
        }
      ],
      "name": "TransferBatch",
      "type": "event"
    },
    {
      "anonymous": false,
      "inputs": [
        {
          "indexed": true,
          "internalType": "address",
          "name": "operator",
          "type": "address"
        },
        {
          "indexed": true,
          "internalType": "address",
          "name": "from",
          "type": "address"
        },
        {
          "indexed": true,
          "internalType": "address",
          "name": "to",
          "type": "address"
        },
        {
          "indexed": false,
          "internalType": "uint256",
          "name": "id",
          "type": "uint256"
        },
        {
          "indexed": false,
          "internalType": "uint256",
          "name": "value",
          "type": "uint256"
        }
      ],
      "name": "TransferSingle",
      "type": "event"
    },
    {
      "anonymous": false,
      "inputs": [
        {
          "indexed": false,
          "internalType": "string",
          "name": "value",
          "type": "string"
        },
        {
          "indexed": true,
          "internalType": "uint256",
          "name": "id",
          "type": "uint256"
        }
      ],
      "name": "URI",
      "type": "event"
    },
    {
      "anonymous": false,
      "inputs": [
        {
          "indexed": false,
          "internalType": "address",
          "name": "account",
          "type": "address"
        }
      ],
      "name": "Unpaused",
      "type": "event"
    },
    {
      "inputs": [],
      "name": "DEFAULT_ADMIN_ROLE",
      "outputs": [
        {
          "internalType": "bytes32",
          "name": "",
          "type": "bytes32"
        }
      ],
      "stateMutability": "view",
      "type": "function"
    },
    {
      "inputs": [],
      "name": "DOMAIN_SEPARATOR",
      "outputs": [
        {
          "internalType": "bytes32",
          "name": "",
          "type": "bytes32"
        }
      ],
      "stateMutability": "view",
      "type": "function"
    },
    {
      "inputs": [],
      "name": "ID_TYPE_0",
      "outputs": [
        {
          "internalType": "uint256",
          "name": "",
          "type": "uint256"
        }
      ],
      "stateMutability": "view",
      "type": "function"
    },
    {
      "inputs": [],
      "name": "ID_TYPE_1",
      "outputs": [
        {
          "internalType": "uint256",
          "name": "",
          "type": "uint256"
        }
      ],
      "stateMutability": "view",
      "type": "function"
    },
    {
      "inputs": [],
      "name": "ID_TYPE_10",
      "outputs": [
        {
          "internalType": "uint256",
          "name": "",
          "type": "uint256"
        }
      ],
      "stateMutability": "view",
      "type": "function"
    },
    {
      "inputs": [],
      "name": "ID_TYPE_2",
      "outputs": [
        {
          "internalType": "uint256",
          "name": "",
          "type": "uint256"
        }
      ],
      "stateMutability": "view",
      "type": "function"
    },
    {
      "inputs": [],
      "name": "ID_TYPE_3",
      "outputs": [
        {
          "internalType": "uint256",
          "name": "",
          "type": "uint256"
        }
      ],
      "stateMutability": "view",
      "type": "function"
    },
    {
      "inputs": [],
      "name": "ID_TYPE_4",
      "outputs": [
        {
          "internalType": "uint256",
          "name": "",
          "type": "uint256"
        }
      ],
      "stateMutability": "view",
      "type": "function"
    },
    {
      "inputs": [],
      "name": "ID_TYPE_5",
      "outputs": [
        {
          "internalType": "uint256",
          "name": "",
          "type": "uint256"
        }
      ],
      "stateMutability": "view",
      "type": "function"
    },
    {
      "inputs": [],
      "name": "ID_TYPE_6",
      "outputs": [
        {
          "internalType": "uint256",
          "name": "",
          "type": "uint256"
        }
      ],
      "stateMutability": "view",
      "type": "function"
    },
    {
      "inputs": [],
      "name": "ID_TYPE_7",
      "outputs": [
        {
          "internalType": "uint256",
          "name": "",
          "type": "uint256"
        }
      ],
      "stateMutability": "view",
      "type": "function"
    },
    {
      "inputs": [],
      "name": "ID_TYPE_8",
      "outputs": [
        {
          "internalType": "uint256",
          "name": "",
          "type": "uint256"
        }
      ],
      "stateMutability": "view",
      "type": "function"
    },
    {
      "inputs": [],
      "name": "ID_TYPE_9",
      "outputs": [
        {
          "internalType": "uint256",
          "name": "",
          "type": "uint256"
        }
      ],
      "stateMutability": "view",
      "type": "function"
    },
    {
      "inputs": [],
      "name": "MINT_ALLOWANCE_TYPEHASH",
      "outputs": [
        {
          "internalType": "bytes32",
          "name": "",
          "type": "bytes32"
        }
      ],
      "stateMutability": "view",
      "type": "function"
    },
    {
      "inputs": [],
      "name": "MINT_COST_PER_TOKEN",
      "outputs": [
        {
          "internalType": "uint256",
          "name": "",
          "type": "uint256"
        }
      ],
      "stateMutability": "view",
      "type": "function"
    },
    {
      "inputs": [],
      "name": "OWNER_ROLE",
      "outputs": [
        {
          "internalType": "bytes32",
          "name": "",
          "type": "bytes32"
        }
      ],
      "stateMutability": "view",
      "type": "function"
    },
    {
      "inputs": [],
      "name": "PAUSER_ROLE",
      "outputs": [
        {
          "internalType": "bytes32",
          "name": "",
          "type": "bytes32"
        }
      ],
      "stateMutability": "view",
      "type": "function"
    },
    {
      "inputs": [],
      "name": "SIGNER_ROLE",
      "outputs": [
        {
          "internalType": "bytes32",
          "name": "",
          "type": "bytes32"
        }
      ],
      "stateMutability": "view",
      "type": "function"
    },
    {
      "inputs": [
        {
          "internalType": "address",
          "name": "account",
          "type": "address"
        },
        {
          "internalType": "uint256",
          "name": "id",
          "type": "uint256"
        }
      ],
      "name": "balanceOf",
      "outputs": [
        {
          "internalType": "uint256",
          "name": "",
          "type": "uint256"
        }
      ],
      "stateMutability": "view",
      "type": "function"
    },
    {
      "inputs": [
        {
          "internalType": "address[]",
          "name": "accounts",
          "type": "address[]"
        },
        {
          "internalType": "uint256[]",
          "name": "ids",
          "type": "uint256[]"
        }
      ],
      "name": "balanceOfBatch",
      "outputs": [
        {
          "internalType": "uint256[]",
          "name": "",
          "type": "uint256[]"
        }
      ],
      "stateMutability": "view",
      "type": "function"
    },
    {
      "inputs": [
        {
          "internalType": "address",
          "name": "account",
          "type": "address"
        },
        {
          "internalType": "uint256",
          "name": "id",
          "type": "uint256"
        },
        {
          "internalType": "uint256",
          "name": "expiresAt",
          "type": "uint256"
        },
        {
          "internalType": "bytes",
          "name": "signature",
          "type": "bytes"
        }
      ],
      "name": "burn",
      "outputs": [],
      "stateMutability": "nonpayable",
      "type": "function"
    },
    {
      "inputs": [
        {
          "internalType": "bytes32",
          "name": "role",
          "type": "bytes32"
        }
      ],
      "name": "getRoleAdmin",
      "outputs": [
        {
          "internalType": "bytes32",
          "name": "",
          "type": "bytes32"
        }
      ],
      "stateMutability": "view",
      "type": "function"
    },
    {
      "inputs": [
        {
          "internalType": "bytes32",
          "name": "role",
          "type": "bytes32"
        },
        {
          "internalType": "uint256",
          "name": "index",
          "type": "uint256"
        }
      ],
      "name": "getRoleMember",
      "outputs": [
        {
          "internalType": "address",
          "name": "",
          "type": "address"
        }
      ],
      "stateMutability": "view",
      "type": "function"
    },
    {
      "inputs": [
        {
          "internalType": "bytes32",
          "name": "role",
          "type": "bytes32"
        }
      ],
      "name": "getRoleMemberCount",
      "outputs": [
        {
          "internalType": "uint256",
          "name": "",
          "type": "uint256"
        }
      ],
      "stateMutability": "view",
      "type": "function"
    },
    {
      "inputs": [
        {
          "internalType": "bytes32",
          "name": "role",
          "type": "bytes32"
        },
        {
          "internalType": "address",
          "name": "account",
          "type": "address"
        }
      ],
      "name": "grantRole",
      "outputs": [],
      "stateMutability": "nonpayable",
      "type": "function"
    },
    {
      "inputs": [
        {
          "internalType": "bytes32",
          "name": "role",
          "type": "bytes32"
        },
        {
          "internalType": "address",
          "name": "account",
          "type": "address"
        }
      ],
      "name": "hasRole",
      "outputs": [
        {
          "internalType": "bool",
          "name": "",
          "type": "bool"
        }
      ],
      "stateMutability": "view",
      "type": "function"
    },
    {
      "inputs": [
        {
          "internalType": "address",
          "name": "owner",
          "type": "address"
        },
        {
          "internalType": "string",
          "name": "uri",
          "type": "string"
        }
      ],
      "name": "initialize",
      "outputs": [],
      "stateMutability": "nonpayable",
      "type": "function"
    },
    {
      "inputs": [],
      "name": "isAdmin",
      "outputs": [
        {
          "internalType": "bool",
          "name": "",
          "type": "bool"
        }
      ],
      "stateMutability": "view",
      "type": "function"
    },
    {
      "inputs": [
        {
          "internalType": "address",
          "name": "account",
          "type": "address"
        },
        {
          "internalType": "address",
          "name": "operator",
          "type": "address"
        }
      ],
      "name": "isApprovedForAll",
      "outputs": [
        {
          "internalType": "bool",
          "name": "",
          "type": "bool"
        }
      ],
      "stateMutability": "view",
      "type": "function"
    },
    {
      "inputs": [
        {
          "internalType": "uint256",
          "name": "id",
          "type": "uint256"
        },
        {
          "internalType": "uint256",
          "name": "expiresAt",
          "type": "uint256"
        },
        {
          "internalType": "bytes",
          "name": "signature",
          "type": "bytes"
        }
      ],
      "name": "mint",
      "outputs": [],
      "stateMutability": "payable",
      "type": "function"
    },
    {
      "inputs": [],
      "name": "name",
      "outputs": [
        {
          "internalType": "string",
          "name": "",
          "type": "string"
        }
      ],
      "stateMutability": "pure",
      "type": "function"
    },
    {
      "inputs": [
        {
          "internalType": "address",
          "name": "",
          "type": "address"
        }
      ],
      "name": "nonces",
      "outputs": [
        {
          "internalType": "uint256",
          "name": "",
          "type": "uint256"
        }
      ],
      "stateMutability": "view",
      "type": "function"
    },
    {
      "inputs": [],
      "name": "pause",
      "outputs": [],
      "stateMutability": "nonpayable",
      "type": "function"
    },
    {
      "inputs": [],
      "name": "paused",
      "outputs": [
        {
          "internalType": "bool",
          "name": "",
          "type": "bool"
        }
      ],
      "stateMutability": "view",
      "type": "function"
    },
    {
      "inputs": [
        {
          "internalType": "bytes32",
          "name": "role",
          "type": "bytes32"
        },
        {
          "internalType": "address",
          "name": "account",
          "type": "address"
        }
      ],
      "name": "renounceRole",
      "outputs": [],
      "stateMutability": "nonpayable",
      "type": "function"
    },
    {
      "inputs": [
        {
          "internalType": "bytes32",
          "name": "role",
          "type": "bytes32"
        },
        {
          "internalType": "address",
          "name": "account",
          "type": "address"
        }
      ],
      "name": "revokeRole",
      "outputs": [],
      "stateMutability": "nonpayable",
      "type": "function"
    },
    {
      "inputs": [
        {
          "internalType": "address",
          "name": "from",
          "type": "address"
        },
        {
          "internalType": "address",
          "name": "to",
          "type": "address"
        },
        {
          "internalType": "uint256[]",
          "name": "ids",
          "type": "uint256[]"
        },
        {
          "internalType": "uint256[]",
          "name": "amounts",
          "type": "uint256[]"
        },
        {
          "internalType": "bytes",
          "name": "data",
          "type": "bytes"
        }
      ],
      "name": "safeBatchTransferFrom",
      "outputs": [],
      "stateMutability": "nonpayable",
      "type": "function"
    },
    {
      "inputs": [
        {
          "internalType": "address",
          "name": "from",
          "type": "address"
        },
        {
          "internalType": "address",
          "name": "to",
          "type": "address"
        },
        {
          "internalType": "uint256",
          "name": "id",
          "type": "uint256"
        },
        {
          "internalType": "uint256",
          "name": "amount",
          "type": "uint256"
        },
        {
          "internalType": "bytes",
          "name": "data",
          "type": "bytes"
        }
      ],
      "name": "safeTransferFrom",
      "outputs": [],
      "stateMutability": "nonpayable",
      "type": "function"
    },
    {
      "inputs": [
        {
          "internalType": "address",
          "name": "operator",
          "type": "address"
        },
        {
          "internalType": "bool",
          "name": "approved",
          "type": "bool"
        }
      ],
      "name": "setApprovalForAll",
      "outputs": [],
      "stateMutability": "nonpayable",
      "type": "function"
    },
    {
      "inputs": [
        {
          "internalType": "uint256[]",
          "name": "ids",
          "type": "uint256[]"
        },
        {
          "internalType": "bool[]",
          "name": "values",
          "type": "bool[]"
        }
      ],
      "name": "setSupportedUIDTypes",
      "outputs": [],
      "stateMutability": "nonpayable",
      "type": "function"
    },
    {
      "inputs": [
        {
          "internalType": "string",
          "name": "newuri",
          "type": "string"
        }
      ],
      "name": "setURI",
      "outputs": [],
      "stateMutability": "nonpayable",
      "type": "function"
    },
    {
      "inputs": [
        {
          "internalType": "uint256",
          "name": "",
          "type": "uint256"
        }
      ],
      "name": "supportedUIDTypes",
      "outputs": [
        {
          "internalType": "bool",
          "name": "",
          "type": "bool"
        }
      ],
      "stateMutability": "view",
      "type": "function"
    },
    {
      "inputs": [
        {
          "internalType": "bytes4",
          "name": "interfaceId",
          "type": "bytes4"
        }
      ],
      "name": "supportsInterface",
      "outputs": [
        {
          "internalType": "bool",
          "name": "",
          "type": "bool"
        }
      ],
      "stateMutability": "view",
      "type": "function"
    },
    {
      "inputs": [],
      "name": "symbol",
      "outputs": [
        {
          "internalType": "string",
          "name": "",
          "type": "string"
        }
      ],
      "stateMutability": "pure",
      "type": "function"
    },
    {
      "inputs": [],
      "name": "unpause",
      "outputs": [],
      "stateMutability": "nonpayable",
      "type": "function"
    },
    {
      "inputs": [
        {
          "internalType": "uint256",
          "name": "",
          "type": "uint256"
        }
      ],
      "name": "uri",
      "outputs": [
        {
          "internalType": "string",
          "name": "",
          "type": "string"
        }
      ],
      "stateMutability": "view",
      "type": "function"
    },
    {
      "inputs": [],
      "name": "version",
      "outputs": [
        {
          "internalType": "string",
          "name": "",
          "type": "string"
        }
      ],
      "stateMutability": "view",
      "type": "function"
    }
  ],
  "transactionHash": "0xcefe2d35ff693683286bba7cef3753af3b69484618a9243a460fe23e825f0fc8",
  "args": [],
  "numDeployments": 3,
  "solcInputHash": "a3c5a274dd69e779d4769b2c96d8deca",
  "bytecode": "0x600f6080526e556e69717565204964656e7469747960881b60a0908152600160c052603160f81b60e0527f8b73c3c69bb8fe3d512ecc4cf759cc79239f7b179b0ffacaa9a75d522b39400f6101209081527fcb021abf7a254250729ef4e9a3490bed76798f4c32c0ec5dad3d634ae88a6a25610140527fc89efdaa54c0f20c7adf612882df0950f5a951637e0307cdcb4c672f298b8bc6610160524661018052306101a0526101008290526101c060405220610193553480156100c157600080fd5b50613c22806100d16000396000f3fe6080604052600436106102875760003560e01c8063801dfa901161015a578063a22cb465116100c1578063e58378bb1161007a578063e58378bb14610772578063e63ab1e914610794578063e985e9c5146107b6578063ec2e8a75146107ff578063f242432a14610814578063f399e22e1461083457600080fd5b8063a22cb465146106d3578063b6db75a0146106f3578063ca15c87314610708578063d547741f14610728578063ddd8f68714610748578063e57a2a501461075d57600080fd5b80639142575d116101135780639142575d1461061f57806391d148541461065057806395d89b41146106705780639b56d7881461069c578063a1ebf35d146106b1578063a217fddf1461069c57600080fd5b8063801dfa901461056857806380f878021461057d5780638456cb5914610592578063879dcceb146105a75780638a94b05f146105c75780639010d07c146105e757600080fd5b80632eb2c2d6116101fe5780634e1273f4116101b75780634e1273f41461049e5780635344626a146104cb57806354fd4d50146104e05780635c975abb1461050d578063701d240a146105255780637ecebe001461053a57600080fd5b80632eb2c2d6146103fd5780632f2ff15d1461041d5780633644e5151461043d57806336568abe146104545780633f4ba83a14610474578063479e743c1461048957600080fd5b80630e89341c116102505780630e89341c146103465780631484bddd14610366578063158d6b9f1461037b578063248a9ca31461039d5780632dc2c007146103cd5780632e82d895146103e857600080fd5b8062fdd58e1461028c57806301ffc9a7146102bf57806302fe5305146102ef57806306fdde031461031157806308dc9f4214610333575b600080fd5b34801561029857600080fd5b506102ac6102a73660046131db565b610854565b6040519081526020015b60405180910390f35b3480156102cb57600080fd5b506102df6102da366004613406565b6108ef565b60405190151581526020016102b6565b3480156102fb57600080fd5b5061030f61030a36600461343e565b6108fa565b005b34801561031d57600080fd5b5061032661092a565b6040516102b691906136bc565b61030f610341366004613478565b610953565b34801561035257600080fd5b506103266103613660046133ab565b610bd5565b34801561037257600080fd5b506102ac600881565b34801561038757600080fd5b506102ac600080516020613b6d83398151915281565b3480156103a957600080fd5b506102ac6103b83660046133ab565b60009081526065602052604090206001015490565b3480156103d957600080fd5b506102ac6602f2e16f29e00081565b3480156103f457600080fd5b506102ac600381565b34801561040957600080fd5b5061030f610418366004613060565b610c69565b34801561042957600080fd5b5061030f6104383660046133c3565b610cb5565b34801561044957600080fd5b506102ac6101935481565b34801561046057600080fd5b5061030f61046f3660046133c3565b610cdf565b34801561048057600080fd5b5061030f610d5d565b34801561049557600080fd5b506102ac600581565b3480156104aa57600080fd5b506104be6104b9366004613269565b610de9565b6040516102b6919061364f565b3480156104d757600080fd5b506102ac600681565b3480156104ec57600080fd5b50610326604051806040016040528060018152602001603160f81b81525081565b34801561051957600080fd5b5060fb5460ff166102df565b34801561053157600080fd5b506102ac600181565b34801561054657600080fd5b506102ac610555366004613014565b6101916020526000908152604090205481565b34801561057457600080fd5b506102ac600781565b34801561058957600080fd5b506102ac600281565b34801561059e57600080fd5b5061030f610f4a565b3480156105b357600080fd5b5061030f6105c2366004613329565b610fd2565b3480156105d357600080fd5b5061030f6105e2366004613204565b6110e7565b3480156105f357600080fd5b506106076106023660046133e5565b6112b8565b6040516001600160a01b0390911681526020016102b6565b34801561062b57600080fd5b506102df61063a3660046133ab565b6101926020526000908152604090205460ff1681565b34801561065c57600080fd5b506102df61066b3660046133c3565b6112d7565b34801561067c57600080fd5b5060408051808201909152600381526215525160ea1b6020820152610326565b3480156106a857600080fd5b506102ac600081565b3480156106bd57600080fd5b506102ac600080516020613bcd83398151915281565b3480156106df57600080fd5b5061030f6106ee366004613167565b611302565b3480156106ff57600080fd5b506102df61130d565b34801561071457600080fd5b506102ac6107233660046133ab565b61132c565b34801561073457600080fd5b5061030f6107433660046133c3565b611343565b34801561075457600080fd5b506102ac600a81565b34801561076957600080fd5b506102ac600981565b34801561077e57600080fd5b506102ac600080516020613b8d83398151915281565b3480156107a057600080fd5b506102ac600080516020613bad83398151915281565b3480156107c257600080fd5b506102df6107d136600461302e565b6001600160a01b03918216600090815260ca6020908152604080832093909416825291909152205460ff1690565b34801561080b57600080fd5b506102ac600481565b34801561082057600080fd5b5061030f61082f366004613105565b611368565b34801561084057600080fd5b5061030f61084f366004613190565b6113ad565b60006001600160a01b0383166108c45760405162461bcd60e51b815260206004820152602a60248201527f455243313135353a2061646472657373207a65726f206973206e6f742061207660448201526930b634b21037bbb732b960b11b60648201526084015b60405180910390fd5b50600081815260c9602090815260408083206001600160a01b03861684529091529020545b92915050565b60006108e9826114e0565b61090261130d565b61091e5760405162461bcd60e51b81526004016108bb906138e4565b61092781611520565b50565b60408051808201909152600f81526e556e69717565204964656e7469747960881b602082015290565b33848484848242106109775760405162461bcd60e51b81526004016108bb9061386a565b6101935461098757610987611533565b610193546001600160a01b0386166000908152610191602090815260408083205490519293926109ce92600080516020613b6d833981519152928b928b928b929101613690565b604051602081830303815290604052805190602001206040516020016109f5929190613522565b604051602081830303815290604052805190602001209050610a5f600080516020613bcd83398151915261066b8386868080601f0160208091040260200160405190810160405280939291908181526020018383808284376000920191909152506115dd92505050565b610a7b5760405162461bcd60e51b81526004016108bb90613842565b33600081815261019160205260408120805460019290610a9c908490613952565b90915550506602f2e16f29e000341015610af85760405162461bcd60e51b815260206004820152601f60248201527f546f6b656e206d696e7420726571756972657320302e3030303833204554480060448201526064016108bb565b60008b8152610192602052604090205460ff161515600114610b555760405162461bcd60e51b8152602060048201526016602482015275151bdad95b881a59081b9bdd081cdd5c1c1bdc9d195960521b60448201526064016108bb565b610b5f338c610854565b15610bac5760405162461bcd60e51b815260206004820152601d60248201527f42616c616e6365206265666f7265206d696e74206d757374206265203000000060448201526064016108bb565b610bc8338c6001604051806020016040528060008152506115f9565b5050505050505050505050565b606060cb8054610be4906139e7565b80601f0160208091040260200160405190810160405280929190818152602001828054610c10906139e7565b8015610c5d5780601f10610c3257610100808354040283529160200191610c5d565b820191906000526020600020905b815481529060010190602001808311610c4057829003601f168201915b50505050509050919050565b6001600160a01b038516331480610c855750610c8585336107d1565b610ca15760405162461bcd60e51b81526004016108bb90613717565b610cae858585858561170c565b5050505050565b600082815260656020526040902060010154610cd081611916565b610cda8383611920565b505050565b6001600160a01b0381163314610d4f5760405162461bcd60e51b815260206004820152602f60248201527f416363657373436f6e74726f6c3a2063616e206f6e6c792072656e6f756e636560448201526e103937b632b9903337b91039b2b63360891b60648201526084016108bb565b610d598282611942565b5050565b610d75600080516020613bad833981519152336112d7565b610ddf5760405162461bcd60e51b815260206004820152603560248201527f455243313135355072657365745061757365723a206d75737420686176652070604482015274617573657220726f6c6520746f20756e706175736560581b60648201526084016108bb565b610de7611964565b565b60608151835114610e4e5760405162461bcd60e51b815260206004820152602960248201527f455243313135353a206163636f756e747320616e6420696473206c656e677468604482015268040dad2e6dac2e8c6d60bb1b60648201526084016108bb565b600083516001600160401b03811115610e7757634e487b7160e01b600052604160045260246000fd5b604051908082528060200260200182016040528015610ea0578160200160208202803683370190505b50905060005b8451811015610f4257610f07858281518110610ed257634e487b7160e01b600052603260045260246000fd5b6020026020010151858381518110610efa57634e487b7160e01b600052603260045260246000fd5b6020026020010151610854565b828281518110610f2757634e487b7160e01b600052603260045260246000fd5b6020908102919091010152610f3b81613a4e565b9050610ea6565b509392505050565b610f62600080516020613bad833981519152336112d7565b610fca5760405162461bcd60e51b815260206004820152603360248201527f455243313135355072657365745061757365723a206d75737420686176652070604482015272617573657220726f6c6520746f20706175736560681b60648201526084016108bb565b610de76119b6565b610fda61130d565b610ff65760405162461bcd60e51b81526004016108bb906138e4565b8281146110455760405162461bcd60e51b815260206004820181905260248201527f6163636f756e747320616e6420696473206c656e677468206d69736d6174636860448201526064016108bb565b60005b83811015610cae5782828281811061107057634e487b7160e01b600052603260045260246000fd5b90506020020160208101906110859190613391565b61019260008787858181106110aa57634e487b7160e01b600052603260045260246000fd5b90506020020135815260200190815260200160002060006101000a81548160ff021916908315150217905550806110e090613a4e565b9050611048565b848484848482421061110b5760405162461bcd60e51b81526004016108bb9061386a565b6101935461111b5761111b611533565b610193546001600160a01b03861660009081526101916020908152604080832054905192939261116292600080516020613b6d833981519152928b928b928b929101613690565b60405160208183030381529060405280519060200120604051602001611189929190613522565b6040516020818303038152906040528051906020012090506111f3600080516020613bcd83398151915261066b8386868080601f0160208091040260200160405190810160405280939291908181526020018383808284376000920191909152506115dd92505050565b61120f5760405162461bcd60e51b81526004016108bb90613842565b6001600160a01b038b1660009081526101916020526040812080548d926001929161123b908490613952565b9091555061124d90508c8c60016119f3565b60006112598d8d610854565b905080156112a95760405162461bcd60e51b815260206004820152601c60248201527f42616c616e6365206166746572206275726e206d75737420626520300000000060448201526064016108bb565b50505050505050505050505050565b60008281526097602052604081206112d09083611b75565b9392505050565b60009182526065602090815260408084206001600160a01b0393909316845291905290205460ff1690565b610d59338383611b81565b6000611327600080516020613b8d833981519152336112d7565b905090565b60008181526097602052604081206108e990611c62565b60008281526065602052604090206001015461135e81611916565b610cda8383611942565b6001600160a01b038516331480611384575061138485336107d1565b6113a05760405162461bcd60e51b81526004016108bb90613717565b610cae8585858585611c6c565b600054610100900460ff16158080156113cd5750600054600160ff909116105b806113ee57506113dc30611d96565b1580156113ee575060005460ff166001145b61140a5760405162461bcd60e51b81526004016108bb906137aa565b6000805460ff19166001179055801561142d576000805461ff0019166101001790555b6001600160a01b0383166114835760405162461bcd60e51b815260206004820152601d60248201527f4f776e657220616464726573732063616e6e6f7420626520656d70747900000060448201526064016108bb565b61148d8383611da5565b61149683611e67565b8015610cda576000805461ff0019169055604051600181527f7f26b83ff96e1f2b6a682f133852f6798a09c465da95921460cefb38474024989060200160405180910390a1505050565b60006001600160e01b03198216636cdb3d1360e11b148061151157506001600160e01b031982166303a24d0760e21b145b806108e957506108e982611f39565b8051610d599060cb906020840190612dec565b7f8b73c3c69bb8fe3d512ecc4cf759cc79239f7b179b0ffacaa9a75d522b39400f61155c61092a565b805160209182012060408051808201825260018152603160f81b90840152805192830193909352918101919091527fc89efdaa54c0f20c7adf612882df0950f5a951637e0307cdcb4c672f298b8bc660608201524660808201523060a082015260c00160408051601f19818403018152919052805160209091012061019355565b60008060006115ec8585611f5e565b91509150610f4281611fa4565b6001600160a01b0384166116595760405162461bcd60e51b815260206004820152602160248201527f455243313135353a206d696e7420746f20746865207a65726f206164647265736044820152607360f81b60648201526084016108bb565b33600061166585612125565b9050600061167285612125565b90506116838360008985858961217e565b600086815260c9602090815260408083206001600160a01b038b168452909152812080548792906116b5908490613952565b909155505060408051878152602081018790526001600160a01b03808a169260009291871691600080516020613b4d833981519152910160405180910390a46117038360008989898961222c565b50505050505050565b815183511461176e5760405162461bcd60e51b815260206004820152602860248201527f455243313135353a2069647320616e6420616d6f756e7473206c656e677468206044820152670dad2e6dac2e8c6d60c31b60648201526084016108bb565b6001600160a01b0384166117945760405162461bcd60e51b81526004016108bb90613765565b336117a381878787878761217e565b60005b84518110156118a85760008582815181106117d157634e487b7160e01b600052603260045260246000fd5b6020026020010151905060008583815181106117fd57634e487b7160e01b600052603260045260246000fd5b602090810291909101810151600084815260c9835260408082206001600160a01b038e16835290935291909120549091508181101561184e5760405162461bcd60e51b81526004016108bb906137f8565b600083815260c9602090815260408083206001600160a01b038e8116855292528083208585039055908b1682528120805484929061188d908490613952565b92505081905550505050806118a190613a4e565b90506117a6565b50846001600160a01b0316866001600160a01b0316826001600160a01b03167f4a39dc06d4c0dbc64b70af90fd698a233a518aa5d07e595d983b8c0526c8f7fb87876040516118f8929190613662565b60405180910390a461190e81878787878761239e565b505050505050565b610927813361246f565b61192a82826124c8565b6000828152609760205260409020610cda908261254e565b61194c8282612563565b6000828152609760205260409020610cda90826125ca565b61196c6125df565b60fb805460ff191690557f5db9ee0a495bf2e6ff9c91a7834c1ba4fdd244a5e8aa4e537bd38aeae4b073aa335b6040516001600160a01b03909116815260200160405180910390a1565b6119be612628565b60fb805460ff191660011790557f62e78cea01bee320cd4e420270b5ea74000d11b0c9f74754ebdbfc544b05a2586119993390565b6001600160a01b038316611a555760405162461bcd60e51b815260206004820152602360248201527f455243313135353a206275726e2066726f6d20746865207a65726f206164647260448201526265737360e81b60648201526084016108bb565b336000611a6184612125565b90506000611a6e84612125565b9050611a8e8387600085856040518060200160405280600081525061217e565b600085815260c9602090815260408083206001600160a01b038a16845290915290205484811015611b0d5760405162461bcd60e51b8152602060048201526024808201527f455243313135353a206275726e20616d6f756e7420657863656564732062616c604482015263616e636560e01b60648201526084016108bb565b600086815260c9602090815260408083206001600160a01b038b81168086529184528285208a8703905582518b81529384018a9052909290881691600080516020613b4d833981519152910160405180910390a4604080516020810190915260009052611703565b60006112d0838361266e565b816001600160a01b0316836001600160a01b03161415611bf55760405162461bcd60e51b815260206004820152602960248201527f455243313135353a2073657474696e6720617070726f76616c20737461747573604482015268103337b91039b2b63360b91b60648201526084016108bb565b6001600160a01b03838116600081815260ca6020908152604080832094871680845294825291829020805460ff191686151590811790915591519182527f17307eab39ab6107e8899845ad3d59bd9653f200f220920489ca2b5937696c31910160405180910390a3505050565b60006108e9825490565b6001600160a01b038416611c925760405162461bcd60e51b81526004016108bb90613765565b336000611c9e85612125565b90506000611cab85612125565b9050611cbb83898985858961217e565b600086815260c9602090815260408083206001600160a01b038c16845290915290205485811015611cfe5760405162461bcd60e51b81526004016108bb906137f8565b600087815260c9602090815260408083206001600160a01b038d8116855292528083208985039055908a16825281208054889290611d3d908490613952565b909155505060408051888152602081018890526001600160a01b03808b16928c82169291881691600080516020613b4d833981519152910160405180910390a4611d8b848a8a8a8a8a61222c565b505050505050505050565b6001600160a01b03163b151590565b600054610100900460ff1615808015611dc55750600054600160ff909116105b80611de65750611dd430611d96565b158015611de6575060005460ff166001145b611e025760405162461bcd60e51b81526004016108bb906137aa565b6000805460ff191660011790558015611e25576000805461ff0019166101001790555b611e2d6126a6565b611e356126a6565b611e3d6126a6565b611e456126a6565b611e4e826126cd565b611e566126f4565b611e5e6126a6565b61149683612727565b600054610100900460ff1615808015611e875750600054600160ff909116105b80611ea85750611e9630611d96565b158015611ea8575060005460ff166001145b611ec45760405162461bcd60e51b81526004016108bb906137aa565b6000805460ff191660011790558015611ee7576000805461ff0019166101001790555b611ef082612815565b8015610d59576000805461ff0019169055604051600181527f7f26b83ff96e1f2b6a682f133852f6798a09c465da95921460cefb38474024989060200160405180910390a15050565b60006001600160e01b03198216635a05180f60e01b14806108e957506108e9826128d3565b600080825160411415611f955760208301516040840151606085015160001a611f8987828585612908565b94509450505050611f9d565b506000905060025b9250929050565b6000816004811115611fc657634e487b7160e01b600052602160045260246000fd5b1415611fcf5750565b6001816004811115611ff157634e487b7160e01b600052602160045260246000fd5b141561203a5760405162461bcd60e51b815260206004820152601860248201527745434453413a20696e76616c6964207369676e617475726560401b60448201526064016108bb565b600281600481111561205c57634e487b7160e01b600052602160045260246000fd5b14156120aa5760405162461bcd60e51b815260206004820152601f60248201527f45434453413a20696e76616c6964207369676e6174757265206c656e6774680060448201526064016108bb565b60038160048111156120cc57634e487b7160e01b600052602160045260246000fd5b14156109275760405162461bcd60e51b815260206004820152602260248201527f45434453413a20696e76616c6964207369676e6174757265202773272076616c604482015261756560f01b60648201526084016108bb565b6040805160018082528183019092526060916000919060208083019080368337019050509050828160008151811061216d57634e487b7160e01b600052603260045260246000fd5b602090810291909101015292915050565b6001600160a01b03851615801561219d57506001600160a01b03841615155b806121c257506001600160a01b038516158015906121c257506001600160a01b038416155b61221e5760405162461bcd60e51b815260206004820152602760248201527f4f6e6c79206d696e74206f72206275726e207472616e73666572732061726520604482015266185b1b1bddd95960ca1b60648201526084016108bb565b61190e8686868686866129c2565b61223e846001600160a01b0316611d96565b1561190e5760405163f23a6e6160e01b81526001600160a01b0385169063f23a6e6190612277908990899088908890889060040161360a565b602060405180830381600087803b15801561229157600080fd5b505af19250505080156122c1575060408051601f3d908101601f191682019092526122be91810190613422565b60015b61236e576122cd613a95565b806308c379a0141561230757506122e2613aad565b806122ed5750612309565b8060405162461bcd60e51b81526004016108bb91906136bc565b505b60405162461bcd60e51b815260206004820152603460248201527f455243313135353a207472616e7366657220746f206e6f6e2d455243313135356044820152732932b1b2b4bb32b91034b6b83632b6b2b73a32b960611b60648201526084016108bb565b6001600160e01b0319811663f23a6e6160e01b146117035760405162461bcd60e51b81526004016108bb906136cf565b6123b0846001600160a01b0316611d96565b1561190e5760405163bc197c8160e01b81526001600160a01b0385169063bc197c81906123e990899089908890889088906004016135ac565b602060405180830381600087803b15801561240357600080fd5b505af1925050508015612433575060408051601f3d908101601f1916820190925261243091810190613422565b60015b61243f576122cd613a95565b6001600160e01b0319811663bc197c8160e01b146117035760405162461bcd60e51b81526004016108bb906136cf565b61247982826112d7565b610d5957612486816129d0565b6124918360206129e2565b6040516020016124a292919061353d565b60408051601f198184030181529082905262461bcd60e51b82526108bb916004016136bc565b6124d282826112d7565b610d595760008281526065602090815260408083206001600160a01b03851684529091529020805460ff1916600117905561250a3390565b6001600160a01b0316816001600160a01b0316837f2f8788117e7eff1d82e926ec794901d17c78024a50270940304540a733656f0d60405160405180910390a45050565b60006112d0836001600160a01b038416612bc3565b61256d82826112d7565b15610d595760008281526065602090815260408083206001600160a01b0385168085529252808320805460ff1916905551339285917ff6391f5c32d9c69d2a47ea670b442974b53935d1edc7fd64eb21e047a839171b9190a45050565b60006112d0836001600160a01b038416612c12565b60fb5460ff16610de75760405162461bcd60e51b815260206004820152601460248201527314185d5cd8589b194e881b9bdd081c185d5cd95960621b60448201526064016108bb565b60fb5460ff1615610de75760405162461bcd60e51b815260206004820152601060248201526f14185d5cd8589b194e881c185d5cd95960821b60448201526064016108bb565b600082600001828154811061269357634e487b7160e01b600052603260045260246000fd5b9060005260206000200154905092915050565b600054610100900460ff16610de75760405162461bcd60e51b81526004016108bb90613899565b600054610100900460ff1661091e5760405162461bcd60e51b81526004016108bb90613899565b600054610100900460ff1661271b5760405162461bcd60e51b81526004016108bb90613899565b60fb805460ff19169055565b600054610100900460ff16158080156127475750600054600160ff909116105b80612768575061275630611d96565b158015612768575060005460ff166001145b6127845760405162461bcd60e51b81526004016108bb906137aa565b6000805460ff1916600117905580156127a7576000805461ff0019166101001790555b6127bf600080516020613b8d83398151915283612d2f565b6127d7600080516020613bad83398151915283612d2f565b6127fd600080516020613bad833981519152600080516020613b8d833981519152612d39565b611ef0600080516020613b8d83398151915280612d39565b600054610100900460ff16158080156128355750600054600160ff909116105b80612856575061284430611d96565b158015612856575060005460ff166001145b6128725760405162461bcd60e51b81526004016108bb906137aa565b6000805460ff191660011790558015612895576000805461ff0019166101001790555b6128ad600080516020613bcd83398151915283612d2f565b611ef0600080516020613bcd833981519152600080516020613b8d833981519152612d39565b60006001600160e01b03198216637965db0b60e01b14806108e957506301ffc9a760e01b6001600160e01b03198316146108e9565b6000806fa2a8918ca85bafe22016d0b997e4df60600160ff1b0383111561293557506000905060036129b9565b6040805160008082526020820180845289905260ff881692820192909252606081018690526080810185905260019060a0016020604051602081039080840390855afa158015612989573d6000803e3d6000fd5b5050604051601f1901519150506001600160a01b0381166129b2576000600192509250506129b9565b9150600090505b94509492505050565b61190e868686868686612d84565b60606108e96001600160a01b03831660145b606060006129f183600261396a565b6129fc906002613952565b6001600160401b03811115612a2157634e487b7160e01b600052604160045260246000fd5b6040519080825280601f01601f191660200182016040528015612a4b576020820181803683370190505b509050600360fc1b81600081518110612a7457634e487b7160e01b600052603260045260246000fd5b60200101906001600160f81b031916908160001a905350600f60fb1b81600181518110612ab157634e487b7160e01b600052603260045260246000fd5b60200101906001600160f81b031916908160001a9053506000612ad584600261396a565b612ae0906001613952565b90505b6001811115612b74576f181899199a1a9b1b9c1cb0b131b232b360811b85600f1660108110612b2257634e487b7160e01b600052603260045260246000fd5b1a60f81b828281518110612b4657634e487b7160e01b600052603260045260246000fd5b60200101906001600160f81b031916908160001a90535060049490941c93612b6d816139d0565b9050612ae3565b5083156112d05760405162461bcd60e51b815260206004820181905260248201527f537472696e67733a20686578206c656e67746820696e73756666696369656e7460448201526064016108bb565b6000818152600183016020526040812054612c0a575081546001818101845560008481526020808220909301849055845484825282860190935260409020919091556108e9565b5060006108e9565b60008181526001830160205260408120548015612d25576000612c36600183613989565b8554909150600090612c4a90600190613989565b9050818114612ccb576000866000018281548110612c7857634e487b7160e01b600052603260045260246000fd5b9060005260206000200154905080876000018481548110612ca957634e487b7160e01b600052603260045260246000fd5b6000918252602080832090910192909255918252600188019052604090208390555b8554869080612cea57634e487b7160e01b600052603160045260246000fd5b6001900381819060005260206000200160009055905585600101600086815260200190815260200160002060009055600193505050506108e9565b60009150506108e9565b610d598282611920565b600082815260656020526040808220600101805490849055905190918391839186917fbd79b86ffe0ab8e8776151514217cd7cacd52c909f66475c3af44e129f0b00ff9190a4505050565b60fb5460ff161561190e5760405162461bcd60e51b815260206004820152602c60248201527f455243313135355061757361626c653a20746f6b656e207472616e736665722060448201526b1dda1a5b19481c185d5cd95960a21b60648201526084016108bb565b828054612df8906139e7565b90600052602060002090601f016020900481019282612e1a5760008555612e60565b82601f10612e3357805160ff1916838001178555612e60565b82800160010185558215612e60579182015b82811115612e60578251825591602001919060010190612e45565b50612e6c929150612e70565b5090565b5b80821115612e6c5760008155600101612e71565b80356001600160a01b0381168114612e9c57600080fd5b919050565b60008083601f840112612eb2578182fd5b5081356001600160401b03811115612ec8578182fd5b6020830191508360208260051b8501011115611f9d57600080fd5b600082601f830112612ef3578081fd5b81356020612f008261392f565b604051612f0d8282613a22565b8381528281019150858301600585901b87018401881015612f2c578586fd5b855b85811015612f4a57813584529284019290840190600101612f2e565b5090979650505050505050565b80358015158114612e9c57600080fd5b60008083601f840112612f78578182fd5b5081356001600160401b03811115612f8e578182fd5b602083019150836020828501011115611f9d57600080fd5b600082601f830112612fb6578081fd5b81356001600160401b03811115612fcf57612fcf613a7f565b604051612fe6601f8301601f191660200182613a22565b818152846020838601011115612ffa578283fd5b816020850160208301379081016020019190915292915050565b600060208284031215613025578081fd5b6112d082612e85565b60008060408385031215613040578081fd5b61304983612e85565b915061305760208401612e85565b90509250929050565b600080600080600060a08688031215613077578081fd5b61308086612e85565b945061308e60208701612e85565b935060408601356001600160401b03808211156130a9578283fd5b6130b589838a01612ee3565b945060608801359150808211156130ca578283fd5b6130d689838a01612ee3565b935060808801359150808211156130eb578283fd5b506130f888828901612fa6565b9150509295509295909350565b600080600080600060a0868803121561311c578081fd5b61312586612e85565b945061313360208701612e85565b9350604086013592506060860135915060808601356001600160401b0381111561315b578182fd5b6130f888828901612fa6565b60008060408385031215613179578182fd5b61318283612e85565b915061305760208401612f57565b600080604083850312156131a2578182fd5b6131ab83612e85565b915060208301356001600160401b038111156131c5578182fd5b6131d185828601612fa6565b9150509250929050565b600080604083850312156131ed578182fd5b6131f683612e85565b946020939093013593505050565b60008060008060006080868803121561321b578283fd5b61322486612e85565b9450602086013593506040860135925060608601356001600160401b0381111561324c578182fd5b61325888828901612f67565b969995985093965092949392505050565b6000806040838503121561327b578182fd5b82356001600160401b0380821115613291578384fd5b818501915085601f8301126132a4578384fd5b813560206132b18261392f565b6040516132be8282613a22565b8381528281019150858301600585901b870184018b10156132dd578889fd5b8896505b84871015613306576132f281612e85565b8352600196909601959183019183016132e1565b509650508601359250508082111561331c578283fd5b506131d185828601612ee3565b6000806000806040858703121561333e578182fd5b84356001600160401b0380821115613354578384fd5b61336088838901612ea1565b90965094506020870135915080821115613378578384fd5b5061338587828801612ea1565b95989497509550505050565b6000602082840312156133a2578081fd5b6112d082612f57565b6000602082840312156133bc578081fd5b5035919050565b600080604083850312156133d5578182fd5b8235915061305760208401612e85565b600080604083850312156133f7578182fd5b50508035926020909101359150565b600060208284031215613417578081fd5b81356112d081613b36565b600060208284031215613433578081fd5b81516112d081613b36565b60006020828403121561344f578081fd5b81356001600160401b03811115613464578182fd5b61347084828501612fa6565b949350505050565b6000806000806060858703121561348d578182fd5b843593506020850135925060408501356001600160401b038111156134b0578283fd5b61338587828801612f67565b6000815180845260208085019450808401835b838110156134eb578151875295820195908201906001016134cf565b509495945050505050565b6000815180845261350e8160208601602086016139a0565b601f01601f19169290920160200192915050565b61190160f01b81526002810192909252602282015260420190565b76020b1b1b2b9b9a1b7b73a3937b61d1030b1b1b7bab73a1604d1b81526000835161356f8160178501602088016139a0565b7001034b99036b4b9b9b4b733903937b6329607d1b60179184019182015283516135a08160288401602088016139a0565b01602801949350505050565b6001600160a01b0386811682528516602082015260a0604082018190526000906135d8908301866134bc565b82810360608401526135ea81866134bc565b905082810360808401526135fe81856134f6565b98975050505050505050565b6001600160a01b03868116825285166020820152604081018490526060810183905260a060808201819052600090613644908301846134f6565b979650505050505050565b6020815260006112d060208301846134bc565b60408152600061367560408301856134bc565b828103602084015261368781856134bc565b95945050505050565b9485526001600160a01b0393909316602085015260408401919091526060830152608082015260a00190565b6020815260006112d060208301846134f6565b60208082526028908201527f455243313135353a204552433131353552656365697665722072656a656374656040820152676420746f6b656e7360c01b606082015260800190565b6020808252602e908201527f455243313135353a2063616c6c6572206973206e6f7420746f6b656e206f776e60408201526d195c881bdc88185c1c1c9bdd995960921b606082015260800190565b60208082526025908201527f455243313135353a207472616e7366657220746f20746865207a65726f206164604082015264647265737360d81b606082015260800190565b6020808252602e908201527f496e697469616c697a61626c653a20636f6e747261637420697320616c72656160408201526d191e481a5b9a5d1a585b1a5e995960921b606082015260800190565b6020808252602a908201527f455243313135353a20696e73756666696369656e742062616c616e636520666f60408201526939103a3930b739b332b960b11b606082015260800190565b6020808252600e908201526d24b73b30b634b21039b4b3b732b960911b604082015260600190565b60208082526015908201527414da59db985d1d5c99481a185cc8195e1c1a5c9959605a1b604082015260600190565b6020808252602b908201527f496e697469616c697a61626c653a20636f6e7472616374206973206e6f74206960408201526a6e697469616c697a696e6760a81b606082015260800190565b6020808252602b908201527f4d75737420686176652061646d696e20726f6c6520746f20706572666f726d2060408201526a3a3434b99030b1ba34b7b760a91b606082015260800190565b60006001600160401b0382111561394857613948613a7f565b5060051b60200190565b6000821982111561396557613965613a69565b500190565b600081600019048311821515161561398457613984613a69565b500290565b60008282101561399b5761399b613a69565b500390565b60005b838110156139bb5781810151838201526020016139a3565b838111156139ca576000848401525b50505050565b6000816139df576139df613a69565b506000190190565b600181811c908216806139fb57607f821691505b60208210811415613a1c57634e487b7160e01b600052602260045260246000fd5b50919050565b601f8201601f191681016001600160401b0381118282101715613a4757613a47613a7f565b6040525050565b6000600019821415613a6257613a62613a69565b5060010190565b634e487b7160e01b600052601160045260246000fd5b634e487b7160e01b600052604160045260246000fd5b600060033d1115613aaa57600481823e5160e01c5b90565b600060443d1015613abb5790565b6040516003193d81016004833e81513d6001600160401b038160248401118184111715613aea57505050505090565b8285019150815181811115613b025750505050505090565b843d8701016020828501011115613b1c5750505050505090565b613b2b60208286010187613a22565b509095945050505050565b6001600160e01b03198116811461092757600080fdfec3d58168c5ae7397731d063d5bbf3d657854427343f4c083240f7aacaa2d0f6293433fbc09336ca8d52f54b6727e2a3c17e767104d1b90a87086b0792a8b7f97b19546dff01e856fb3f010c267a7b1c60363cf8a4664e21cc89c26224620214e65d7a28e3265b37a6474929f336521b332c1681b933f6cb9f3376673440d862ae2f4eaae4a9751e85a3e4a7b9587827a877f29914755229b07a7b2da98285f70a2646970667358221220d5e48d999873d77445365d265faafd222680d9b1c91cee05d205203e9af0411464736f6c63430008040033",
  "devdoc": {
    "author": "Doberman",
    "kind": "dev",
    "methods": {
      "balanceOf(address,uint256)": {
        "details": "See {IERC1155-balanceOf}. Requirements: - `account` cannot be the zero address."
      },
      "balanceOfBatch(address[],uint256[])": {
        "details": "See {IERC1155-balanceOfBatch}. Requirements: - `accounts` and `ids` must have the same length."
      },
      "getRoleAdmin(bytes32)": {
        "details": "Returns the admin role that controls `role`. See {grantRole} and {revokeRole}. To change a role's admin, use {_setRoleAdmin}."
      },
      "getRoleMember(bytes32,uint256)": {
        "details": "Returns one of the accounts that have `role`. `index` must be a value between 0 and {getRoleMemberCount}, non-inclusive. Role bearers are not sorted in any particular way, and their ordering may change at any point. WARNING: When using {getRoleMember} and {getRoleMemberCount}, make sure you perform all queries on the same block. See the following https://forum.openzeppelin.com/t/iterating-over-elements-on-enumerableset-in-openzeppelin-contracts/2296[forum post] for more information."
      },
      "getRoleMemberCount(bytes32)": {
        "details": "Returns the number of accounts that have `role`. Can be used together with {getRoleMember} to enumerate all bearers of a role."
      },
      "grantRole(bytes32,address)": {
        "details": "Grants `role` to `account`. If `account` had not been already granted `role`, emits a {RoleGranted} event. Requirements: - the caller must have ``role``'s admin role. May emit a {RoleGranted} event."
      },
      "hasRole(bytes32,address)": {
        "details": "Returns `true` if `account` has been granted `role`."
      },
      "isApprovedForAll(address,address)": {
        "details": "See {IERC1155-isApprovedForAll}."
      },
      "name()": {
        "details": "Gets the token name.",
        "returns": {
          "_0": "string representing the token name"
        }
      },
      "pause()": {
        "details": "Pauses all token transfers. See {ERC1155Pausable} and {Pausable-_pause}. Requirements: - the caller must have the `PAUSER_ROLE`."
      },
      "paused()": {
        "details": "Returns true if the contract is paused, and false otherwise."
      },
      "renounceRole(bytes32,address)": {
        "details": "Revokes `role` from the calling account. Roles are often managed via {grantRole} and {revokeRole}: this function's purpose is to provide a mechanism for accounts to lose their privileges if they are compromised (such as when a trusted device is misplaced). If the calling account had been revoked `role`, emits a {RoleRevoked} event. Requirements: - the caller must be `account`. May emit a {RoleRevoked} event."
      },
      "revokeRole(bytes32,address)": {
        "details": "Revokes `role` from `account`. If `account` had been granted `role`, emits a {RoleRevoked} event. Requirements: - the caller must have ``role``'s admin role. May emit a {RoleRevoked} event."
      },
      "safeBatchTransferFrom(address,address,uint256[],uint256[],bytes)": {
        "details": "See {IERC1155-safeBatchTransferFrom}."
      },
      "safeTransferFrom(address,address,uint256,uint256,bytes)": {
        "details": "See {IERC1155-safeTransferFrom}."
      },
      "setApprovalForAll(address,bool)": {
        "details": "See {IERC1155-setApprovalForAll}."
      },
      "supportsInterface(bytes4)": {
        "details": "See {IERC165-supportsInterface}."
      },
      "symbol()": {
        "details": "Gets the token symbol.",
        "returns": {
          "_0": "string representing the token symbol"
        }
      },
      "unpause()": {
        "details": "Unpauses all token transfers. See {ERC1155Pausable} and {Pausable-_unpause}. Requirements: - the caller must have the `PAUSER_ROLE`."
      },
      "uri(uint256)": {
        "details": "See {IERC1155MetadataURI-uri}. This implementation returns the same URI for *all* token types. It relies on the token type ID substitution mechanism https://eips.ethereum.org/EIPS/eip-1155#metadata[defined in the EIP]. Clients calling this function must replace the `\\{id\\}` substring with the actual token type ID."
      }
    },
    "stateVariables": {
      "nonces": {
        "details": "We include a nonce in every hashed message, and increment the nonce as part of a state-changing operation, so as to prevent replay attacks, i.e. the reuse of a signature."
      },
      "version": {
        "details": "Version used for fund signature"
      }
    },
    "title": "UniqueIdentity",
    "version": 1
  },
  "userdoc": {
    "kind": "user",
    "methods": {},
    "notice": "UniqueIdentity is an ERC1155-compliant contract for representing the identity verification status of addresses.",
    "version": 1
  },
  "storageLayout": {
    "storage": [
      {
        "astId": 585,
        "contract": "contracts/protocol/core/UniqueIdentity.sol:UniqueIdentity",
        "label": "_initialized",
        "offset": 0,
        "slot": "0",
        "type": "t_uint8"
      },
      {
        "astId": 588,
        "contract": "contracts/protocol/core/UniqueIdentity.sol:UniqueIdentity",
        "label": "_initializing",
        "offset": 1,
        "slot": "0",
        "type": "t_bool"
      },
      {
        "astId": 2693,
        "contract": "contracts/protocol/core/UniqueIdentity.sol:UniqueIdentity",
        "label": "__gap",
        "offset": 0,
        "slot": "1",
        "type": "t_array(t_uint256)50_storage"
      },
      {
        "astId": 3273,
        "contract": "contracts/protocol/core/UniqueIdentity.sol:UniqueIdentity",
        "label": "__gap",
        "offset": 0,
        "slot": "51",
        "type": "t_array(t_uint256)50_storage"
      },
      {
        "astId": 184,
        "contract": "contracts/protocol/core/UniqueIdentity.sol:UniqueIdentity",
        "label": "_roles",
        "offset": 0,
        "slot": "101",
        "type": "t_mapping(t_bytes32,t_struct(RoleData)179_storage)"
      },
      {
        "astId": 479,
        "contract": "contracts/protocol/core/UniqueIdentity.sol:UniqueIdentity",
        "label": "__gap",
        "offset": 0,
        "slot": "102",
        "type": "t_array(t_uint256)49_storage"
      },
      {
        "astId": 33,
        "contract": "contracts/protocol/core/UniqueIdentity.sol:UniqueIdentity",
        "label": "_roleMembers",
        "offset": 0,
        "slot": "151",
        "type": "t_mapping(t_bytes32,t_struct(AddressSet)4477_storage)"
      },
      {
        "astId": 143,
        "contract": "contracts/protocol/core/UniqueIdentity.sol:UniqueIdentity",
        "label": "__gap",
        "offset": 0,
        "slot": "152",
        "type": "t_array(t_uint256)49_storage"
      },
      {
        "astId": 903,
        "contract": "contracts/protocol/core/UniqueIdentity.sol:UniqueIdentity",
        "label": "_balances",
        "offset": 0,
        "slot": "201",
        "type": "t_mapping(t_uint256,t_mapping(t_address,t_uint256))"
      },
      {
        "astId": 909,
        "contract": "contracts/protocol/core/UniqueIdentity.sol:UniqueIdentity",
        "label": "_operatorApprovals",
        "offset": 0,
        "slot": "202",
        "type": "t_mapping(t_address,t_mapping(t_address,t_bool))"
      },
      {
        "astId": 911,
        "contract": "contracts/protocol/core/UniqueIdentity.sol:UniqueIdentity",
        "label": "_uri",
        "offset": 0,
        "slot": "203",
        "type": "t_string_storage"
      },
      {
        "astId": 2118,
        "contract": "contracts/protocol/core/UniqueIdentity.sol:UniqueIdentity",
        "label": "__gap",
        "offset": 0,
        "slot": "204",
        "type": "t_array(t_uint256)47_storage"
      },
      {
        "astId": 768,
        "contract": "contracts/protocol/core/UniqueIdentity.sol:UniqueIdentity",
        "label": "_paused",
        "offset": 0,
        "slot": "251",
        "type": "t_bool"
      },
      {
        "astId": 873,
        "contract": "contracts/protocol/core/UniqueIdentity.sol:UniqueIdentity",
        "label": "__gap",
        "offset": 0,
        "slot": "252",
        "type": "t_array(t_uint256)49_storage"
      },
      {
        "astId": 2352,
        "contract": "contracts/protocol/core/UniqueIdentity.sol:UniqueIdentity",
        "label": "__gap",
        "offset": 0,
        "slot": "301",
        "type": "t_array(t_uint256)50_storage"
      },
      {
        "astId": 4953,
        "contract": "contracts/protocol/core/UniqueIdentity.sol:UniqueIdentity",
        "label": "__gap",
        "offset": 0,
        "slot": "351",
        "type": "t_array(t_uint256)50_storage"
      },
      {
        "astId": 5058,
        "contract": "contracts/protocol/core/UniqueIdentity.sol:UniqueIdentity",
        "label": "nonces",
        "offset": 0,
        "slot": "401",
        "type": "t_mapping(t_address,t_uint256)"
      },
      {
        "astId": 5062,
        "contract": "contracts/protocol/core/UniqueIdentity.sol:UniqueIdentity",
        "label": "supportedUIDTypes",
        "offset": 0,
        "slot": "402",
        "type": "t_mapping(t_uint256,t_bool)"
      },
      {
        "astId": 5091,
        "contract": "contracts/protocol/core/UniqueIdentity.sol:UniqueIdentity",
        "label": "DOMAIN_SEPARATOR",
        "offset": 0,
        "slot": "403",
        "type": "t_bytes32"
      }
    ],
    "types": {
      "t_address": {
        "encoding": "inplace",
        "label": "address",
        "numberOfBytes": "20"
      },
      "t_array(t_bytes32)dyn_storage": {
        "base": "t_bytes32",
        "encoding": "dynamic_array",
        "label": "bytes32[]",
        "numberOfBytes": "32"
      },
      "t_array(t_uint256)47_storage": {
        "base": "t_uint256",
        "encoding": "inplace",
        "label": "uint256[47]",
        "numberOfBytes": "1504"
      },
      "t_array(t_uint256)49_storage": {
        "base": "t_uint256",
        "encoding": "inplace",
        "label": "uint256[49]",
        "numberOfBytes": "1568"
      },
      "t_array(t_uint256)50_storage": {
        "base": "t_uint256",
        "encoding": "inplace",
        "label": "uint256[50]",
        "numberOfBytes": "1600"
      },
      "t_bool": {
        "encoding": "inplace",
        "label": "bool",
        "numberOfBytes": "1"
      },
      "t_bytes32": {
        "encoding": "inplace",
        "label": "bytes32",
        "numberOfBytes": "32"
      },
      "t_mapping(t_address,t_bool)": {
        "encoding": "mapping",
        "key": "t_address",
        "label": "mapping(address => bool)",
        "numberOfBytes": "32",
        "value": "t_bool"
      },
      "t_mapping(t_address,t_mapping(t_address,t_bool))": {
        "encoding": "mapping",
        "key": "t_address",
        "label": "mapping(address => mapping(address => bool))",
        "numberOfBytes": "32",
        "value": "t_mapping(t_address,t_bool)"
      },
      "t_mapping(t_address,t_uint256)": {
        "encoding": "mapping",
        "key": "t_address",
        "label": "mapping(address => uint256)",
        "numberOfBytes": "32",
        "value": "t_uint256"
      },
      "t_mapping(t_bytes32,t_struct(AddressSet)4477_storage)": {
        "encoding": "mapping",
        "key": "t_bytes32",
        "label": "mapping(bytes32 => struct EnumerableSetUpgradeable.AddressSet)",
        "numberOfBytes": "32",
        "value": "t_struct(AddressSet)4477_storage"
      },
      "t_mapping(t_bytes32,t_struct(RoleData)179_storage)": {
        "encoding": "mapping",
        "key": "t_bytes32",
        "label": "mapping(bytes32 => struct AccessControlUpgradeable.RoleData)",
        "numberOfBytes": "32",
        "value": "t_struct(RoleData)179_storage"
      },
      "t_mapping(t_bytes32,t_uint256)": {
        "encoding": "mapping",
        "key": "t_bytes32",
        "label": "mapping(bytes32 => uint256)",
        "numberOfBytes": "32",
        "value": "t_uint256"
      },
      "t_mapping(t_uint256,t_bool)": {
        "encoding": "mapping",
        "key": "t_uint256",
        "label": "mapping(uint256 => bool)",
        "numberOfBytes": "32",
        "value": "t_bool"
      },
      "t_mapping(t_uint256,t_mapping(t_address,t_uint256))": {
        "encoding": "mapping",
        "key": "t_uint256",
        "label": "mapping(uint256 => mapping(address => uint256))",
        "numberOfBytes": "32",
        "value": "t_mapping(t_address,t_uint256)"
      },
      "t_string_storage": {
        "encoding": "bytes",
        "label": "string",
        "numberOfBytes": "32"
      },
      "t_struct(AddressSet)4477_storage": {
        "encoding": "inplace",
        "label": "struct EnumerableSetUpgradeable.AddressSet",
        "members": [
          {
            "astId": 4476,
            "contract": "contracts/protocol/core/UniqueIdentity.sol:UniqueIdentity",
            "label": "_inner",
            "offset": 0,
            "slot": "0",
            "type": "t_struct(Set)4162_storage"
          }
        ],
        "numberOfBytes": "64"
      },
      "t_struct(RoleData)179_storage": {
        "encoding": "inplace",
        "label": "struct AccessControlUpgradeable.RoleData",
        "members": [
          {
            "astId": 176,
            "contract": "contracts/protocol/core/UniqueIdentity.sol:UniqueIdentity",
            "label": "members",
            "offset": 0,
            "slot": "0",
            "type": "t_mapping(t_address,t_bool)"
          },
          {
            "astId": 178,
            "contract": "contracts/protocol/core/UniqueIdentity.sol:UniqueIdentity",
            "label": "adminRole",
            "offset": 0,
            "slot": "1",
            "type": "t_bytes32"
          }
        ],
        "numberOfBytes": "64"
      },
      "t_struct(Set)4162_storage": {
        "encoding": "inplace",
        "label": "struct EnumerableSetUpgradeable.Set",
        "members": [
          {
            "astId": 4157,
            "contract": "contracts/protocol/core/UniqueIdentity.sol:UniqueIdentity",
            "label": "_values",
            "offset": 0,
            "slot": "0",
            "type": "t_array(t_bytes32)dyn_storage"
          },
          {
            "astId": 4161,
            "contract": "contracts/protocol/core/UniqueIdentity.sol:UniqueIdentity",
            "label": "_indexes",
            "offset": 0,
            "slot": "1",
            "type": "t_mapping(t_bytes32,t_uint256)"
          }
        ],
        "numberOfBytes": "64"
      },
      "t_uint256": {
        "encoding": "inplace",
        "label": "uint256",
        "numberOfBytes": "32"
      },
      "t_uint8": {
        "encoding": "inplace",
        "label": "uint8",
        "numberOfBytes": "1"
      }
    }
  }
}